{
  "_format": "hh-sol-artifact-1",
  "contractName": "DonationsManageContract",
  "sourceName": "contracts/DonationsManageContract.sol",
  "abi": [
    {
      "inputs": [
        {
          "internalType": "address",
          "name": "_token",
          "type": "address"
        },
        {
          "internalType": "address",
          "name": "_nft",
          "type": "address"
        }
      ],
      "stateMutability": "nonpayable",
      "type": "constructor"
    },
    {
      "anonymous": false,
      "inputs": [
        {
          "indexed": true,
          "internalType": "uint256",
          "name": "id",
          "type": "uint256"
        },
        {
          "indexed": false,
          "internalType": "address",
          "name": "caller",
          "type": "address"
        },
        {
          "indexed": false,
          "internalType": "uint256",
          "name": "time",
          "type": "uint256"
        }
      ],
      "name": "CancellCampaign",
      "type": "event"
    },
    {
      "anonymous": false,
      "inputs": [
        {
          "indexed": true,
          "internalType": "uint256",
          "name": "id",
          "type": "uint256"
        },
        {
          "indexed": false,
          "internalType": "address",
          "name": "caller",
          "type": "address"
        },
        {
          "indexed": false,
          "internalType": "uint256",
          "name": "time",
          "type": "uint256"
        }
      ],
      "name": "CompletedCampaign",
      "type": "event"
    },
    {
      "anonymous": false,
      "inputs": [
        {
          "indexed": true,
          "internalType": "uint256",
          "name": "id",
          "type": "uint256"
        },
        {
          "indexed": false,
          "internalType": "address",
          "name": "donater",
          "type": "address"
        },
        {
          "indexed": false,
          "internalType": "uint256",
          "name": "amount",
          "type": "uint256"
        }
      ],
      "name": "Donate",
      "type": "event"
    },
    {
      "anonymous": false,
      "inputs": [
        {
          "indexed": true,
          "internalType": "uint256",
          "name": "id",
          "type": "uint256"
        },
        {
          "indexed": false,
          "internalType": "address",
          "name": "refunder",
          "type": "address"
        },
        {
          "indexed": false,
          "internalType": "uint256",
          "name": "refundAmount",
          "type": "uint256"
        },
        {
          "indexed": false,
          "internalType": "uint256",
          "name": "time",
          "type": "uint256"
        }
      ],
      "name": "Refund",
      "type": "event"
    },
    {
      "anonymous": false,
      "inputs": [
        {
          "indexed": true,
          "internalType": "uint256",
          "name": "id",
          "type": "uint256"
        },
        {
          "indexed": false,
          "internalType": "address",
          "name": "starter",
          "type": "address"
        },
        {
          "indexed": false,
          "internalType": "string",
          "name": "title",
          "type": "string"
        },
        {
          "indexed": false,
          "internalType": "uint256",
          "name": "goal",
          "type": "uint256"
        },
        {
          "indexed": false,
          "internalType": "uint256",
          "name": "startTime",
          "type": "uint256"
        },
        {
          "indexed": false,
          "internalType": "uint256",
          "name": "endTime",
          "type": "uint256"
        },
        {
          "indexed": false,
          "internalType": "enum DonationsManageContract.CampaignStatus",
          "name": "status",
          "type": "uint8"
        }
      ],
      "name": "StartCampaign",
      "type": "event"
    },
    {
      "anonymous": false,
      "inputs": [
        {
          "indexed": true,
          "internalType": "uint256",
          "name": "id",
          "type": "uint256"
        },
        {
          "indexed": false,
          "internalType": "address",
          "name": "withdrawer",
          "type": "address"
        },
        {
          "indexed": false,
          "internalType": "uint256",
          "name": "withdrawAmount",
          "type": "uint256"
        },
        {
          "indexed": false,
          "internalType": "uint256",
          "name": "time",
          "type": "uint256"
        }
      ],
      "name": "Withdraw",
      "type": "event"
    },
    {
      "inputs": [],
      "name": "campaignCount",
      "outputs": [
        {
          "internalType": "uint256",
          "name": "",
          "type": "uint256"
        }
      ],
      "stateMutability": "view",
      "type": "function"
    },
    {
      "inputs": [
        {
          "internalType": "uint256",
          "name": "",
          "type": "uint256"
        }
      ],
      "name": "campaigns",
      "outputs": [
        {
          "internalType": "string",
          "name": "title",
          "type": "string"
        },
        {
          "internalType": "uint256",
          "name": "goal",
          "type": "uint256"
        },
        {
          "internalType": "uint256",
          "name": "totalDonated",
          "type": "uint256"
        },
        {
          "internalType": "uint256",
          "name": "startTime",
          "type": "uint256"
        },
        {
          "internalType": "uint256",
          "name": "endTime",
          "type": "uint256"
        },
        {
          "internalType": "enum DonationsManageContract.CampaignStatus",
          "name": "status",
          "type": "uint8"
        },
        {
          "internalType": "address",
          "name": "starter",
          "type": "address"
        }
      ],
      "stateMutability": "view",
      "type": "function"
    },
    {
      "inputs": [
        {
          "internalType": "uint256",
          "name": "",
          "type": "uint256"
        }
      ],
      "name": "campaignsToCheck",
      "outputs": [
        {
          "internalType": "uint256",
          "name": "",
          "type": "uint256"
        }
      ],
      "stateMutability": "view",
      "type": "function"
    },
    {
      "inputs": [
        {
          "internalType": "uint256",
          "name": "_campaignId",
          "type": "uint256"
        }
      ],
      "name": "cancellCampaign",
      "outputs": [],
      "stateMutability": "nonpayable",
      "type": "function"
    },
    {
      "inputs": [
        {
          "internalType": "bytes",
          "name": "",
          "type": "bytes"
        }
      ],
      "name": "checkUpkeep",
      "outputs": [
        {
          "internalType": "bool",
          "name": "upkeepNeeded",
          "type": "bool"
        },
        {
          "internalType": "bytes",
          "name": "performData",
          "type": "bytes"
        }
      ],
      "stateMutability": "view",
      "type": "function"
    },
    {
      "inputs": [
        {
          "internalType": "uint256",
          "name": "_campaignId",
          "type": "uint256"
        }
      ],
      "name": "completedCampaign",
      "outputs": [],
      "stateMutability": "nonpayable",
      "type": "function"
    },
    {
      "inputs": [
        {
          "internalType": "string",
          "name": "_title",
          "type": "string"
        },
        {
          "internalType": "uint256",
          "name": "_goal",
          "type": "uint256"
        },
        {
          "internalType": "uint256",
          "name": "_startTime",
          "type": "uint256"
        },
        {
          "internalType": "uint256",
          "name": "_endTime",
          "type": "uint256"
        }
      ],
      "name": "createCampaign",
      "outputs": [],
      "stateMutability": "nonpayable",
      "type": "function"
    },
    {
      "inputs": [
        {
          "internalType": "uint256",
          "name": "_campaignId",
          "type": "uint256"
        },
        {
          "internalType": "uint256",
          "name": "_amount",
          "type": "uint256"
        }
      ],
      "name": "donate",
      "outputs": [],
      "stateMutability": "nonpayable",
      "type": "function"
    },
    {
      "inputs": [
        {
          "internalType": "uint256",
          "name": "_campaignId",
          "type": "uint256"
        }
      ],
      "name": "getCampaignDetails",
      "outputs": [
        {
          "internalType": "string",
          "name": "title",
          "type": "string"
        },
        {
          "internalType": "uint256",
          "name": "goal",
          "type": "uint256"
        },
        {
          "internalType": "uint256",
          "name": "totalDonated",
          "type": "uint256"
        },
        {
          "internalType": "uint256",
          "name": "startTime",
          "type": "uint256"
        },
        {
          "internalType": "uint256",
          "name": "endTime",
          "type": "uint256"
        },
        {
          "internalType": "enum DonationsManageContract.CampaignStatus",
          "name": "status",
          "type": "uint8"
        },
        {
          "internalType": "address",
          "name": "starter",
          "type": "address"
        }
      ],
      "stateMutability": "view",
      "type": "function"
    },
    {
      "inputs": [],
      "name": "owner",
      "outputs": [
        {
          "internalType": "address",
          "name": "",
          "type": "address"
        }
      ],
      "stateMutability": "view",
      "type": "function"
    },
    {
      "inputs": [
        {
          "internalType": "bytes",
          "name": "performData",
          "type": "bytes"
        }
      ],
      "name": "performUpkeep",
      "outputs": [],
      "stateMutability": "nonpayable",
      "type": "function"
    },
    {
      "inputs": [
        {
          "internalType": "uint256",
          "name": "_campaignId",
          "type": "uint256"
        }
      ],
      "name": "refundToken",
      "outputs": [],
      "stateMutability": "nonpayable",
      "type": "function"
    },
    {
      "inputs": [
        {
          "internalType": "uint256",
          "name": "_campaignId",
          "type": "uint256"
        }
      ],
      "name": "withdraw",
      "outputs": [],
      "stateMutability": "nonpayable",
      "type": "function"
    }
  ],
  "bytecode": "0x608060405234801561001057600080fd5b50604051612d24380380612d248339818101604052810190610032919061011e565b81600160006101000a81548173ffffffffffffffffffffffffffffffffffffffff021916908373ffffffffffffffffffffffffffffffffffffffff16021790555080600260006101000a81548173ffffffffffffffffffffffffffffffffffffffff021916908373ffffffffffffffffffffffffffffffffffffffff160217905550505061015e565b600080fd5b600073ffffffffffffffffffffffffffffffffffffffff82169050919050565b60006100eb826100c0565b9050919050565b6100fb816100e0565b811461010657600080fd5b50565b600081519050610118816100f2565b92915050565b60008060408385031215610135576101346100bb565b5b600061014385828601610109565b925050602061015485828601610109565b9150509250929050565b612bb78061016d6000396000f3fe608060405234801561001057600080fd5b50600436106100cf5760003560e01c80636e04ff0d1161008c578063b4e5be2911610066578063b4e5be2914610203578063b5a898ae1461021f578063be6c81a51461023b578063d993de621461026b576100cf565b80636e04ff0d146101965780637274e30d146101c75780638da5cb5b146101e5576100cf565b80630cdd53f6146100d4578063141961bc146100f057806317191704146101265780632e1a7d4d146101425780634585e33b1461015e5780635177af141461017a575b600080fd5b6100ee60048036038101906100e991906117dc565b6102a1565b005b61010a6004803603810190610105919061181c565b6104c9565b60405161011d97969594939291906119a0565b60405180910390f35b610140600480360381019061013b919061181c565b6105c0565b005b61015c6004803603810190610157919061181c565b610828565b005b61017860048036038101906101739190611a7b565b610a9c565b005b610194600480360381019061018f919061181c565b610d93565b005b6101b060048036038101906101ab9190611a7b565b610f84565b6040516101be929190611b38565b60405180910390f35b6101cf6111e7565b6040516101dc9190611b68565b60405180910390f35b6101ed6111ed565b6040516101fa9190611b83565b60405180910390f35b61021d6004803603810190610218919061181c565b611211565b005b61023960048036038101906102349190611cce565b61133f565b005b6102556004803603810190610250919061181c565b6115ae565b6040516102629190611b68565b60405180910390f35b6102856004803603810190610280919061181c565b6115d2565b60405161029897969594939291906119a0565b60405180910390f35b6000600360008481526020019081526020016000209050600160038111156102cc576102cb6118e8565b5b8160060160009054906101000a900460ff1660038111156102f0576102ef6118e8565b5b14610330576040517f08c379a000000000000000000000000000000000000000000000000000000000815260040161032790611dc3565b60405180910390fd5b818160050160003373ffffffffffffffffffffffffffffffffffffffff1673ffffffffffffffffffffffffffffffffffffffff16815260200190815260200160002060008282546103819190611e12565b925050819055508181600201600082825461039c9190611e12565b925050819055506000600160009054906101000a900473ffffffffffffffffffffffffffffffffffffffff1673ffffffffffffffffffffffffffffffffffffffff166323b872dd3330866040518463ffffffff1660e01b815260040161040493929190611e46565b6020604051808303816000875af1158015610423573d6000803e3d6000fd5b505050506040513d601f19601f820116820180604052508101906104479190611ea9565b905080610489576040517f08c379a000000000000000000000000000000000000000000000000000000000815260040161048090611f22565b60405180910390fd5b837f48def02da8c59b50861e25bab759a8a0c0de6fab6448ef85f32ce59397947d8033856040516104bb929190611f42565b60405180910390a250505050565b60036020528060005260406000206000915090508060000180546104ec90611f9a565b80601f016020809104026020016040519081016040528092919081815260200182805461051890611f9a565b80156105655780601f1061053a57610100808354040283529160200191610565565b820191906000526020600020905b81548152906001019060200180831161054857829003601f168201915b5050505050908060010154908060020154908060030154908060040154908060060160009054906101000a900460ff16908060060160019054906101000a900473ffffffffffffffffffffffffffffffffffffffff16905087565b60006003600083815260200190815260200160002090506003808111156105ea576105e96118e8565b5b8160060160009054906101000a900460ff16600381111561060e5761060d6118e8565b5b1461064e576040517f08c379a00000000000000000000000000000000000000000000000000000000081526004016106459061203d565b60405180910390fd5b600081600501905060008160003373ffffffffffffffffffffffffffffffffffffffff1673ffffffffffffffffffffffffffffffffffffffff168152602001908152602001600020549050600081146108225760008260003373ffffffffffffffffffffffffffffffffffffffff1673ffffffffffffffffffffffffffffffffffffffff16815260200190815260200160002081905550808360020160008282546106f9919061205d565b925050819055506000600160009054906101000a900473ffffffffffffffffffffffffffffffffffffffff1673ffffffffffffffffffffffffffffffffffffffff1663a9059cbb33846040518363ffffffff1660e01b815260040161075f929190611f42565b6020604051808303816000875af115801561077e573d6000803e3d6000fd5b505050506040513d601f19601f820116820180604052508101906107a29190611ea9565b9050806107e4576040517f08c379a00000000000000000000000000000000000000000000000000000000081526004016107db906120dd565b60405180910390fd5b847faba4210cad11f1112f31ba136a61cdc0f6ab4c2b478da8c93eec1d9769e97a89338442604051610818939291906120fd565b60405180910390a2505b50505050565b8060006003600083815260200190815260200160002090508060060160019054906101000a900473ffffffffffffffffffffffffffffffffffffffff1673ffffffffffffffffffffffffffffffffffffffff163373ffffffffffffffffffffffffffffffffffffffff16146108d2576040517f08c379a00000000000000000000000000000000000000000000000000000000081526004016108c990612180565b60405180910390fd5b6000600360008581526020019081526020016000209050600260038111156108fd576108fc6118e8565b5b8160060160009054906101000a900460ff166003811115610921576109206118e8565b5b14610961576040517f08c379a0000000000000000000000000000000000000000000000000000000008152600401610958906121ec565b60405180910390fd5b600081600201549050600082600201819055506000600160009054906101000a900473ffffffffffffffffffffffffffffffffffffffff1673ffffffffffffffffffffffffffffffffffffffff1663a9059cbb33846040518363ffffffff1660e01b81526004016109d3929190611f42565b6020604051808303816000875af11580156109f2573d6000803e3d6000fd5b505050506040513d601f19601f82011682018060405250810190610a169190611ea9565b905080610a58576040517f08c379a0000000000000000000000000000000000000000000000000000000008152600401610a4f90612258565b60405180910390fd5b857fb0ecf14e184effded5473bba77dcfab32b094b77ac1fbb36beec2aef55587970338442604051610a8c939291906120fd565b60405180910390a2505050505050565b60008282810190610aad919061233b565b905060005b8151811015610d8d576000828281518110610ad057610acf612384565b5b602002602001015190506000600360008381526020019081526020016000209050600380811115610b0457610b036118e8565b5b8160060160009054906101000a900460ff166003811115610b2857610b276118e8565b5b1480610b69575060026003811115610b4357610b426118e8565b5b8160060160009054906101000a900460ff166003811115610b6757610b666118e8565b5b145b15610b75575050610d80565b806003015442118015610b8b5750806004015442105b8015610bcc575060006003811115610ba657610ba56118e8565b5b8160060160009054906101000a900460ff166003811115610bca57610bc96118e8565b5b145b15610c615760018160060160006101000a81548160ff02191690836003811115610bf957610bf86118e8565b5b0217905550817f5dd4303e85365effc8c9d4844c548769a1cbc12b0044bb72c0970894f016026f33836000018460010154856003015486600401548760060160009054906101000a900460ff16604051610c589695949392919061244c565b60405180910390a25b80600401544210158015610c7c575080600101548160020154105b15610cef5760038160060160006101000a81548160ff02191690836003811115610ca957610ca86118e8565b5b0217905550817f1c37c67694e49ddaa169e8b7f9dafd655ba8cfc26df25bf66ea18d649d5e70963342604051610ce0929190611f42565b60405180910390a25050610d80565b806003015442118015610d0a57508060010154816002015410155b15610d7d5760028160060160006101000a81548160ff02191690836003811115610d3757610d366118e8565b5b0217905550817fcab935963eaa03f3973204c91b5bc658726a1015d91fc361d82f67c4071723003342604051610d6e929190611f42565b60405180910390a25050610d80565b50505b8080600101915050610ab2565b50505050565b8060006003600083815260200190815260200160002090508060060160019054906101000a900473ffffffffffffffffffffffffffffffffffffffff1673ffffffffffffffffffffffffffffffffffffffff163373ffffffffffffffffffffffffffffffffffffffff1614610e3d576040517f08c379a0000000000000000000000000000000000000000000000000000000008152600401610e3490612180565b60405180910390fd5b600060036000858152602001908152602001600020905060016003811115610e6857610e676118e8565b5b8160060160009054906101000a900460ff166003811115610e8c57610e8b6118e8565b5b14610ecc576040517f08c379a0000000000000000000000000000000000000000000000000000000008152600401610ec390612526565b60405180910390fd5b806001015481600201541015610f17576040517f08c379a0000000000000000000000000000000000000000000000000000000008152600401610f0e90612592565b60405180910390fd5b60028160060160006101000a81548160ff02191690836003811115610f3f57610f3e6118e8565b5b0217905550837fcab935963eaa03f3973204c91b5bc658726a1015d91fc361d82f67c4071723003342604051610f76929190611f42565b60405180910390a250505050565b60006060600091506000600480549050905060008167ffffffffffffffff811115610fb257610fb1611ba3565b5b604051908082528060200260200182016040528015610fe05781602001602082028036833780820191505090505b5090506000805b838110156111a3576000600360006004848154811061100957611008612384565b5b906000526020600020015481526020019081526020016000209050600380811115611037576110366118e8565b5b8160060160009054906101000a900460ff16600381111561105b5761105a6118e8565b5b148061109c575060026003811115611076576110756118e8565b5b8160060160009054906101000a900460ff16600381111561109a576110996118e8565b5b145b156110a75750611196565b8060030154421180156110bd5750806004015442105b80156110fe5750600060038111156110d8576110d76118e8565b5b8160060160009054906101000a900460ff1660038111156110fc576110fb6118e8565b5b145b80611120575080600301544211801561111f57508060010154816002015410155b5b80611142575080600401544210158015611141575080600101548160020154105b5b15611194576004828154811061115b5761115a612384565b5b906000526020600020015484848151811061117957611178612384565b5b6020026020010181815250508280611190906125b2565b9350505b505b8080600101915050610fe7565b5060008111156111dd57600194506111bb82826116e6565b6040516020016111cb91906126b8565b60405160208183030381529060405293505b5050509250929050565b60055481565b60008054906101000a900473ffffffffffffffffffffffffffffffffffffffff1681565b8060006003600083815260200190815260200160002090508060060160019054906101000a900473ffffffffffffffffffffffffffffffffffffffff1673ffffffffffffffffffffffffffffffffffffffff163373ffffffffffffffffffffffffffffffffffffffff16146112bb576040517f08c379a00000000000000000000000000000000000000000000000000000000081526004016112b290612180565b60405180910390fd5b600060036000858152602001908152602001600020905060038160060160006101000a81548160ff021916908360038111156112fa576112f96118e8565b5b0217905550837f1c37c67694e49ddaa169e8b7f9dafd655ba8cfc26df25bf66ea18d649d5e70963342604051611331929190611f42565b60405180910390a250505050565b6000845111611383576040517f08c379a000000000000000000000000000000000000000000000000000000000815260040161137a90612726565b60405180910390fd5b600083116113c6576040517f08c379a00000000000000000000000000000000000000000000000000000000081526004016113bd90612792565b60405180910390fd5b808210611408576040517f08c379a00000000000000000000000000000000000000000000000000000000081526004016113ff90612824565b60405180910390fd5b80421061144a576040517f08c379a000000000000000000000000000000000000000000000000000000000815260040161144190612890565b60405180910390fd5b6005600081548092919061145d906125b2565b9190505550600060036000600554815260200190815260200160002090508481600001908161148c9190612a47565b508381600101819055508281600301819055508181600401819055508242116114b65760006114b9565b60015b8160060160006101000a81548160ff021916908360038111156114df576114de6118e8565b5b0217905550338160060160016101000a81548173ffffffffffffffffffffffffffffffffffffffff021916908373ffffffffffffffffffffffffffffffffffffffff160217905550600460055490806001815401808255809150506001900390600052602060002001600090919091909150556005547f5dd4303e85365effc8c9d4844c548769a1cbc12b0044bb72c0970894f016026f33878787878760060160009054906101000a900460ff1660405161159f96959493929190612b19565b60405180910390a25050505050565b600481815481106115be57600080fd5b906000526020600020016000915090505481565b60606000806000806000806000600360008a8152602001908152602001600020905080600001805461160390611f9a565b80601f016020809104026020016040519081016040528092919081815260200182805461162f90611f9a565b801561167c5780601f106116515761010080835404028352916020019161167c565b820191906000526020600020905b81548152906001019060200180831161165f57829003601f168201915b50505050509750806001015496508060020154955080600301549450806004015493508060060160009054906101000a900460ff1692508060060160019054906101000a900473ffffffffffffffffffffffffffffffffffffffff16915050919395979092949650565b606060008267ffffffffffffffff81111561170457611703611ba3565b5b6040519080825280602002602001820160405280156117325781602001602082028036833780820191505090505b50905060005b838110156117875784818151811061175357611752612384565b5b602002602001015182828151811061176e5761176d612384565b5b6020026020010181815250508080600101915050611738565b508091505092915050565b6000604051905090565b600080fd5b600080fd5b6000819050919050565b6117b9816117a6565b81146117c457600080fd5b50565b6000813590506117d6816117b0565b92915050565b600080604083850312156117f3576117f261179c565b5b6000611801858286016117c7565b9250506020611812858286016117c7565b9150509250929050565b6000602082840312156118325761183161179c565b5b6000611840848285016117c7565b91505092915050565b600081519050919050565b600082825260208201905092915050565b60005b83811015611883578082015181840152602081019050611868565b60008484015250505050565b6000601f19601f8301169050919050565b60006118ab82611849565b6118b58185611854565b93506118c5818560208601611865565b6118ce8161188f565b840191505092915050565b6118e2816117a6565b82525050565b7f4e487b7100000000000000000000000000000000000000000000000000000000600052602160045260246000fd5b60048110611928576119276118e8565b5b50565b600081905061193982611917565b919050565b60006119498261192b565b9050919050565b6119598161193e565b82525050565b600073ffffffffffffffffffffffffffffffffffffffff82169050919050565b600061198a8261195f565b9050919050565b61199a8161197f565b82525050565b600060e08201905081810360008301526119ba818a6118a0565b90506119c960208301896118d9565b6119d660408301886118d9565b6119e360608301876118d9565b6119f060808301866118d9565b6119fd60a0830185611950565b611a0a60c0830184611991565b98975050505050505050565b600080fd5b600080fd5b600080fd5b60008083601f840112611a3b57611a3a611a16565b5b8235905067ffffffffffffffff811115611a5857611a57611a1b565b5b602083019150836001820283011115611a7457611a73611a20565b5b9250929050565b60008060208385031215611a9257611a9161179c565b5b600083013567ffffffffffffffff811115611ab057611aaf6117a1565b5b611abc85828601611a25565b92509250509250929050565b60008115159050919050565b611add81611ac8565b82525050565b600081519050919050565b600082825260208201905092915050565b6000611b0a82611ae3565b611b148185611aee565b9350611b24818560208601611865565b611b2d8161188f565b840191505092915050565b6000604082019050611b4d6000830185611ad4565b8181036020830152611b5f8184611aff565b90509392505050565b6000602082019050611b7d60008301846118d9565b92915050565b6000602082019050611b986000830184611991565b92915050565b600080fd5b7f4e487b7100000000000000000000000000000000000000000000000000000000600052604160045260246000fd5b611bdb8261188f565b810181811067ffffffffffffffff82111715611bfa57611bf9611ba3565b5b80604052505050565b6000611c0d611792565b9050611c198282611bd2565b919050565b600067ffffffffffffffff821115611c3957611c38611ba3565b5b611c428261188f565b9050602081019050919050565b82818337600083830152505050565b6000611c71611c6c84611c1e565b611c03565b905082815260208101848484011115611c8d57611c8c611b9e565b5b611c98848285611c4f565b509392505050565b600082601f830112611cb557611cb4611a16565b5b8135611cc5848260208601611c5e565b91505092915050565b60008060008060808587031215611ce857611ce761179c565b5b600085013567ffffffffffffffff811115611d0657611d056117a1565b5b611d1287828801611ca0565b9450506020611d23878288016117c7565b9350506040611d34878288016117c7565b9250506060611d45878288016117c7565b91505092959194509250565b7f7468652063616d706169676e206973206e6f74207374617274206f7220656e6460008201527f6564000000000000000000000000000000000000000000000000000000000000602082015250565b6000611dad602283611854565b9150611db882611d51565b604082019050919050565b60006020820190508181036000830152611ddc81611da0565b9050919050565b7f4e487b7100000000000000000000000000000000000000000000000000000000600052601160045260246000fd5b6000611e1d826117a6565b9150611e28836117a6565b9250828201905080821115611e4057611e3f611de3565b5b92915050565b6000606082019050611e5b6000830186611991565b611e686020830185611991565b611e7560408301846118d9565b949350505050565b611e8681611ac8565b8114611e9157600080fd5b50565b600081519050611ea381611e7d565b92915050565b600060208284031215611ebf57611ebe61179c565b5b6000611ecd84828501611e94565b91505092915050565b7f646f6e617465207472616e73666572206661696c000000000000000000000000600082015250565b6000611f0c601483611854565b9150611f1782611ed6565b602082019050919050565b60006020820190508181036000830152611f3b81611eff565b9050919050565b6000604082019050611f576000830185611991565b611f6460208301846118d9565b9392505050565b7f4e487b7100000000000000000000000000000000000000000000000000000000600052602260045260246000fd5b60006002820490506001821680611fb257607f821691505b602082108103611fc557611fc4611f6b565b5b50919050565b7f63616d7061696e206e6f742063616e63656c6c65642c63616e206e6f7420726560008201527f66756e6400000000000000000000000000000000000000000000000000000000602082015250565b6000612027602483611854565b915061203282611fcb565b604082019050919050565b600060208201905081810360008301526120568161201a565b9050919050565b6000612068826117a6565b9150612073836117a6565b925082820390508181111561208b5761208a611de3565b5b92915050565b7f726566756e64207472616e73666572206661696c656400000000000000000000600082015250565b60006120c7601683611854565b91506120d282612091565b602082019050919050565b600060208201905081810360008301526120f6816120ba565b9050919050565b60006060820190506121126000830186611991565b61211f60208301856118d9565b61212c60408301846118d9565b949350505050565b7f6e6f742073746172746572000000000000000000000000000000000000000000600082015250565b600061216a600b83611854565b915061217582612134565b602082019050919050565b600060208201905081810360008301526121998161215d565b9050919050565b7f7468652063616d706169676e206973206e6f7420436f6d706c65746564000000600082015250565b60006121d6601d83611854565b91506121e1826121a0565b602082019050919050565b60006020820190508181036000830152612205816121c9565b9050919050565b7f7769746864726177207472616e73666572206661696c65640000000000000000600082015250565b6000612242601883611854565b915061224d8261220c565b602082019050919050565b6000602082019050818103600083015261227181612235565b9050919050565b600067ffffffffffffffff82111561229357612292611ba3565b5b602082029050602081019050919050565b60006122b76122b284612278565b611c03565b905080838252602082019050602084028301858111156122da576122d9611a20565b5b835b8181101561230357806122ef88826117c7565b8452602084019350506020810190506122dc565b5050509392505050565b600082601f83011261232257612321611a16565b5b81356123328482602086016122a4565b91505092915050565b6000602082840312156123515761235061179c565b5b600082013567ffffffffffffffff81111561236f5761236e6117a1565b5b61237b8482850161230d565b91505092915050565b7f4e487b7100000000000000000000000000000000000000000000000000000000600052603260045260246000fd5b60008190508160005260206000209050919050565b600081546123d581611f9a565b6123df8186611854565b945060018216600081146123fa576001811461241057612443565b60ff198316865281151560200286019350612443565b612419856123b3565b60005b8381101561243b5781548189015260018201915060208101905061241c565b808801955050505b50505092915050565b600060c0820190506124616000830189611991565b818103602083015261247381886123c8565b905061248260408301876118d9565b61248f60608301866118d9565b61249c60808301856118d9565b6124a960a0830184611950565b979650505050505050565b7f6e6f74206163746976652063616d706169676e2c63616e206e6f7420636f6d7060008201527f6c65746564000000000000000000000000000000000000000000000000000000602082015250565b6000612510602583611854565b915061251b826124b4565b604082019050919050565b6000602082019050818103600083015261253f81612503565b9050919050565b7f676f616c206973206e6f74207265616368000000000000000000000000000000600082015250565b600061257c601183611854565b915061258782612546565b602082019050919050565b600060208201905081810360008301526125ab8161256f565b9050919050565b60006125bd826117a6565b91507fffffffffffffffffffffffffffffffffffffffffffffffffffffffffffffffff82036125ef576125ee611de3565b5b600182019050919050565b600081519050919050565b600082825260208201905092915050565b6000819050602082019050919050565b61262f816117a6565b82525050565b60006126418383612626565b60208301905092915050565b6000602082019050919050565b6000612665826125fa565b61266f8185612605565b935061267a83612616565b8060005b838110156126ab5781516126928882612635565b975061269d8361264d565b92505060018101905061267e565b5085935050505092915050565b600060208201905081810360008301526126d2818461265a565b905092915050565b7f5469746c652063616e6e6f7420626520656d7074790000000000000000000000600082015250565b6000612710601583611854565b915061271b826126da565b602082019050919050565b6000602082019050818103600083015261273f81612703565b9050919050565b7f496e76616c696420676f616c0000000000000000000000000000000000000000600082015250565b600061277c600c83611854565b915061278782612746565b602082019050919050565b600060208201905081810360008301526127ab8161276f565b9050919050565b7f5f737461727454696d65206973206c61746572207468616e205f656e6454696d60008201527f6500000000000000000000000000000000000000000000000000000000000000602082015250565b600061280e602183611854565b9150612819826127b2565b604082019050919050565b6000602082019050818103600083015261283d81612801565b9050919050565b7f496e76616c696420656e6454696d650000000000000000000000000000000000600082015250565b600061287a600f83611854565b915061288582612844565b602082019050919050565b600060208201905081810360008301526128a98161286d565b9050919050565b60006020601f8301049050919050565b600082821b905092915050565b6000600883026128fd7fffffffffffffffffffffffffffffffffffffffffffffffffffffffffffffffff826128c0565b61290786836128c0565b95508019841693508086168417925050509392505050565b6000819050919050565b600061294461293f61293a846117a6565b61291f565b6117a6565b9050919050565b6000819050919050565b61295e83612929565b61297261296a8261294b565b8484546128cd565b825550505050565b600090565b61298761297a565b612992818484612955565b505050565b5b818110156129b6576129ab60008261297f565b600181019050612998565b5050565b601f8211156129fb576129cc816123b3565b6129d5846128b0565b810160208510156129e4578190505b6129f86129f0856128b0565b830182612997565b50505b505050565b600082821c905092915050565b6000612a1e60001984600802612a00565b1980831691505092915050565b6000612a378383612a0d565b9150826002028217905092915050565b612a5082611849565b67ffffffffffffffff811115612a6957612a68611ba3565b5b612a738254611f9a565b612a7e8282856129ba565b600060209050601f831160018114612ab15760008415612a9f578287015190505b612aa98582612a2b565b865550612b11565b601f198416612abf866123b3565b60005b82811015612ae757848901518255600182019150602085019450602081019050612ac2565b86831015612b045784890151612b00601f891682612a0d565b8355505b6001600288020188555050505b505050505050565b600060c082019050612b2e6000830189611991565b8181036020830152612b4081886118a0565b9050612b4f60408301876118d9565b612b5c60608301866118d9565b612b6960808301856118d9565b612b7660a0830184611950565b97965050505050505056fea26469706673582212207c9571e1dfd658b086c0d0649058a29449d919c7a207d27e1801f23f5aef359c64736f6c634300081c0033",
  "linkReferences": {},
  "deployedLinkReferences": {}
}