{
  "_format": "hh-sol-artifact-1",
  "contractName": "DonationsManageContract",
  "sourceName": "contracts/DonationsManageContract.sol",
  "abi": [
    {
      "inputs": [
        {
          "internalType": "address",
          "name": "_token",
          "type": "address"
        },
        {
          "internalType": "address",
          "name": "_nft",
          "type": "address"
        }
      ],
      "stateMutability": "nonpayable",
      "type": "constructor"
    },
    {
      "anonymous": false,
      "inputs": [
        {
          "indexed": true,
          "internalType": "uint256",
          "name": "id",
          "type": "uint256"
        },
        {
          "indexed": false,
          "internalType": "address",
          "name": "caller",
          "type": "address"
        },
        {
          "indexed": false,
          "internalType": "uint256",
          "name": "time",
          "type": "uint256"
        }
      ],
      "name": "CancellCampaign",
      "type": "event"
    },
    {
      "anonymous": false,
      "inputs": [
        {
          "indexed": true,
          "internalType": "uint256",
          "name": "id",
          "type": "uint256"
        },
        {
          "indexed": false,
          "internalType": "address",
          "name": "caller",
          "type": "address"
        },
        {
          "indexed": false,
          "internalType": "uint256",
          "name": "time",
          "type": "uint256"
        }
      ],
      "name": "CompletedCampaign",
      "type": "event"
    },
    {
      "anonymous": false,
      "inputs": [
        {
          "indexed": true,
          "internalType": "uint256",
          "name": "id",
          "type": "uint256"
        },
        {
          "indexed": false,
          "internalType": "address",
          "name": "donater",
          "type": "address"
        },
        {
          "indexed": false,
          "internalType": "uint256",
          "name": "amount",
          "type": "uint256"
        }
      ],
      "name": "Donate",
      "type": "event"
    },
    {
      "anonymous": false,
      "inputs": [
        {
          "indexed": true,
          "internalType": "uint256",
          "name": "id",
          "type": "uint256"
        },
        {
          "indexed": false,
          "internalType": "address",
          "name": "refunder",
          "type": "address"
        },
        {
          "indexed": false,
          "internalType": "uint256",
          "name": "refundAmount",
          "type": "uint256"
        },
        {
          "indexed": false,
          "internalType": "uint256",
          "name": "time",
          "type": "uint256"
        }
      ],
      "name": "Refund",
      "type": "event"
    },
    {
      "anonymous": false,
      "inputs": [
        {
          "indexed": true,
          "internalType": "uint256",
          "name": "id",
          "type": "uint256"
        },
        {
          "indexed": false,
          "internalType": "address",
          "name": "starter",
          "type": "address"
        },
        {
          "indexed": false,
          "internalType": "string",
          "name": "title",
          "type": "string"
        },
        {
          "indexed": false,
          "internalType": "uint256",
          "name": "goal",
          "type": "uint256"
        },
        {
          "indexed": false,
          "internalType": "uint256",
          "name": "startTime",
          "type": "uint256"
        },
        {
          "indexed": false,
          "internalType": "uint256",
          "name": "endTime",
          "type": "uint256"
        },
        {
          "indexed": false,
          "internalType": "enum DonationsManageContract.CampaignNature",
          "name": "nature",
          "type": "uint8"
        },
        {
          "indexed": false,
          "internalType": "enum DonationsManageContract.Beneficiary",
          "name": "beneficiary",
          "type": "uint8"
        },
        {
          "indexed": false,
          "internalType": "string",
          "name": "purpose",
          "type": "string"
        },
        {
          "indexed": false,
          "internalType": "string",
          "name": "expectedImpact",
          "type": "string"
        },
        {
          "indexed": false,
          "internalType": "enum DonationsManageContract.CampaignStatus",
          "name": "status",
          "type": "uint8"
        }
      ],
      "name": "StartCampaign",
      "type": "event"
    },
    {
      "anonymous": false,
      "inputs": [
        {
          "indexed": true,
          "internalType": "uint256",
          "name": "id",
          "type": "uint256"
        },
        {
          "indexed": false,
          "internalType": "address",
          "name": "withdrawer",
          "type": "address"
        },
        {
          "indexed": false,
          "internalType": "uint256",
          "name": "withdrawAmount",
          "type": "uint256"
        },
        {
          "indexed": false,
          "internalType": "uint256",
          "name": "time",
          "type": "uint256"
        }
      ],
      "name": "Withdraw",
      "type": "event"
    },
    {
      "inputs": [],
      "name": "campaignCount",
      "outputs": [
        {
          "internalType": "uint256",
          "name": "",
          "type": "uint256"
        }
      ],
      "stateMutability": "view",
      "type": "function"
    },
    {
      "inputs": [
        {
          "internalType": "uint256",
          "name": "",
          "type": "uint256"
        }
      ],
      "name": "campaigns",
      "outputs": [
        {
          "internalType": "string",
          "name": "title",
          "type": "string"
        },
        {
          "internalType": "uint256",
          "name": "goal",
          "type": "uint256"
        },
        {
          "internalType": "uint256",
          "name": "totalDonated",
          "type": "uint256"
        },
        {
          "internalType": "uint256",
          "name": "startTime",
          "type": "uint256"
        },
        {
          "internalType": "uint256",
          "name": "endTime",
          "type": "uint256"
        },
        {
          "internalType": "enum DonationsManageContract.CampaignNature",
          "name": "nature",
          "type": "uint8"
        },
        {
          "internalType": "enum DonationsManageContract.Beneficiary",
          "name": "beneficiary",
          "type": "uint8"
        },
        {
          "internalType": "string",
          "name": "purpose",
          "type": "string"
        },
        {
          "internalType": "string",
          "name": "expectedImpact",
          "type": "string"
        },
        {
          "internalType": "enum DonationsManageContract.CampaignStatus",
          "name": "status",
          "type": "uint8"
        },
        {
          "internalType": "address",
          "name": "starter",
          "type": "address"
        }
      ],
      "stateMutability": "view",
      "type": "function"
    },
    {
      "inputs": [
        {
          "internalType": "uint256",
          "name": "",
          "type": "uint256"
        }
      ],
      "name": "campaignsToCheck",
      "outputs": [
        {
          "internalType": "uint256",
          "name": "",
          "type": "uint256"
        }
      ],
      "stateMutability": "view",
      "type": "function"
    },
    {
      "inputs": [
        {
          "internalType": "uint256",
          "name": "_campaignId",
          "type": "uint256"
        }
      ],
      "name": "cancellCampaign",
      "outputs": [],
      "stateMutability": "nonpayable",
      "type": "function"
    },
    {
      "inputs": [
        {
          "internalType": "bytes",
          "name": "",
          "type": "bytes"
        }
      ],
      "name": "checkUpkeep",
      "outputs": [
        {
          "internalType": "bool",
          "name": "upkeepNeeded",
          "type": "bool"
        },
        {
          "internalType": "bytes",
          "name": "performData",
          "type": "bytes"
        }
      ],
      "stateMutability": "view",
      "type": "function"
    },
    {
      "inputs": [
        {
          "internalType": "uint256",
          "name": "_campaignId",
          "type": "uint256"
        }
      ],
      "name": "completedCampaign",
      "outputs": [],
      "stateMutability": "nonpayable",
      "type": "function"
    },
    {
      "inputs": [
        {
          "internalType": "string",
          "name": "_title",
          "type": "string"
        },
        {
          "internalType": "uint256",
          "name": "_goal",
          "type": "uint256"
        },
        {
          "internalType": "uint256",
          "name": "_startTime",
          "type": "uint256"
        },
        {
          "internalType": "uint256",
          "name": "_endTime",
          "type": "uint256"
        },
        {
          "internalType": "enum DonationsManageContract.CampaignNature",
          "name": "_nature",
          "type": "uint8"
        },
        {
          "internalType": "enum DonationsManageContract.Beneficiary",
          "name": "_beneficiary",
          "type": "uint8"
        },
        {
          "internalType": "string",
          "name": "_purpose",
          "type": "string"
        },
        {
          "internalType": "string",
          "name": "_expectedImpact",
          "type": "string"
        }
      ],
      "name": "createCampaign",
      "outputs": [],
      "stateMutability": "nonpayable",
      "type": "function"
    },
    {
      "inputs": [
        {
          "internalType": "uint256",
          "name": "_campaignId",
          "type": "uint256"
        },
        {
          "internalType": "uint256",
          "name": "_amount",
          "type": "uint256"
        }
      ],
      "name": "donate",
      "outputs": [],
      "stateMutability": "nonpayable",
      "type": "function"
    },
    {
      "inputs": [
        {
          "internalType": "uint256",
          "name": "_campaignId",
          "type": "uint256"
        }
      ],
      "name": "getCampaignDetails",
      "outputs": [
        {
          "internalType": "string",
          "name": "title",
          "type": "string"
        },
        {
          "internalType": "uint256",
          "name": "goal",
          "type": "uint256"
        },
        {
          "internalType": "uint256",
          "name": "totalDonated",
          "type": "uint256"
        },
        {
          "internalType": "uint256",
          "name": "startTime",
          "type": "uint256"
        },
        {
          "internalType": "uint256",
          "name": "endTime",
          "type": "uint256"
        },
        {
          "internalType": "enum DonationsManageContract.CampaignStatus",
          "name": "status",
          "type": "uint8"
        },
        {
          "internalType": "address",
          "name": "starter",
          "type": "address"
        }
      ],
      "stateMutability": "view",
      "type": "function"
    },
    {
      "inputs": [],
      "name": "owner",
      "outputs": [
        {
          "internalType": "address",
          "name": "",
          "type": "address"
        }
      ],
      "stateMutability": "view",
      "type": "function"
    },
    {
      "inputs": [
        {
          "internalType": "bytes",
          "name": "performData",
          "type": "bytes"
        }
      ],
      "name": "performUpkeep",
      "outputs": [],
      "stateMutability": "nonpayable",
      "type": "function"
    },
    {
      "inputs": [
        {
          "internalType": "uint256",
          "name": "_campaignId",
          "type": "uint256"
        }
      ],
      "name": "refundToken",
      "outputs": [],
      "stateMutability": "nonpayable",
      "type": "function"
    },
    {
      "inputs": [
        {
          "internalType": "uint256",
          "name": "_campaignId",
          "type": "uint256"
        }
      ],
      "name": "withdraw",
      "outputs": [],
      "stateMutability": "nonpayable",
      "type": "function"
    }
  ],
  "bytecode": "0x608060405234801561001057600080fd5b506040516131d53803806131d58339818101604052810190610032919061011e565b81600160006101000a81548173ffffffffffffffffffffffffffffffffffffffff021916908373ffffffffffffffffffffffffffffffffffffffff16021790555080600260006101000a81548173ffffffffffffffffffffffffffffffffffffffff021916908373ffffffffffffffffffffffffffffffffffffffff160217905550505061015e565b600080fd5b600073ffffffffffffffffffffffffffffffffffffffff82169050919050565b60006100eb826100c0565b9050919050565b6100fb816100e0565b811461010657600080fd5b50565b600081519050610118816100f2565b92915050565b60008060408385031215610135576101346100bb565b5b600061014385828601610109565b925050602061015485828601610109565b9150509250929050565b6130688061016d6000396000f3fe608060405234801561001057600080fd5b50600436106100cf5760003560e01c80636e04ff0d1161008c5780639d1a3691116100665780639d1a369114610207578063b4e5be2914610223578063be6c81a51461023f578063d993de621461026f576100cf565b80636e04ff0d1461019a5780637274e30d146101cb5780638da5cb5b146101e9576100cf565b80630cdd53f6146100d4578063141961bc146100f0578063171917041461012a5780632e1a7d4d146101465780634585e33b146101625780635177af141461017e575b600080fd5b6100ee60048036038101906100e991906119da565b6102a5565b005b61010a60048036038101906101059190611a1a565b6104cd565b6040516101219b9a99989796959493929190611c2e565b60405180910390f35b610144600480360381019061013f9190611a1a565b610706565b005b610160600480360381019061015b9190611a1a565b61096e565b005b61017c60048036038101906101779190611d53565b610be2565b005b61019860048036038101906101939190611a1a565b610f09565b005b6101b460048036038101906101af9190611d53565b6110fa565b6040516101c2929190611e10565b60405180910390f35b6101d361135d565b6040516101e09190611e40565b60405180910390f35b6101f1611363565b6040516101fe9190611e5b565b60405180910390f35b610221600480360381019061021c9190611ff0565b611387565b005b61023d60048036038101906102389190611a1a565b61167e565b005b61025960048036038101906102549190611a1a565b6117ac565b6040516102669190611e40565b60405180910390f35b61028960048036038101906102849190611a1a565b6117d0565b60405161029c97969594939291906120fa565b60405180910390f35b6000600360008481526020019081526020016000209050600160038111156102d0576102cf611ae6565b5b8160090160009054906101000a900460ff1660038111156102f4576102f3611ae6565b5b14610334576040517f08c379a000000000000000000000000000000000000000000000000000000000815260040161032b906121e2565b60405180910390fd5b818160080160003373ffffffffffffffffffffffffffffffffffffffff1673ffffffffffffffffffffffffffffffffffffffff16815260200190815260200160002060008282546103859190612231565b92505081905550818160020160008282546103a09190612231565b925050819055506000600160009054906101000a900473ffffffffffffffffffffffffffffffffffffffff1673ffffffffffffffffffffffffffffffffffffffff166323b872dd3330866040518463ffffffff1660e01b815260040161040893929190612265565b6020604051808303816000875af1158015610427573d6000803e3d6000fd5b505050506040513d601f19601f8201168201806040525081019061044b91906122c8565b90508061048d576040517f08c379a000000000000000000000000000000000000000000000000000000000815260040161048490612341565b60405180910390fd5b837f48def02da8c59b50861e25bab759a8a0c0de6fab6448ef85f32ce59397947d8033856040516104bf929190612361565b60405180910390a250505050565b60036020528060005260406000206000915090508060000180546104f0906123b9565b80601f016020809104026020016040519081016040528092919081815260200182805461051c906123b9565b80156105695780601f1061053e57610100808354040283529160200191610569565b820191906000526020600020905b81548152906001019060200180831161054c57829003601f168201915b5050505050908060010154908060020154908060030154908060040154908060050160009054906101000a900460ff16908060050160019054906101000a900460ff16908060060180546105bc906123b9565b80601f01602080910402602001604051908101604052809291908181526020018280546105e8906123b9565b80156106355780601f1061060a57610100808354040283529160200191610635565b820191906000526020600020905b81548152906001019060200180831161061857829003601f168201915b50505050509080600701805461064a906123b9565b80601f0160208091040260200160405190810160405280929190818152602001828054610676906123b9565b80156106c35780601f10610698576101008083540402835291602001916106c3565b820191906000526020600020905b8154815290600101906020018083116106a657829003601f168201915b5050505050908060090160009054906101000a900460ff16908060090160019054906101000a900473ffffffffffffffffffffffffffffffffffffffff1690508b565b60006003600083815260200190815260200160002090506003808111156107305761072f611ae6565b5b8160090160009054906101000a900460ff16600381111561075457610753611ae6565b5b14610794576040517f08c379a000000000000000000000000000000000000000000000000000000000815260040161078b9061245c565b60405180910390fd5b600081600801905060008160003373ffffffffffffffffffffffffffffffffffffffff1673ffffffffffffffffffffffffffffffffffffffff168152602001908152602001600020549050600081146109685760008260003373ffffffffffffffffffffffffffffffffffffffff1673ffffffffffffffffffffffffffffffffffffffff168152602001908152602001600020819055508083600201600082825461083f919061247c565b925050819055506000600160009054906101000a900473ffffffffffffffffffffffffffffffffffffffff1673ffffffffffffffffffffffffffffffffffffffff1663a9059cbb33846040518363ffffffff1660e01b81526004016108a5929190612361565b6020604051808303816000875af11580156108c4573d6000803e3d6000fd5b505050506040513d601f19601f820116820180604052508101906108e891906122c8565b90508061092a576040517f08c379a0000000000000000000000000000000000000000000000000000000008152600401610921906124fc565b60405180910390fd5b847faba4210cad11f1112f31ba136a61cdc0f6ab4c2b478da8c93eec1d9769e97a8933844260405161095e9392919061251c565b60405180910390a2505b50505050565b8060006003600083815260200190815260200160002090508060090160019054906101000a900473ffffffffffffffffffffffffffffffffffffffff1673ffffffffffffffffffffffffffffffffffffffff163373ffffffffffffffffffffffffffffffffffffffff1614610a18576040517f08c379a0000000000000000000000000000000000000000000000000000000008152600401610a0f9061259f565b60405180910390fd5b600060036000858152602001908152602001600020905060026003811115610a4357610a42611ae6565b5b8160090160009054906101000a900460ff166003811115610a6757610a66611ae6565b5b14610aa7576040517f08c379a0000000000000000000000000000000000000000000000000000000008152600401610a9e9061260b565b60405180910390fd5b600081600201549050600082600201819055506000600160009054906101000a900473ffffffffffffffffffffffffffffffffffffffff1673ffffffffffffffffffffffffffffffffffffffff1663a9059cbb33846040518363ffffffff1660e01b8152600401610b19929190612361565b6020604051808303816000875af1158015610b38573d6000803e3d6000fd5b505050506040513d601f19601f82011682018060405250810190610b5c91906122c8565b905080610b9e576040517f08c379a0000000000000000000000000000000000000000000000000000000008152600401610b9590612677565b60405180910390fd5b857fb0ecf14e184effded5473bba77dcfab32b094b77ac1fbb36beec2aef55587970338442604051610bd29392919061251c565b60405180910390a2505050505050565b60008282810190610bf3919061275a565b905060005b8151811015610f03576000828281518110610c1657610c156127a3565b5b602002602001015190506000600360008381526020019081526020016000209050600380811115610c4a57610c49611ae6565b5b8160090160009054906101000a900460ff166003811115610c6e57610c6d611ae6565b5b1480610caf575060026003811115610c8957610c88611ae6565b5b8160090160009054906101000a900460ff166003811115610cad57610cac611ae6565b5b145b15610cbb575050610ef6565b806003015442118015610cd15750806004015442105b8015610d12575060006003811115610cec57610ceb611ae6565b5b8160090160009054906101000a900460ff166003811115610d1057610d0f611ae6565b5b145b15610dd75760018160090160006101000a81548160ff02191690836003811115610d3f57610d3e611ae6565b5b0217905550817fbe3dd7dc6384f58902a35b3dbc09ad6f5cc91b4499b64a64574f25c4c13cdef633836000018460010154856003015486600401548760050160009054906101000a900460ff168860050160019054906101000a900460ff16896006018a6007018b60090160009054906101000a900460ff16604051610dce9a9998979695949392919061286b565b60405180910390a25b80600401544210158015610df2575080600101548160020154105b15610e655760038160090160006101000a81548160ff02191690836003811115610e1f57610e1e611ae6565b5b0217905550817f1c37c67694e49ddaa169e8b7f9dafd655ba8cfc26df25bf66ea18d649d5e70963342604051610e56929190612361565b60405180910390a25050610ef6565b806003015442118015610e8057508060010154816002015410155b15610ef35760028160090160006101000a81548160ff02191690836003811115610ead57610eac611ae6565b5b0217905550817fcab935963eaa03f3973204c91b5bc658726a1015d91fc361d82f67c4071723003342604051610ee4929190612361565b60405180910390a25050610ef6565b50505b8080600101915050610bf8565b50505050565b8060006003600083815260200190815260200160002090508060090160019054906101000a900473ffffffffffffffffffffffffffffffffffffffff1673ffffffffffffffffffffffffffffffffffffffff163373ffffffffffffffffffffffffffffffffffffffff1614610fb3576040517f08c379a0000000000000000000000000000000000000000000000000000000008152600401610faa9061259f565b60405180910390fd5b600060036000858152602001908152602001600020905060016003811115610fde57610fdd611ae6565b5b8160090160009054906101000a900460ff16600381111561100257611001611ae6565b5b14611042576040517f08c379a00000000000000000000000000000000000000000000000000000000081526004016110399061298e565b60405180910390fd5b80600101548160020154101561108d576040517f08c379a0000000000000000000000000000000000000000000000000000000008152600401611084906129fa565b60405180910390fd5b60028160090160006101000a81548160ff021916908360038111156110b5576110b4611ae6565b5b0217905550837fcab935963eaa03f3973204c91b5bc658726a1015d91fc361d82f67c40717230033426040516110ec929190612361565b60405180910390a250505050565b60006060600091506000600480549050905060008167ffffffffffffffff81111561112857611127611e7b565b5b6040519080825280602002602001820160405280156111565781602001602082028036833780820191505090505b5090506000805b83811015611319576000600360006004848154811061117f5761117e6127a3565b5b9060005260206000200154815260200190815260200160002090506003808111156111ad576111ac611ae6565b5b8160090160009054906101000a900460ff1660038111156111d1576111d0611ae6565b5b14806112125750600260038111156111ec576111eb611ae6565b5b8160090160009054906101000a900460ff1660038111156112105761120f611ae6565b5b145b1561121d575061130c565b8060030154421180156112335750806004015442105b801561127457506000600381111561124e5761124d611ae6565b5b8160090160009054906101000a900460ff16600381111561127257611271611ae6565b5b145b80611296575080600301544211801561129557508060010154816002015410155b5b806112b85750806004015442101580156112b7575080600101548160020154105b5b1561130a57600482815481106112d1576112d06127a3565b5b90600052602060002001548484815181106112ef576112ee6127a3565b5b602002602001018181525050828061130690612a1a565b9350505b505b808060010191505061115d565b506000811115611353576001945061133182826118e4565b6040516020016113419190612b20565b60405160208183030381529060405293505b5050509250929050565b60055481565b60008054906101000a900473ffffffffffffffffffffffffffffffffffffffff1681565b60008851116113cb576040517f08c379a00000000000000000000000000000000000000000000000000000000081526004016113c290612b8e565b60405180910390fd5b6000871161140e576040517f08c379a000000000000000000000000000000000000000000000000000000000815260040161140590612bfa565b60405180910390fd5b848610611450576040517f08c379a000000000000000000000000000000000000000000000000000000000815260040161144790612c8c565b60405180910390fd5b844210611492576040517f08c379a000000000000000000000000000000000000000000000000000000000815260040161148990612cf8565b60405180910390fd5b600560008154809291906114a590612a1a565b919050555060006003600060055481526020019081526020016000209050888160000190816114d49190612eaf565b50878160010181905550868160030181905550858160040181905550848160050160006101000a81548160ff0219169083600481111561151757611516611ae6565b5b0217905550838160050160016101000a81548160ff0219169083600381111561154357611542611ae6565b5b0217905550828160060190816115599190612eaf565b508181600701908161156b9190612eaf565b5086421161157a57600061157d565b60015b8160090160006101000a81548160ff021916908360038111156115a3576115a2611ae6565b5b0217905550338160090160016101000a81548173ffffffffffffffffffffffffffffffffffffffff021916908373ffffffffffffffffffffffffffffffffffffffff160217905550600460055490806001815401808255809150506001900390600052602060002001600090919091909150556005547fbe3dd7dc6384f58902a35b3dbc09ad6f5cc91b4499b64a64574f25c4c13cdef6338b8b8b8b8b8b8b8b8b60090160009054906101000a900460ff1660405161166b9a99989796959493929190612f81565b60405180910390a2505050505050505050565b8060006003600083815260200190815260200160002090508060090160019054906101000a900473ffffffffffffffffffffffffffffffffffffffff1673ffffffffffffffffffffffffffffffffffffffff163373ffffffffffffffffffffffffffffffffffffffff1614611728576040517f08c379a000000000000000000000000000000000000000000000000000000000815260040161171f9061259f565b60405180910390fd5b600060036000858152602001908152602001600020905060038160090160006101000a81548160ff0219169083600381111561176757611766611ae6565b5b0217905550837f1c37c67694e49ddaa169e8b7f9dafd655ba8cfc26df25bf66ea18d649d5e7096334260405161179e929190612361565b60405180910390a250505050565b600481815481106117bc57600080fd5b906000526020600020016000915090505481565b60606000806000806000806000600360008a81526020019081526020016000209050806000018054611801906123b9565b80601f016020809104026020016040519081016040528092919081815260200182805461182d906123b9565b801561187a5780601f1061184f5761010080835404028352916020019161187a565b820191906000526020600020905b81548152906001019060200180831161185d57829003601f168201915b50505050509750806001015496508060020154955080600301549450806004015493508060090160009054906101000a900460ff1692508060090160019054906101000a900473ffffffffffffffffffffffffffffffffffffffff16915050919395979092949650565b606060008267ffffffffffffffff81111561190257611901611e7b565b5b6040519080825280602002602001820160405280156119305781602001602082028036833780820191505090505b50905060005b8381101561198557848181518110611951576119506127a3565b5b602002602001015182828151811061196c5761196b6127a3565b5b6020026020010181815250508080600101915050611936565b508091505092915050565b6000604051905090565b600080fd5b600080fd5b6000819050919050565b6119b7816119a4565b81146119c257600080fd5b50565b6000813590506119d4816119ae565b92915050565b600080604083850312156119f1576119f061199a565b5b60006119ff858286016119c5565b9250506020611a10858286016119c5565b9150509250929050565b600060208284031215611a3057611a2f61199a565b5b6000611a3e848285016119c5565b91505092915050565b600081519050919050565b600082825260208201905092915050565b60005b83811015611a81578082015181840152602081019050611a66565b60008484015250505050565b6000601f19601f8301169050919050565b6000611aa982611a47565b611ab38185611a52565b9350611ac3818560208601611a63565b611acc81611a8d565b840191505092915050565b611ae0816119a4565b82525050565b7f4e487b7100000000000000000000000000000000000000000000000000000000600052602160045260246000fd5b60058110611b2657611b25611ae6565b5b50565b6000819050611b3782611b15565b919050565b6000611b4782611b29565b9050919050565b611b5781611b3c565b82525050565b60048110611b6e57611b6d611ae6565b5b50565b6000819050611b7f82611b5d565b919050565b6000611b8f82611b71565b9050919050565b611b9f81611b84565b82525050565b60048110611bb657611bb5611ae6565b5b50565b6000819050611bc782611ba5565b919050565b6000611bd782611bb9565b9050919050565b611be781611bcc565b82525050565b600073ffffffffffffffffffffffffffffffffffffffff82169050919050565b6000611c1882611bed565b9050919050565b611c2881611c0d565b82525050565b6000610160820190508181036000830152611c49818e611a9e565b9050611c58602083018d611ad7565b611c65604083018c611ad7565b611c72606083018b611ad7565b611c7f608083018a611ad7565b611c8c60a0830189611b4e565b611c9960c0830188611b96565b81810360e0830152611cab8187611a9e565b9050818103610100830152611cc08186611a9e565b9050611cd0610120830185611bde565b611cde610140830184611c1f565b9c9b505050505050505050505050565b600080fd5b600080fd5b600080fd5b60008083601f840112611d1357611d12611cee565b5b8235905067ffffffffffffffff811115611d3057611d2f611cf3565b5b602083019150836001820283011115611d4c57611d4b611cf8565b5b9250929050565b60008060208385031215611d6a57611d6961199a565b5b600083013567ffffffffffffffff811115611d8857611d8761199f565b5b611d9485828601611cfd565b92509250509250929050565b60008115159050919050565b611db581611da0565b82525050565b600081519050919050565b600082825260208201905092915050565b6000611de282611dbb565b611dec8185611dc6565b9350611dfc818560208601611a63565b611e0581611a8d565b840191505092915050565b6000604082019050611e256000830185611dac565b8181036020830152611e378184611dd7565b90509392505050565b6000602082019050611e556000830184611ad7565b92915050565b6000602082019050611e706000830184611c1f565b92915050565b600080fd5b7f4e487b7100000000000000000000000000000000000000000000000000000000600052604160045260246000fd5b611eb382611a8d565b810181811067ffffffffffffffff82111715611ed257611ed1611e7b565b5b80604052505050565b6000611ee5611990565b9050611ef18282611eaa565b919050565b600067ffffffffffffffff821115611f1157611f10611e7b565b5b611f1a82611a8d565b9050602081019050919050565b82818337600083830152505050565b6000611f49611f4484611ef6565b611edb565b905082815260208101848484011115611f6557611f64611e76565b5b611f70848285611f27565b509392505050565b600082601f830112611f8d57611f8c611cee565b5b8135611f9d848260208601611f36565b91505092915050565b60058110611fb357600080fd5b50565b600081359050611fc581611fa6565b92915050565b60048110611fd857600080fd5b50565b600081359050611fea81611fcb565b92915050565b600080600080600080600080610100898b0312156120115761201061199a565b5b600089013567ffffffffffffffff81111561202f5761202e61199f565b5b61203b8b828c01611f78565b985050602061204c8b828c016119c5565b975050604061205d8b828c016119c5565b965050606061206e8b828c016119c5565b955050608061207f8b828c01611fb6565b94505060a06120908b828c01611fdb565b93505060c089013567ffffffffffffffff8111156120b1576120b061199f565b5b6120bd8b828c01611f78565b92505060e089013567ffffffffffffffff8111156120de576120dd61199f565b5b6120ea8b828c01611f78565b9150509295985092959890939650565b600060e0820190508181036000830152612114818a611a9e565b90506121236020830189611ad7565b6121306040830188611ad7565b61213d6060830187611ad7565b61214a6080830186611ad7565b61215760a0830185611bde565b61216460c0830184611c1f565b98975050505050505050565b7f7468652063616d706169676e206973206e6f74207374617274206f7220656e6460008201527f6564000000000000000000000000000000000000000000000000000000000000602082015250565b60006121cc602283611a52565b91506121d782612170565b604082019050919050565b600060208201905081810360008301526121fb816121bf565b9050919050565b7f4e487b7100000000000000000000000000000000000000000000000000000000600052601160045260246000fd5b600061223c826119a4565b9150612247836119a4565b925082820190508082111561225f5761225e612202565b5b92915050565b600060608201905061227a6000830186611c1f565b6122876020830185611c1f565b6122946040830184611ad7565b949350505050565b6122a581611da0565b81146122b057600080fd5b50565b6000815190506122c28161229c565b92915050565b6000602082840312156122de576122dd61199a565b5b60006122ec848285016122b3565b91505092915050565b7f646f6e617465207472616e73666572206661696c000000000000000000000000600082015250565b600061232b601483611a52565b9150612336826122f5565b602082019050919050565b6000602082019050818103600083015261235a8161231e565b9050919050565b60006040820190506123766000830185611c1f565b6123836020830184611ad7565b9392505050565b7f4e487b7100000000000000000000000000000000000000000000000000000000600052602260045260246000fd5b600060028204905060018216806123d157607f821691505b6020821081036123e4576123e361238a565b5b50919050565b7f63616d7061696e206e6f742063616e63656c6c65642c63616e206e6f7420726560008201527f66756e6400000000000000000000000000000000000000000000000000000000602082015250565b6000612446602483611a52565b9150612451826123ea565b604082019050919050565b6000602082019050818103600083015261247581612439565b9050919050565b6000612487826119a4565b9150612492836119a4565b92508282039050818111156124aa576124a9612202565b5b92915050565b7f726566756e64207472616e73666572206661696c656400000000000000000000600082015250565b60006124e6601683611a52565b91506124f1826124b0565b602082019050919050565b60006020820190508181036000830152612515816124d9565b9050919050565b60006060820190506125316000830186611c1f565b61253e6020830185611ad7565b61254b6040830184611ad7565b949350505050565b7f6e6f742073746172746572000000000000000000000000000000000000000000600082015250565b6000612589600b83611a52565b915061259482612553565b602082019050919050565b600060208201905081810360008301526125b88161257c565b9050919050565b7f7468652063616d706169676e206973206e6f7420436f6d706c65746564000000600082015250565b60006125f5601d83611a52565b9150612600826125bf565b602082019050919050565b60006020820190508181036000830152612624816125e8565b9050919050565b7f7769746864726177207472616e73666572206661696c65640000000000000000600082015250565b6000612661601883611a52565b915061266c8261262b565b602082019050919050565b6000602082019050818103600083015261269081612654565b9050919050565b600067ffffffffffffffff8211156126b2576126b1611e7b565b5b602082029050602081019050919050565b60006126d66126d184612697565b611edb565b905080838252602082019050602084028301858111156126f9576126f8611cf8565b5b835b81811015612722578061270e88826119c5565b8452602084019350506020810190506126fb565b5050509392505050565b600082601f83011261274157612740611cee565b5b81356127518482602086016126c3565b91505092915050565b6000602082840312156127705761276f61199a565b5b600082013567ffffffffffffffff81111561278e5761278d61199f565b5b61279a8482850161272c565b91505092915050565b7f4e487b7100000000000000000000000000000000000000000000000000000000600052603260045260246000fd5b60008190508160005260206000209050919050565b600081546127f4816123b9565b6127fe8186611a52565b94506001821660008114612819576001811461282f57612862565b60ff198316865281151560200286019350612862565b612838856127d2565b60005b8381101561285a5781548189015260018201915060208101905061283b565b808801955050505b50505092915050565b600061014082019050612881600083018d611c1f565b8181036020830152612893818c6127e7565b90506128a2604083018b611ad7565b6128af606083018a611ad7565b6128bc6080830189611ad7565b6128c960a0830188611b4e565b6128d660c0830187611b96565b81810360e08301526128e881866127e7565b90508181036101008301526128fd81856127e7565b905061290d610120830184611bde565b9b9a5050505050505050505050565b7f6e6f74206163746976652063616d706169676e2c63616e206e6f7420636f6d7060008201527f6c65746564000000000000000000000000000000000000000000000000000000602082015250565b6000612978602583611a52565b91506129838261291c565b604082019050919050565b600060208201905081810360008301526129a78161296b565b9050919050565b7f676f616c206973206e6f74207265616368000000000000000000000000000000600082015250565b60006129e4601183611a52565b91506129ef826129ae565b602082019050919050565b60006020820190508181036000830152612a13816129d7565b9050919050565b6000612a25826119a4565b91507fffffffffffffffffffffffffffffffffffffffffffffffffffffffffffffffff8203612a5757612a56612202565b5b600182019050919050565b600081519050919050565b600082825260208201905092915050565b6000819050602082019050919050565b612a97816119a4565b82525050565b6000612aa98383612a8e565b60208301905092915050565b6000602082019050919050565b6000612acd82612a62565b612ad78185612a6d565b9350612ae283612a7e565b8060005b83811015612b13578151612afa8882612a9d565b9750612b0583612ab5565b925050600181019050612ae6565b5085935050505092915050565b60006020820190508181036000830152612b3a8184612ac2565b905092915050565b7f5469746c652063616e6e6f7420626520656d7074790000000000000000000000600082015250565b6000612b78601583611a52565b9150612b8382612b42565b602082019050919050565b60006020820190508181036000830152612ba781612b6b565b9050919050565b7f496e76616c696420676f616c0000000000000000000000000000000000000000600082015250565b6000612be4600c83611a52565b9150612bef82612bae565b602082019050919050565b60006020820190508181036000830152612c1381612bd7565b9050919050565b7f5f737461727454696d65206973206c61746572207468616e205f656e6454696d60008201527f6500000000000000000000000000000000000000000000000000000000000000602082015250565b6000612c76602183611a52565b9150612c8182612c1a565b604082019050919050565b60006020820190508181036000830152612ca581612c69565b9050919050565b7f496e76616c696420656e6454696d650000000000000000000000000000000000600082015250565b6000612ce2600f83611a52565b9150612ced82612cac565b602082019050919050565b60006020820190508181036000830152612d1181612cd5565b9050919050565b60006020601f8301049050919050565b600082821b905092915050565b600060088302612d657fffffffffffffffffffffffffffffffffffffffffffffffffffffffffffffffff82612d28565b612d6f8683612d28565b95508019841693508086168417925050509392505050565b6000819050919050565b6000612dac612da7612da2846119a4565b612d87565b6119a4565b9050919050565b6000819050919050565b612dc683612d91565b612dda612dd282612db3565b848454612d35565b825550505050565b600090565b612def612de2565b612dfa818484612dbd565b505050565b5b81811015612e1e57612e13600082612de7565b600181019050612e00565b5050565b601f821115612e6357612e34816127d2565b612e3d84612d18565b81016020851015612e4c578190505b612e60612e5885612d18565b830182612dff565b50505b505050565b600082821c905092915050565b6000612e8660001984600802612e68565b1980831691505092915050565b6000612e9f8383612e75565b9150826002028217905092915050565b612eb882611a47565b67ffffffffffffffff811115612ed157612ed0611e7b565b5b612edb82546123b9565b612ee6828285612e22565b600060209050601f831160018114612f195760008415612f07578287015190505b612f118582612e93565b865550612f79565b601f198416612f27866127d2565b60005b82811015612f4f57848901518255600182019150602085019450602081019050612f2a565b86831015612f6c5784890151612f68601f891682612e75565b8355505b6001600288020188555050505b505050505050565b600061014082019050612f97600083018d611c1f565b8181036020830152612fa9818c611a9e565b9050612fb8604083018b611ad7565b612fc5606083018a611ad7565b612fd26080830189611ad7565b612fdf60a0830188611b4e565b612fec60c0830187611b96565b81810360e0830152612ffe8186611a9e565b90508181036101008301526130138185611a9e565b9050613023610120830184611bde565b9b9a505050505050505050505056fea2646970667358221220a7659967355ee38c8828bc0300cbee93f2aaaadafc112ea9429367e69e142e2f64736f6c634300081c0033",
  "linkReferences": {},
  "deployedLinkReferences": {}
}