{
  "_format": "hh-sol-artifact-1",
  "contractName": "DonationsManageContract",
  "sourceName": "contracts/DonationsManageContract.sol",
  "abi": [
    {
      "inputs": [
        {
          "internalType": "address",
          "name": "_token",
          "type": "address"
        },
        {
          "internalType": "address",
          "name": "_nft",
          "type": "address"
        }
      ],
      "stateMutability": "nonpayable",
      "type": "constructor"
    },
    {
      "anonymous": false,
      "inputs": [
        {
          "indexed": true,
          "internalType": "uint256",
          "name": "id",
          "type": "uint256"
        },
        {
          "indexed": false,
          "internalType": "address",
          "name": "caller",
          "type": "address"
        },
        {
          "indexed": false,
          "internalType": "uint256",
          "name": "time",
          "type": "uint256"
        }
      ],
      "name": "CancellCampaign",
      "type": "event"
    },
    {
      "anonymous": false,
      "inputs": [
        {
          "indexed": true,
          "internalType": "uint256",
          "name": "id",
          "type": "uint256"
        },
        {
          "indexed": false,
          "internalType": "address",
          "name": "caller",
          "type": "address"
        },
        {
          "indexed": false,
          "internalType": "uint256",
          "name": "time",
          "type": "uint256"
        }
      ],
      "name": "CompletedCampaign",
      "type": "event"
    },
    {
      "anonymous": false,
      "inputs": [
        {
          "indexed": true,
          "internalType": "uint256",
          "name": "id",
          "type": "uint256"
        },
        {
          "indexed": false,
          "internalType": "address",
          "name": "donater",
          "type": "address"
        },
        {
          "indexed": false,
          "internalType": "uint256",
          "name": "amount",
          "type": "uint256"
        }
      ],
      "name": "Donate",
      "type": "event"
    },
    {
      "anonymous": false,
      "inputs": [
        {
          "indexed": true,
          "internalType": "uint256",
          "name": "id",
          "type": "uint256"
        },
        {
          "indexed": false,
          "internalType": "address",
          "name": "refunder",
          "type": "address"
        },
        {
          "indexed": false,
          "internalType": "uint256",
          "name": "refundAmount",
          "type": "uint256"
        },
        {
          "indexed": false,
          "internalType": "uint256",
          "name": "time",
          "type": "uint256"
        }
      ],
      "name": "Refund",
      "type": "event"
    },
    {
      "anonymous": false,
      "inputs": [
        {
          "indexed": true,
          "internalType": "uint256",
          "name": "id",
          "type": "uint256"
        },
        {
          "indexed": false,
          "internalType": "address",
          "name": "starter",
          "type": "address"
        },
        {
          "indexed": false,
          "internalType": "string",
          "name": "title",
          "type": "string"
        },
        {
          "indexed": false,
          "internalType": "uint256",
          "name": "goal",
          "type": "uint256"
        },
        {
          "indexed": false,
          "internalType": "uint256",
          "name": "startTime",
          "type": "uint256"
        },
        {
          "indexed": false,
          "internalType": "uint256",
          "name": "endTime",
          "type": "uint256"
        },
        {
          "indexed": false,
          "internalType": "enum DonationsManageContract.CampaignStatus",
          "name": "status",
          "type": "uint8"
        }
      ],
      "name": "StartCampaign",
      "type": "event"
    },
    {
      "anonymous": false,
      "inputs": [
        {
          "indexed": true,
          "internalType": "uint256",
          "name": "id",
          "type": "uint256"
        },
        {
          "indexed": false,
          "internalType": "address",
          "name": "withdrawer",
          "type": "address"
        },
        {
          "indexed": false,
          "internalType": "uint256",
          "name": "withdrawAmount",
          "type": "uint256"
        },
        {
          "indexed": false,
          "internalType": "uint256",
          "name": "time",
          "type": "uint256"
        }
      ],
      "name": "Withdraw",
      "type": "event"
    },
    {
      "inputs": [],
      "name": "campaignCount",
      "outputs": [
        {
          "internalType": "uint256",
          "name": "",
          "type": "uint256"
        }
      ],
      "stateMutability": "view",
      "type": "function"
    },
    {
      "inputs": [
        {
          "internalType": "uint256",
          "name": "",
          "type": "uint256"
        }
      ],
      "name": "campaigns",
      "outputs": [
        {
          "internalType": "string",
          "name": "title",
          "type": "string"
        },
        {
          "internalType": "uint256",
          "name": "goal",
          "type": "uint256"
        },
        {
          "internalType": "uint256",
          "name": "totalDonated",
          "type": "uint256"
        },
        {
          "internalType": "uint256",
          "name": "startTime",
          "type": "uint256"
        },
        {
          "internalType": "uint256",
          "name": "endTime",
          "type": "uint256"
        },
        {
          "internalType": "enum DonationsManageContract.CampaignStatus",
          "name": "status",
          "type": "uint8"
        },
        {
          "internalType": "address",
          "name": "starter",
          "type": "address"
        }
      ],
      "stateMutability": "view",
      "type": "function"
    },
    {
      "inputs": [
        {
          "internalType": "uint256",
          "name": "",
          "type": "uint256"
        }
      ],
      "name": "campaignsToCheck",
      "outputs": [
        {
          "internalType": "uint256",
          "name": "",
          "type": "uint256"
        }
      ],
      "stateMutability": "view",
      "type": "function"
    },
    {
      "inputs": [
        {
          "internalType": "uint256",
          "name": "_campaignId",
          "type": "uint256"
        }
      ],
      "name": "cancellCampaign",
      "outputs": [],
      "stateMutability": "nonpayable",
      "type": "function"
    },
    {
      "inputs": [
        {
          "internalType": "bytes",
          "name": "",
          "type": "bytes"
        }
      ],
      "name": "checkUpkeep",
      "outputs": [
        {
          "internalType": "bool",
          "name": "upkeepNeeded",
          "type": "bool"
        },
        {
          "internalType": "bytes",
          "name": "performData",
          "type": "bytes"
        }
      ],
      "stateMutability": "view",
      "type": "function"
    },
    {
      "inputs": [
        {
          "internalType": "uint256",
          "name": "_campaignId",
          "type": "uint256"
        }
      ],
      "name": "completedCampaign",
      "outputs": [],
      "stateMutability": "nonpayable",
      "type": "function"
    },
    {
      "inputs": [
        {
          "internalType": "string",
          "name": "_title",
          "type": "string"
        },
        {
          "internalType": "uint256",
          "name": "_goal",
          "type": "uint256"
        },
        {
          "internalType": "uint256",
          "name": "_startTime",
          "type": "uint256"
        },
        {
          "internalType": "uint256",
          "name": "_endTime",
          "type": "uint256"
        }
      ],
      "name": "createCampaign",
      "outputs": [],
      "stateMutability": "nonpayable",
      "type": "function"
    },
    {
      "inputs": [
        {
          "internalType": "uint256",
          "name": "_campaignId",
          "type": "uint256"
        },
        {
          "internalType": "uint256",
          "name": "_amount",
          "type": "uint256"
        }
      ],
      "name": "donate",
      "outputs": [],
      "stateMutability": "nonpayable",
      "type": "function"
    },
    {
      "inputs": [
        {
          "internalType": "uint256",
          "name": "_campaignId",
          "type": "uint256"
        }
      ],
      "name": "getCampaignDetails",
      "outputs": [
        {
          "internalType": "string",
          "name": "title",
          "type": "string"
        },
        {
          "internalType": "uint256",
          "name": "goal",
          "type": "uint256"
        },
        {
          "internalType": "uint256",
          "name": "totalDonated",
          "type": "uint256"
        },
        {
          "internalType": "uint256",
          "name": "startTime",
          "type": "uint256"
        },
        {
          "internalType": "uint256",
          "name": "endTime",
          "type": "uint256"
        },
        {
          "internalType": "enum DonationsManageContract.CampaignStatus",
          "name": "status",
          "type": "uint8"
        },
        {
          "internalType": "address",
          "name": "starter",
          "type": "address"
        }
      ],
      "stateMutability": "view",
      "type": "function"
    },
    {
      "inputs": [],
      "name": "owner",
      "outputs": [
        {
          "internalType": "address",
          "name": "",
          "type": "address"
        }
      ],
      "stateMutability": "view",
      "type": "function"
    },
    {
      "inputs": [
        {
          "internalType": "bytes",
          "name": "performData",
          "type": "bytes"
        }
      ],
      "name": "performUpkeep",
      "outputs": [],
      "stateMutability": "nonpayable",
      "type": "function"
    },
    {
      "inputs": [
        {
          "internalType": "uint256",
          "name": "_campaignId",
          "type": "uint256"
        }
      ],
      "name": "refundToken",
      "outputs": [],
      "stateMutability": "nonpayable",
      "type": "function"
    },
    {
      "inputs": [
        {
          "internalType": "uint256",
          "name": "_campaignId",
          "type": "uint256"
        }
      ],
      "name": "withdraw",
      "outputs": [],
      "stateMutability": "nonpayable",
      "type": "function"
    }
  ],
  "bytecode": "0x608060405234801561001057600080fd5b50604051612e0c380380612e0c8339818101604052810190610032919061011e565b81600160006101000a81548173ffffffffffffffffffffffffffffffffffffffff021916908373ffffffffffffffffffffffffffffffffffffffff16021790555080600260006101000a81548173ffffffffffffffffffffffffffffffffffffffff021916908373ffffffffffffffffffffffffffffffffffffffff160217905550505061015e565b600080fd5b600073ffffffffffffffffffffffffffffffffffffffff82169050919050565b60006100eb826100c0565b9050919050565b6100fb816100e0565b811461010657600080fd5b50565b600081519050610118816100f2565b92915050565b60008060408385031215610135576101346100bb565b5b600061014385828601610109565b925050602061015485828601610109565b9150509250929050565b612c9f8061016d6000396000f3fe608060405234801561001057600080fd5b50600436106100cf5760003560e01c80636e04ff0d1161008c578063b4e5be2911610066578063b4e5be2914610203578063b5a898ae1461021f578063be6c81a51461023b578063d993de621461026b576100cf565b80636e04ff0d146101965780637274e30d146101c75780638da5cb5b146101e5576100cf565b80630cdd53f6146100d4578063141961bc146100f057806317191704146101265780632e1a7d4d146101425780634585e33b1461015e5780635177af141461017a575b600080fd5b6100ee60048036038101906100e99190611882565b6102a1565b005b61010a600480360381019061010591906118c2565b61056f565b60405161011d9796959493929190611a46565b60405180910390f35b610140600480360381019061013b91906118c2565b610666565b005b61015c600480360381019061015791906118c2565b6108ce565b005b61017860048036038101906101739190611b21565b610b42565b005b610194600480360381019061018f91906118c2565b610e39565b005b6101b060048036038101906101ab9190611b21565b61102a565b6040516101be929190611bde565b60405180910390f35b6101cf61128d565b6040516101dc9190611c0e565b60405180910390f35b6101ed611293565b6040516101fa9190611c29565b60405180910390f35b61021d600480360381019061021891906118c2565b6112b7565b005b61023960048036038101906102349190611d74565b6113e5565b005b610255600480360381019061025091906118c2565b611654565b6040516102629190611c0e565b60405180910390f35b610285600480360381019061028091906118c2565b611678565b6040516102989796959493929190611a46565b60405180910390f35b6000600360008481526020019081526020016000209050600160038111156102cc576102cb61198e565b5b8160060160009054906101000a900460ff1660038111156102f0576102ef61198e565b5b14610330576040517f08c379a000000000000000000000000000000000000000000000000000000000815260040161032790611e69565b60405180910390fd5b818160050160003373ffffffffffffffffffffffffffffffffffffffff1673ffffffffffffffffffffffffffffffffffffffff16815260200190815260200160002060008282546103819190611eb8565b925050819055508181600201600082825461039c9190611eb8565b925050819055506000600160009054906101000a900473ffffffffffffffffffffffffffffffffffffffff1673ffffffffffffffffffffffffffffffffffffffff166323b872dd3330866040518463ffffffff1660e01b815260040161040493929190611eec565b6020604051808303816000875af1158015610423573d6000803e3d6000fd5b505050506040513d601f19601f820116820180604052508101906104479190611f4f565b905080610489576040517f08c379a000000000000000000000000000000000000000000000000000000000815260040161048090611fc8565b60405180910390fd5b816001015460058461049b9190611fe8565b111561052f57600260009054906101000a900473ffffffffffffffffffffffffffffffffffffffff1673ffffffffffffffffffffffffffffffffffffffff166340d097c3336040518263ffffffff1660e01b81526004016104fc9190611c29565b600060405180830381600087803b15801561051657600080fd5b505af115801561052a573d6000803e3d6000fd5b505050505b837f48def02da8c59b50861e25bab759a8a0c0de6fab6448ef85f32ce59397947d80338560405161056192919061202a565b60405180910390a250505050565b600360205280600052604060002060009150905080600001805461059290612082565b80601f01602080910402602001604051908101604052809291908181526020018280546105be90612082565b801561060b5780601f106105e05761010080835404028352916020019161060b565b820191906000526020600020905b8154815290600101906020018083116105ee57829003601f168201915b5050505050908060010154908060020154908060030154908060040154908060060160009054906101000a900460ff16908060060160019054906101000a900473ffffffffffffffffffffffffffffffffffffffff16905087565b60006003600083815260200190815260200160002090506003808111156106905761068f61198e565b5b8160060160009054906101000a900460ff1660038111156106b4576106b361198e565b5b146106f4576040517f08c379a00000000000000000000000000000000000000000000000000000000081526004016106eb90612125565b60405180910390fd5b600081600501905060008160003373ffffffffffffffffffffffffffffffffffffffff1673ffffffffffffffffffffffffffffffffffffffff168152602001908152602001600020549050600081146108c85760008260003373ffffffffffffffffffffffffffffffffffffffff1673ffffffffffffffffffffffffffffffffffffffff168152602001908152602001600020819055508083600201600082825461079f9190612145565b925050819055506000600160009054906101000a900473ffffffffffffffffffffffffffffffffffffffff1673ffffffffffffffffffffffffffffffffffffffff1663a9059cbb33846040518363ffffffff1660e01b815260040161080592919061202a565b6020604051808303816000875af1158015610824573d6000803e3d6000fd5b505050506040513d601f19601f820116820180604052508101906108489190611f4f565b90508061088a576040517f08c379a0000000000000000000000000000000000000000000000000000000008152600401610881906121c5565b60405180910390fd5b847faba4210cad11f1112f31ba136a61cdc0f6ab4c2b478da8c93eec1d9769e97a893384426040516108be939291906121e5565b60405180910390a2505b50505050565b8060006003600083815260200190815260200160002090508060060160019054906101000a900473ffffffffffffffffffffffffffffffffffffffff1673ffffffffffffffffffffffffffffffffffffffff163373ffffffffffffffffffffffffffffffffffffffff1614610978576040517f08c379a000000000000000000000000000000000000000000000000000000000815260040161096f90612268565b60405180910390fd5b6000600360008581526020019081526020016000209050600260038111156109a3576109a261198e565b5b8160060160009054906101000a900460ff1660038111156109c7576109c661198e565b5b14610a07576040517f08c379a00000000000000000000000000000000000000000000000000000000081526004016109fe906122d4565b60405180910390fd5b600081600201549050600082600201819055506000600160009054906101000a900473ffffffffffffffffffffffffffffffffffffffff1673ffffffffffffffffffffffffffffffffffffffff1663a9059cbb33846040518363ffffffff1660e01b8152600401610a7992919061202a565b6020604051808303816000875af1158015610a98573d6000803e3d6000fd5b505050506040513d601f19601f82011682018060405250810190610abc9190611f4f565b905080610afe576040517f08c379a0000000000000000000000000000000000000000000000000000000008152600401610af590612340565b60405180910390fd5b857fb0ecf14e184effded5473bba77dcfab32b094b77ac1fbb36beec2aef55587970338442604051610b32939291906121e5565b60405180910390a2505050505050565b60008282810190610b539190612423565b905060005b8151811015610e33576000828281518110610b7657610b7561246c565b5b602002602001015190506000600360008381526020019081526020016000209050600380811115610baa57610ba961198e565b5b8160060160009054906101000a900460ff166003811115610bce57610bcd61198e565b5b1480610c0f575060026003811115610be957610be861198e565b5b8160060160009054906101000a900460ff166003811115610c0d57610c0c61198e565b5b145b15610c1b575050610e26565b806003015442118015610c315750806004015442105b8015610c72575060006003811115610c4c57610c4b61198e565b5b8160060160009054906101000a900460ff166003811115610c7057610c6f61198e565b5b145b15610d075760018160060160006101000a81548160ff02191690836003811115610c9f57610c9e61198e565b5b0217905550817f5dd4303e85365effc8c9d4844c548769a1cbc12b0044bb72c0970894f016026f33836000018460010154856003015486600401548760060160009054906101000a900460ff16604051610cfe96959493929190612534565b60405180910390a25b80600401544210158015610d22575080600101548160020154105b15610d955760038160060160006101000a81548160ff02191690836003811115610d4f57610d4e61198e565b5b0217905550817f1c37c67694e49ddaa169e8b7f9dafd655ba8cfc26df25bf66ea18d649d5e70963342604051610d8692919061202a565b60405180910390a25050610e26565b806003015442118015610db057508060010154816002015410155b15610e235760028160060160006101000a81548160ff02191690836003811115610ddd57610ddc61198e565b5b0217905550817fcab935963eaa03f3973204c91b5bc658726a1015d91fc361d82f67c4071723003342604051610e1492919061202a565b60405180910390a25050610e26565b50505b8080600101915050610b58565b50505050565b8060006003600083815260200190815260200160002090508060060160019054906101000a900473ffffffffffffffffffffffffffffffffffffffff1673ffffffffffffffffffffffffffffffffffffffff163373ffffffffffffffffffffffffffffffffffffffff1614610ee3576040517f08c379a0000000000000000000000000000000000000000000000000000000008152600401610eda90612268565b60405180910390fd5b600060036000858152602001908152602001600020905060016003811115610f0e57610f0d61198e565b5b8160060160009054906101000a900460ff166003811115610f3257610f3161198e565b5b14610f72576040517f08c379a0000000000000000000000000000000000000000000000000000000008152600401610f699061260e565b60405180910390fd5b806001015481600201541015610fbd576040517f08c379a0000000000000000000000000000000000000000000000000000000008152600401610fb49061267a565b60405180910390fd5b60028160060160006101000a81548160ff02191690836003811115610fe557610fe461198e565b5b0217905550837fcab935963eaa03f3973204c91b5bc658726a1015d91fc361d82f67c407172300334260405161101c92919061202a565b60405180910390a250505050565b60006060600091506000600480549050905060008167ffffffffffffffff81111561105857611057611c49565b5b6040519080825280602002602001820160405280156110865781602001602082028036833780820191505090505b5090506000805b8381101561124957600060036000600484815481106110af576110ae61246c565b5b9060005260206000200154815260200190815260200160002090506003808111156110dd576110dc61198e565b5b8160060160009054906101000a900460ff1660038111156111015761110061198e565b5b148061114257506002600381111561111c5761111b61198e565b5b8160060160009054906101000a900460ff1660038111156111405761113f61198e565b5b145b1561114d575061123c565b8060030154421180156111635750806004015442105b80156111a457506000600381111561117e5761117d61198e565b5b8160060160009054906101000a900460ff1660038111156111a2576111a161198e565b5b145b806111c657508060030154421180156111c557508060010154816002015410155b5b806111e85750806004015442101580156111e7575080600101548160020154105b5b1561123a57600482815481106112015761120061246c565b5b906000526020600020015484848151811061121f5761121e61246c565b5b60200260200101818152505082806112369061269a565b9350505b505b808060010191505061108d565b5060008111156112835760019450611261828261178c565b60405160200161127191906127a0565b60405160208183030381529060405293505b5050509250929050565b60055481565b60008054906101000a900473ffffffffffffffffffffffffffffffffffffffff1681565b8060006003600083815260200190815260200160002090508060060160019054906101000a900473ffffffffffffffffffffffffffffffffffffffff1673ffffffffffffffffffffffffffffffffffffffff163373ffffffffffffffffffffffffffffffffffffffff1614611361576040517f08c379a000000000000000000000000000000000000000000000000000000000815260040161135890612268565b60405180910390fd5b600060036000858152602001908152602001600020905060038160060160006101000a81548160ff021916908360038111156113a05761139f61198e565b5b0217905550837f1c37c67694e49ddaa169e8b7f9dafd655ba8cfc26df25bf66ea18d649d5e709633426040516113d792919061202a565b60405180910390a250505050565b6000845111611429576040517f08c379a00000000000000000000000000000000000000000000000000000000081526004016114209061280e565b60405180910390fd5b6000831161146c576040517f08c379a00000000000000000000000000000000000000000000000000000000081526004016114639061287a565b60405180910390fd5b8082106114ae576040517f08c379a00000000000000000000000000000000000000000000000000000000081526004016114a59061290c565b60405180910390fd5b8042106114f0576040517f08c379a00000000000000000000000000000000000000000000000000000000081526004016114e790612978565b60405180910390fd5b600560008154809291906115039061269a565b919050555060006003600060055481526020019081526020016000209050848160000190816115329190612b2f565b5083816001018190555082816003018190555081816004018190555082421161155c57600061155f565b60015b8160060160006101000a81548160ff021916908360038111156115855761158461198e565b5b0217905550338160060160016101000a81548173ffffffffffffffffffffffffffffffffffffffff021916908373ffffffffffffffffffffffffffffffffffffffff160217905550600460055490806001815401808255809150506001900390600052602060002001600090919091909150556005547f5dd4303e85365effc8c9d4844c548769a1cbc12b0044bb72c0970894f016026f33878787878760060160009054906101000a900460ff1660405161164596959493929190612c01565b60405180910390a25050505050565b6004818154811061166457600080fd5b906000526020600020016000915090505481565b60606000806000806000806000600360008a815260200190815260200160002090508060000180546116a990612082565b80601f01602080910402602001604051908101604052809291908181526020018280546116d590612082565b80156117225780601f106116f757610100808354040283529160200191611722565b820191906000526020600020905b81548152906001019060200180831161170557829003601f168201915b50505050509750806001015496508060020154955080600301549450806004015493508060060160009054906101000a900460ff1692508060060160019054906101000a900473ffffffffffffffffffffffffffffffffffffffff16915050919395979092949650565b606060008267ffffffffffffffff8111156117aa576117a9611c49565b5b6040519080825280602002602001820160405280156117d85781602001602082028036833780820191505090505b50905060005b8381101561182d578481815181106117f9576117f861246c565b5b60200260200101518282815181106118145761181361246c565b5b60200260200101818152505080806001019150506117de565b508091505092915050565b6000604051905090565b600080fd5b600080fd5b6000819050919050565b61185f8161184c565b811461186a57600080fd5b50565b60008135905061187c81611856565b92915050565b6000806040838503121561189957611898611842565b5b60006118a78582860161186d565b92505060206118b88582860161186d565b9150509250929050565b6000602082840312156118d8576118d7611842565b5b60006118e68482850161186d565b91505092915050565b600081519050919050565b600082825260208201905092915050565b60005b8381101561192957808201518184015260208101905061190e565b60008484015250505050565b6000601f19601f8301169050919050565b6000611951826118ef565b61195b81856118fa565b935061196b81856020860161190b565b61197481611935565b840191505092915050565b6119888161184c565b82525050565b7f4e487b7100000000000000000000000000000000000000000000000000000000600052602160045260246000fd5b600481106119ce576119cd61198e565b5b50565b60008190506119df826119bd565b919050565b60006119ef826119d1565b9050919050565b6119ff816119e4565b82525050565b600073ffffffffffffffffffffffffffffffffffffffff82169050919050565b6000611a3082611a05565b9050919050565b611a4081611a25565b82525050565b600060e0820190508181036000830152611a60818a611946565b9050611a6f602083018961197f565b611a7c604083018861197f565b611a89606083018761197f565b611a96608083018661197f565b611aa360a08301856119f6565b611ab060c0830184611a37565b98975050505050505050565b600080fd5b600080fd5b600080fd5b60008083601f840112611ae157611ae0611abc565b5b8235905067ffffffffffffffff811115611afe57611afd611ac1565b5b602083019150836001820283011115611b1a57611b19611ac6565b5b9250929050565b60008060208385031215611b3857611b37611842565b5b600083013567ffffffffffffffff811115611b5657611b55611847565b5b611b6285828601611acb565b92509250509250929050565b60008115159050919050565b611b8381611b6e565b82525050565b600081519050919050565b600082825260208201905092915050565b6000611bb082611b89565b611bba8185611b94565b9350611bca81856020860161190b565b611bd381611935565b840191505092915050565b6000604082019050611bf36000830185611b7a565b8181036020830152611c058184611ba5565b90509392505050565b6000602082019050611c23600083018461197f565b92915050565b6000602082019050611c3e6000830184611a37565b92915050565b600080fd5b7f4e487b7100000000000000000000000000000000000000000000000000000000600052604160045260246000fd5b611c8182611935565b810181811067ffffffffffffffff82111715611ca057611c9f611c49565b5b80604052505050565b6000611cb3611838565b9050611cbf8282611c78565b919050565b600067ffffffffffffffff821115611cdf57611cde611c49565b5b611ce882611935565b9050602081019050919050565b82818337600083830152505050565b6000611d17611d1284611cc4565b611ca9565b905082815260208101848484011115611d3357611d32611c44565b5b611d3e848285611cf5565b509392505050565b600082601f830112611d5b57611d5a611abc565b5b8135611d6b848260208601611d04565b91505092915050565b60008060008060808587031215611d8e57611d8d611842565b5b600085013567ffffffffffffffff811115611dac57611dab611847565b5b611db887828801611d46565b9450506020611dc98782880161186d565b9350506040611dda8782880161186d565b9250506060611deb8782880161186d565b91505092959194509250565b7f7468652063616d706169676e206973206e6f74207374617274206f7220656e6460008201527f6564000000000000000000000000000000000000000000000000000000000000602082015250565b6000611e536022836118fa565b9150611e5e82611df7565b604082019050919050565b60006020820190508181036000830152611e8281611e46565b9050919050565b7f4e487b7100000000000000000000000000000000000000000000000000000000600052601160045260246000fd5b6000611ec38261184c565b9150611ece8361184c565b9250828201905080821115611ee657611ee5611e89565b5b92915050565b6000606082019050611f016000830186611a37565b611f0e6020830185611a37565b611f1b604083018461197f565b949350505050565b611f2c81611b6e565b8114611f3757600080fd5b50565b600081519050611f4981611f23565b92915050565b600060208284031215611f6557611f64611842565b5b6000611f7384828501611f3a565b91505092915050565b7f646f6e617465207472616e73666572206661696c000000000000000000000000600082015250565b6000611fb26014836118fa565b9150611fbd82611f7c565b602082019050919050565b60006020820190508181036000830152611fe181611fa5565b9050919050565b6000611ff38261184c565b9150611ffe8361184c565b925082820261200c8161184c565b9150828204841483151761202357612022611e89565b5b5092915050565b600060408201905061203f6000830185611a37565b61204c602083018461197f565b9392505050565b7f4e487b7100000000000000000000000000000000000000000000000000000000600052602260045260246000fd5b6000600282049050600182168061209a57607f821691505b6020821081036120ad576120ac612053565b5b50919050565b7f63616d7061696e206e6f742063616e63656c6c65642c63616e206e6f7420726560008201527f66756e6400000000000000000000000000000000000000000000000000000000602082015250565b600061210f6024836118fa565b915061211a826120b3565b604082019050919050565b6000602082019050818103600083015261213e81612102565b9050919050565b60006121508261184c565b915061215b8361184c565b925082820390508181111561217357612172611e89565b5b92915050565b7f726566756e64207472616e73666572206661696c656400000000000000000000600082015250565b60006121af6016836118fa565b91506121ba82612179565b602082019050919050565b600060208201905081810360008301526121de816121a2565b9050919050565b60006060820190506121fa6000830186611a37565b612207602083018561197f565b612214604083018461197f565b949350505050565b7f6e6f742073746172746572000000000000000000000000000000000000000000600082015250565b6000612252600b836118fa565b915061225d8261221c565b602082019050919050565b6000602082019050818103600083015261228181612245565b9050919050565b7f7468652063616d706169676e206973206e6f7420436f6d706c65746564000000600082015250565b60006122be601d836118fa565b91506122c982612288565b602082019050919050565b600060208201905081810360008301526122ed816122b1565b9050919050565b7f7769746864726177207472616e73666572206661696c65640000000000000000600082015250565b600061232a6018836118fa565b9150612335826122f4565b602082019050919050565b600060208201905081810360008301526123598161231d565b9050919050565b600067ffffffffffffffff82111561237b5761237a611c49565b5b602082029050602081019050919050565b600061239f61239a84612360565b611ca9565b905080838252602082019050602084028301858111156123c2576123c1611ac6565b5b835b818110156123eb57806123d7888261186d565b8452602084019350506020810190506123c4565b5050509392505050565b600082601f83011261240a57612409611abc565b5b813561241a84826020860161238c565b91505092915050565b60006020828403121561243957612438611842565b5b600082013567ffffffffffffffff81111561245757612456611847565b5b612463848285016123f5565b91505092915050565b7f4e487b7100000000000000000000000000000000000000000000000000000000600052603260045260246000fd5b60008190508160005260206000209050919050565b600081546124bd81612082565b6124c781866118fa565b945060018216600081146124e257600181146124f85761252b565b60ff19831686528115156020028601935061252b565b6125018561249b565b60005b8381101561252357815481890152600182019150602081019050612504565b808801955050505b50505092915050565b600060c0820190506125496000830189611a37565b818103602083015261255b81886124b0565b905061256a604083018761197f565b612577606083018661197f565b612584608083018561197f565b61259160a08301846119f6565b979650505050505050565b7f6e6f74206163746976652063616d706169676e2c63616e206e6f7420636f6d7060008201527f6c65746564000000000000000000000000000000000000000000000000000000602082015250565b60006125f86025836118fa565b91506126038261259c565b604082019050919050565b60006020820190508181036000830152612627816125eb565b9050919050565b7f676f616c206973206e6f74207265616368000000000000000000000000000000600082015250565b60006126646011836118fa565b915061266f8261262e565b602082019050919050565b6000602082019050818103600083015261269381612657565b9050919050565b60006126a58261184c565b91507fffffffffffffffffffffffffffffffffffffffffffffffffffffffffffffffff82036126d7576126d6611e89565b5b600182019050919050565b600081519050919050565b600082825260208201905092915050565b6000819050602082019050919050565b6127178161184c565b82525050565b6000612729838361270e565b60208301905092915050565b6000602082019050919050565b600061274d826126e2565b61275781856126ed565b9350612762836126fe565b8060005b8381101561279357815161277a888261271d565b975061278583612735565b925050600181019050612766565b5085935050505092915050565b600060208201905081810360008301526127ba8184612742565b905092915050565b7f5469746c652063616e6e6f7420626520656d7074790000000000000000000000600082015250565b60006127f86015836118fa565b9150612803826127c2565b602082019050919050565b60006020820190508181036000830152612827816127eb565b9050919050565b7f496e76616c696420676f616c0000000000000000000000000000000000000000600082015250565b6000612864600c836118fa565b915061286f8261282e565b602082019050919050565b6000602082019050818103600083015261289381612857565b9050919050565b7f5f737461727454696d65206973206c61746572207468616e205f656e6454696d60008201527f6500000000000000000000000000000000000000000000000000000000000000602082015250565b60006128f66021836118fa565b91506129018261289a565b604082019050919050565b60006020820190508181036000830152612925816128e9565b9050919050565b7f496e76616c696420656e6454696d650000000000000000000000000000000000600082015250565b6000612962600f836118fa565b915061296d8261292c565b602082019050919050565b6000602082019050818103600083015261299181612955565b9050919050565b60006020601f8301049050919050565b600082821b905092915050565b6000600883026129e57fffffffffffffffffffffffffffffffffffffffffffffffffffffffffffffffff826129a8565b6129ef86836129a8565b95508019841693508086168417925050509392505050565b6000819050919050565b6000612a2c612a27612a228461184c565b612a07565b61184c565b9050919050565b6000819050919050565b612a4683612a11565b612a5a612a5282612a33565b8484546129b5565b825550505050565b600090565b612a6f612a62565b612a7a818484612a3d565b505050565b5b81811015612a9e57612a93600082612a67565b600181019050612a80565b5050565b601f821115612ae357612ab48161249b565b612abd84612998565b81016020851015612acc578190505b612ae0612ad885612998565b830182612a7f565b50505b505050565b600082821c905092915050565b6000612b0660001984600802612ae8565b1980831691505092915050565b6000612b1f8383612af5565b9150826002028217905092915050565b612b38826118ef565b67ffffffffffffffff811115612b5157612b50611c49565b5b612b5b8254612082565b612b66828285612aa2565b600060209050601f831160018114612b995760008415612b87578287015190505b612b918582612b13565b865550612bf9565b601f198416612ba78661249b565b60005b82811015612bcf57848901518255600182019150602085019450602081019050612baa565b86831015612bec5784890151612be8601f891682612af5565b8355505b6001600288020188555050505b505050505050565b600060c082019050612c166000830189611a37565b8181036020830152612c288188611946565b9050612c37604083018761197f565b612c44606083018661197f565b612c51608083018561197f565b612c5e60a08301846119f6565b97965050505050505056fea2646970667358221220dc8b090ba09577d8ff6c394521b35e676a6e7d893e5017b8edd771b3a139abc164736f6c634300081c0033",
  "linkReferences": {},
  "deployedLinkReferences": {}
}