{
  "_format": "hh-sol-artifact-1",
  "contractName": "DonationsManageContract",
  "sourceName": "contracts/DonationsManageContract.sol",
  "abi": [
    {
      "inputs": [
        {
          "internalType": "address",
          "name": "target",
          "type": "address"
        }
      ],
      "name": "AddressEmptyCode",
      "type": "error"
    },
    {
      "inputs": [
        {
          "internalType": "address",
          "name": "implementation",
          "type": "address"
        }
      ],
      "name": "ERC1967InvalidImplementation",
      "type": "error"
    },
    {
      "inputs": [],
      "name": "ERC1967NonPayable",
      "type": "error"
    },
    {
      "inputs": [],
      "name": "FailedCall",
      "type": "error"
    },
    {
      "inputs": [],
      "name": "InvalidInitialization",
      "type": "error"
    },
    {
      "inputs": [],
      "name": "NotInitializing",
      "type": "error"
    },
    {
      "inputs": [
        {
          "internalType": "address",
          "name": "owner",
          "type": "address"
        }
      ],
      "name": "OwnableInvalidOwner",
      "type": "error"
    },
    {
      "inputs": [
        {
          "internalType": "address",
          "name": "account",
          "type": "address"
        }
      ],
      "name": "OwnableUnauthorizedAccount",
      "type": "error"
    },
    {
      "inputs": [],
      "name": "UUPSUnauthorizedCallContext",
      "type": "error"
    },
    {
      "inputs": [
        {
          "internalType": "bytes32",
          "name": "slot",
          "type": "bytes32"
        }
      ],
      "name": "UUPSUnsupportedProxiableUUID",
      "type": "error"
    },
    {
      "anonymous": false,
      "inputs": [
        {
          "indexed": true,
          "internalType": "uint256",
          "name": "id",
          "type": "uint256"
        },
        {
          "indexed": false,
          "internalType": "address",
          "name": "caller",
          "type": "address"
        },
        {
          "indexed": false,
          "internalType": "uint256",
          "name": "time",
          "type": "uint256"
        }
      ],
      "name": "ActiveCampaign",
      "type": "event"
    },
    {
      "anonymous": false,
      "inputs": [
        {
          "indexed": true,
          "internalType": "uint256",
          "name": "id",
          "type": "uint256"
        },
        {
          "indexed": false,
          "internalType": "address",
          "name": "caller",
          "type": "address"
        },
        {
          "indexed": false,
          "internalType": "uint256",
          "name": "time",
          "type": "uint256"
        }
      ],
      "name": "CancellCampaign",
      "type": "event"
    },
    {
      "anonymous": false,
      "inputs": [
        {
          "indexed": true,
          "internalType": "uint256",
          "name": "id",
          "type": "uint256"
        },
        {
          "indexed": false,
          "internalType": "address",
          "name": "caller",
          "type": "address"
        },
        {
          "indexed": false,
          "internalType": "uint256",
          "name": "time",
          "type": "uint256"
        }
      ],
      "name": "CompletedCampaign",
      "type": "event"
    },
    {
      "anonymous": false,
      "inputs": [
        {
          "indexed": true,
          "internalType": "uint256",
          "name": "id",
          "type": "uint256"
        },
        {
          "indexed": false,
          "internalType": "address",
          "name": "donater",
          "type": "address"
        },
        {
          "indexed": false,
          "internalType": "uint256",
          "name": "amount",
          "type": "uint256"
        }
      ],
      "name": "Donate",
      "type": "event"
    },
    {
      "anonymous": false,
      "inputs": [
        {
          "indexed": false,
          "internalType": "uint64",
          "name": "version",
          "type": "uint64"
        }
      ],
      "name": "Initialized",
      "type": "event"
    },
    {
      "anonymous": false,
      "inputs": [
        {
          "indexed": true,
          "internalType": "address",
          "name": "previousOwner",
          "type": "address"
        },
        {
          "indexed": true,
          "internalType": "address",
          "name": "newOwner",
          "type": "address"
        }
      ],
      "name": "OwnershipTransferred",
      "type": "event"
    },
    {
      "anonymous": false,
      "inputs": [
        {
          "indexed": true,
          "internalType": "uint256",
          "name": "id",
          "type": "uint256"
        },
        {
          "indexed": false,
          "internalType": "address",
          "name": "refunder",
          "type": "address"
        },
        {
          "indexed": false,
          "internalType": "uint256",
          "name": "refundAmount",
          "type": "uint256"
        },
        {
          "indexed": false,
          "internalType": "uint256",
          "name": "time",
          "type": "uint256"
        }
      ],
      "name": "Refund",
      "type": "event"
    },
    {
      "anonymous": false,
      "inputs": [
        {
          "indexed": true,
          "internalType": "uint256",
          "name": "id",
          "type": "uint256"
        },
        {
          "indexed": false,
          "internalType": "address",
          "name": "starter",
          "type": "address"
        },
        {
          "indexed": false,
          "internalType": "string",
          "name": "title",
          "type": "string"
        },
        {
          "indexed": false,
          "internalType": "uint256",
          "name": "goal",
          "type": "uint256"
        },
        {
          "indexed": false,
          "internalType": "uint256",
          "name": "startTime",
          "type": "uint256"
        },
        {
          "indexed": false,
          "internalType": "uint256",
          "name": "endTime",
          "type": "uint256"
        },
        {
          "indexed": false,
          "internalType": "enum DonationsManageContract.CampaignNature",
          "name": "nature",
          "type": "uint8"
        },
        {
          "indexed": false,
          "internalType": "enum DonationsManageContract.Beneficiary",
          "name": "beneficiary",
          "type": "uint8"
        },
        {
          "indexed": false,
          "internalType": "string",
          "name": "purpose",
          "type": "string"
        },
        {
          "indexed": false,
          "internalType": "string",
          "name": "expectedImpact",
          "type": "string"
        },
        {
          "indexed": false,
          "internalType": "enum DonationsManageContract.CampaignStatus",
          "name": "status",
          "type": "uint8"
        }
      ],
      "name": "StartCampaign",
      "type": "event"
    },
    {
      "anonymous": false,
      "inputs": [
        {
          "indexed": true,
          "internalType": "address",
          "name": "implementation",
          "type": "address"
        }
      ],
      "name": "Upgraded",
      "type": "event"
    },
    {
      "anonymous": false,
      "inputs": [
        {
          "indexed": true,
          "internalType": "uint256",
          "name": "id",
          "type": "uint256"
        },
        {
          "indexed": false,
          "internalType": "address",
          "name": "withdrawer",
          "type": "address"
        },
        {
          "indexed": false,
          "internalType": "uint256",
          "name": "withdrawAmount",
          "type": "uint256"
        },
        {
          "indexed": false,
          "internalType": "uint256",
          "name": "time",
          "type": "uint256"
        }
      ],
      "name": "Withdraw",
      "type": "event"
    },
    {
      "inputs": [],
      "name": "UPGRADE_INTERFACE_VERSION",
      "outputs": [
        {
          "internalType": "string",
          "name": "",
          "type": "string"
        }
      ],
      "stateMutability": "view",
      "type": "function"
    },
    {
      "inputs": [
        {
          "internalType": "uint256",
          "name": "_campaignId",
          "type": "uint256"
        }
      ],
      "name": "activeCampaign",
      "outputs": [],
      "stateMutability": "nonpayable",
      "type": "function"
    },
    {
      "inputs": [],
      "name": "campaignCount",
      "outputs": [
        {
          "internalType": "uint256",
          "name": "",
          "type": "uint256"
        }
      ],
      "stateMutability": "view",
      "type": "function"
    },
    {
      "inputs": [
        {
          "internalType": "uint256",
          "name": "",
          "type": "uint256"
        }
      ],
      "name": "campaigns",
      "outputs": [
        {
          "internalType": "string",
          "name": "title",
          "type": "string"
        },
        {
          "internalType": "uint256",
          "name": "goal",
          "type": "uint256"
        },
        {
          "internalType": "uint256",
          "name": "totalDonated",
          "type": "uint256"
        },
        {
          "internalType": "uint256",
          "name": "startTime",
          "type": "uint256"
        },
        {
          "internalType": "uint256",
          "name": "endTime",
          "type": "uint256"
        },
        {
          "internalType": "enum DonationsManageContract.CampaignNature",
          "name": "nature",
          "type": "uint8"
        },
        {
          "internalType": "enum DonationsManageContract.Beneficiary",
          "name": "beneficiary",
          "type": "uint8"
        },
        {
          "internalType": "string",
          "name": "purpose",
          "type": "string"
        },
        {
          "internalType": "string",
          "name": "expectedImpact",
          "type": "string"
        },
        {
          "internalType": "enum DonationsManageContract.CampaignStatus",
          "name": "status",
          "type": "uint8"
        },
        {
          "internalType": "address",
          "name": "starter",
          "type": "address"
        }
      ],
      "stateMutability": "view",
      "type": "function"
    },
    {
      "inputs": [
        {
          "internalType": "uint256",
          "name": "",
          "type": "uint256"
        }
      ],
      "name": "campaignsToCheck",
      "outputs": [
        {
          "internalType": "uint256",
          "name": "",
          "type": "uint256"
        }
      ],
      "stateMutability": "view",
      "type": "function"
    },
    {
      "inputs": [
        {
          "internalType": "uint256",
          "name": "_campaignId",
          "type": "uint256"
        }
      ],
      "name": "cancellCampaign",
      "outputs": [],
      "stateMutability": "nonpayable",
      "type": "function"
    },
    {
      "inputs": [
        {
          "internalType": "bytes",
          "name": "",
          "type": "bytes"
        }
      ],
      "name": "checkUpkeep",
      "outputs": [
        {
          "internalType": "bool",
          "name": "upkeepNeeded",
          "type": "bool"
        },
        {
          "internalType": "bytes",
          "name": "performData",
          "type": "bytes"
        }
      ],
      "stateMutability": "view",
      "type": "function"
    },
    {
      "inputs": [
        {
          "internalType": "uint256",
          "name": "_campaignId",
          "type": "uint256"
        }
      ],
      "name": "completedCampaign",
      "outputs": [],
      "stateMutability": "nonpayable",
      "type": "function"
    },
    {
      "inputs": [
        {
          "internalType": "string",
          "name": "_title",
          "type": "string"
        },
        {
          "internalType": "uint256",
          "name": "_goal",
          "type": "uint256"
        },
        {
          "internalType": "uint256",
          "name": "_startTime",
          "type": "uint256"
        },
        {
          "internalType": "uint256",
          "name": "_endTime",
          "type": "uint256"
        },
        {
          "internalType": "enum DonationsManageContract.CampaignNature",
          "name": "_nature",
          "type": "uint8"
        },
        {
          "internalType": "enum DonationsManageContract.Beneficiary",
          "name": "_beneficiary",
          "type": "uint8"
        },
        {
          "internalType": "string",
          "name": "_purpose",
          "type": "string"
        },
        {
          "internalType": "string",
          "name": "_expectedImpact",
          "type": "string"
        }
      ],
      "name": "createCampaign",
      "outputs": [],
      "stateMutability": "nonpayable",
      "type": "function"
    },
    {
      "inputs": [
        {
          "internalType": "uint256",
          "name": "_campaignId",
          "type": "uint256"
        },
        {
          "internalType": "uint256",
          "name": "_amount",
          "type": "uint256"
        }
      ],
      "name": "donate",
      "outputs": [],
      "stateMutability": "nonpayable",
      "type": "function"
    },
    {
      "inputs": [
        {
          "internalType": "uint256",
          "name": "_campaignId",
          "type": "uint256"
        }
      ],
      "name": "getCampaignDetails",
      "outputs": [
        {
          "internalType": "string",
          "name": "title",
          "type": "string"
        },
        {
          "internalType": "uint256",
          "name": "goal",
          "type": "uint256"
        },
        {
          "internalType": "uint256",
          "name": "totalDonated",
          "type": "uint256"
        },
        {
          "internalType": "uint256",
          "name": "startTime",
          "type": "uint256"
        },
        {
          "internalType": "uint256",
          "name": "endTime",
          "type": "uint256"
        },
        {
          "internalType": "enum DonationsManageContract.CampaignStatus",
          "name": "status",
          "type": "uint8"
        },
        {
          "internalType": "address",
          "name": "starter",
          "type": "address"
        }
      ],
      "stateMutability": "view",
      "type": "function"
    },
    {
      "inputs": [],
      "name": "getVersion",
      "outputs": [
        {
          "internalType": "string",
          "name": "",
          "type": "string"
        }
      ],
      "stateMutability": "pure",
      "type": "function"
    },
    {
      "inputs": [
        {
          "internalType": "address",
          "name": "_token",
          "type": "address"
        },
        {
          "internalType": "address",
          "name": "_nft",
          "type": "address"
        }
      ],
      "name": "initialize",
      "outputs": [],
      "stateMutability": "nonpayable",
      "type": "function"
    },
    {
      "inputs": [],
      "name": "owner",
      "outputs": [
        {
          "internalType": "address",
          "name": "",
          "type": "address"
        }
      ],
      "stateMutability": "view",
      "type": "function"
    },
    {
      "inputs": [
        {
          "internalType": "bytes",
          "name": "performData",
          "type": "bytes"
        }
      ],
      "name": "performUpkeep",
      "outputs": [],
      "stateMutability": "nonpayable",
      "type": "function"
    },
    {
      "inputs": [],
      "name": "proxiableUUID",
      "outputs": [
        {
          "internalType": "bytes32",
          "name": "",
          "type": "bytes32"
        }
      ],
      "stateMutability": "view",
      "type": "function"
    },
    {
      "inputs": [
        {
          "internalType": "uint256",
          "name": "_campaignId",
          "type": "uint256"
        }
      ],
      "name": "refundToken",
      "outputs": [],
      "stateMutability": "nonpayable",
      "type": "function"
    },
    {
      "inputs": [],
      "name": "renounceOwnership",
      "outputs": [],
      "stateMutability": "nonpayable",
      "type": "function"
    },
    {
      "inputs": [
        {
          "internalType": "address",
          "name": "newOwner",
          "type": "address"
        }
      ],
      "name": "transferOwnership",
      "outputs": [],
      "stateMutability": "nonpayable",
      "type": "function"
    },
    {
      "inputs": [
        {
          "internalType": "address",
          "name": "newImplementation",
          "type": "address"
        },
        {
          "internalType": "bytes",
          "name": "data",
          "type": "bytes"
        }
      ],
      "name": "upgradeToAndCall",
      "outputs": [],
      "stateMutability": "payable",
      "type": "function"
    },
    {
      "inputs": [
        {
          "internalType": "uint256",
          "name": "_campaignId",
          "type": "uint256"
        }
      ],
      "name": "withdraw",
      "outputs": [],
      "stateMutability": "nonpayable",
      "type": "function"
    }
  ],
  "bytecode": "0x60a06040523073ffffffffffffffffffffffffffffffffffffffff1660809073ffffffffffffffffffffffffffffffffffffffff16815250348015604257600080fd5b5060805161455561006c600039600081816121a6015281816121fb01526123b601526145556000f3fe60806040526004361061012a5760003560e01c806352d1902d116100ab5780639d1a36911161006f5780639d1a3691146103b2578063ad3cb1cc146103db578063b4e5be2914610406578063be6c81a51461042f578063d993de621461046c578063f2fde38b146104af5761012a565b806352d1902d146102dc5780636e04ff0d14610307578063715018a6146103455780637274e30d1461035c5780638da5cb5b146103875761012a565b80632e1a7d4d116100f25780632e1a7d4d1461021c5780634585e33b14610245578063485cc9551461026e5780634f1ef286146102975780635177af14146102b35761012a565b80630cdd53f61461012f5780630d8e6e2c14610158578063141961bc1461018357806317191704146101ca57806323be7dac146101f3575b600080fd5b34801561013b57600080fd5b5061015660048036038101906101519190612afe565b6104d8565b005b34801561016457600080fd5b5061016d6106ff565b60405161017a9190612bce565b60405180910390f35b34801561018f57600080fd5b506101aa60048036038101906101a59190612bf0565b61073c565b6040516101c19b9a99989796959493929190612d74565b60405180910390f35b3480156101d657600080fd5b506101f160048036038101906101ec9190612bf0565b610975565b005b3480156101ff57600080fd5b5061021a60048036038101906102159190612bf0565b610bdc565b005b34801561022857600080fd5b50610243600480360381019061023e9190612bf0565b610d89565b005b34801561025157600080fd5b5061026c60048036038101906102679190612e99565b611003565b005b34801561027a57600080fd5b5061029560048036038101906102909190612f12565b6112d2565b005b6102b160048036038101906102ac9190613082565b6115d0565b005b3480156102bf57600080fd5b506102da60048036038101906102d59190612bf0565b6115ef565b005b3480156102e857600080fd5b506102f16117e7565b6040516102fe91906130f7565b60405180910390f35b34801561031357600080fd5b5061032e60048036038101906103299190612e99565b61181a565b60405161033c929190613182565b60405180910390f35b34801561035157600080fd5b5061035a611a7d565b005b34801561036857600080fd5b50610371611a91565b60405161037e91906131b2565b60405180910390f35b34801561039357600080fd5b5061039c611a97565b6040516103a991906131cd565b60405180910390f35b3480156103be57600080fd5b506103d960048036038101906103d491906132d3565b611acf565b005b3480156103e757600080fd5b506103f0611dc6565b6040516103fd9190612bce565b60405180910390f35b34801561041257600080fd5b5061042d60048036038101906104289190612bf0565b611dff565b005b34801561043b57600080fd5b5061045660048036038101906104519190612bf0565b611fac565b60405161046391906131b2565b60405180910390f35b34801561047857600080fd5b50610493600480360381019061048e9190612bf0565b611fd0565b6040516104a697969594939291906133dd565b60405180910390f35b3480156104bb57600080fd5b506104d660048036038101906104d19190613453565b6120e4565b005b60006002600084815260200190815260200160002090506001600381111561050357610502612c2c565b5b8160090160009054906101000a900460ff16600381111561052757610526612c2c565b5b14610567576040517f08c379a000000000000000000000000000000000000000000000000000000000815260040161055e906134f2565b60405180910390fd5b818160080160003373ffffffffffffffffffffffffffffffffffffffff1673ffffffffffffffffffffffffffffffffffffffff16815260200190815260200160002060008282546105b89190613541565b92505081905550818160020160008282546105d39190613541565b9250508190555060008060009054906101000a900473ffffffffffffffffffffffffffffffffffffffff1673ffffffffffffffffffffffffffffffffffffffff166323b872dd3330866040518463ffffffff1660e01b815260040161063a93929190613575565b6020604051808303816000875af1158015610659573d6000803e3d6000fd5b505050506040513d601f19601f8201168201806040525081019061067d91906135d8565b9050806106bf576040517f08c379a00000000000000000000000000000000000000000000000000000000081526004016106b690613651565b60405180910390fd5b837f48def02da8c59b50861e25bab759a8a0c0de6fab6448ef85f32ce59397947d8033856040516106f1929190613671565b60405180910390a250505050565b60606040518060400160405280600581526020017f312e302e30000000000000000000000000000000000000000000000000000000815250905090565b600260205280600052604060002060009150905080600001805461075f906136c9565b80601f016020809104026020016040519081016040528092919081815260200182805461078b906136c9565b80156107d85780601f106107ad576101008083540402835291602001916107d8565b820191906000526020600020905b8154815290600101906020018083116107bb57829003601f168201915b5050505050908060010154908060020154908060030154908060040154908060050160009054906101000a900460ff16908060050160019054906101000a900460ff169080600601805461082b906136c9565b80601f0160208091040260200160405190810160405280929190818152602001828054610857906136c9565b80156108a45780601f10610879576101008083540402835291602001916108a4565b820191906000526020600020905b81548152906001019060200180831161088757829003601f168201915b5050505050908060070180546108b9906136c9565b80601f01602080910402602001604051908101604052809291908181526020018280546108e5906136c9565b80156109325780601f1061090757610100808354040283529160200191610932565b820191906000526020600020905b81548152906001019060200180831161091557829003601f168201915b5050505050908060090160009054906101000a900460ff16908060090160019054906101000a900473ffffffffffffffffffffffffffffffffffffffff1690508b565b600060026000838152602001908152602001600020905060038081111561099f5761099e612c2c565b5b8160090160009054906101000a900460ff1660038111156109c3576109c2612c2c565b5b14610a03576040517f08c379a00000000000000000000000000000000000000000000000000000000081526004016109fa9061376c565b60405180910390fd5b600081600801905060008160003373ffffffffffffffffffffffffffffffffffffffff1673ffffffffffffffffffffffffffffffffffffffff16815260200190815260200160002054905060008114610bd65760008260003373ffffffffffffffffffffffffffffffffffffffff1673ffffffffffffffffffffffffffffffffffffffff1681526020019081526020016000208190555080836002016000828254610aae919061378c565b9250508190555060008060009054906101000a900473ffffffffffffffffffffffffffffffffffffffff1673ffffffffffffffffffffffffffffffffffffffff1663a9059cbb33846040518363ffffffff1660e01b8152600401610b13929190613671565b6020604051808303816000875af1158015610b32573d6000803e3d6000fd5b505050506040513d601f19601f82011682018060405250810190610b5691906135d8565b905080610b98576040517f08c379a0000000000000000000000000000000000000000000000000000000008152600401610b8f9061380c565b60405180910390fd5b847faba4210cad11f1112f31ba136a61cdc0f6ab4c2b478da8c93eec1d9769e97a89338442604051610bcc9392919061382c565b60405180910390a2505b50505050565b8060006002600083815260200190815260200160002090508060090160019054906101000a900473ffffffffffffffffffffffffffffffffffffffff1673ffffffffffffffffffffffffffffffffffffffff16610c3761216a565b73ffffffffffffffffffffffffffffffffffffffff1614610c8d576040517f08c379a0000000000000000000000000000000000000000000000000000000008152600401610c84906138af565b60405180910390fd5b600060026000858152602001908152602001600020905060006003811115610cb857610cb7612c2c565b5b8160090160009054906101000a900460ff166003811115610cdc57610cdb612c2c565b5b14610d1c576040517f08c379a0000000000000000000000000000000000000000000000000000000008152600401610d1390613941565b60405180910390fd5b60018160090160006101000a81548160ff02191690836003811115610d4457610d43612c2c565b5b0217905550837f45e7ca8c14330ef52434b43a323a650db341a2b85a5160f66d892e3a9623c2273342604051610d7b929190613671565b60405180910390a250505050565b8060006002600083815260200190815260200160002090508060090160019054906101000a900473ffffffffffffffffffffffffffffffffffffffff1673ffffffffffffffffffffffffffffffffffffffff16610de461216a565b73ffffffffffffffffffffffffffffffffffffffff1614610e3a576040517f08c379a0000000000000000000000000000000000000000000000000000000008152600401610e31906138af565b60405180910390fd5b600060026000858152602001908152602001600020905060026003811115610e6557610e64612c2c565b5b8160090160009054906101000a900460ff166003811115610e8957610e88612c2c565b5b14610ec9576040517f08c379a0000000000000000000000000000000000000000000000000000000008152600401610ec0906139ad565b60405180910390fd5b6000816002015490506000826002018190555060008060009054906101000a900473ffffffffffffffffffffffffffffffffffffffff1673ffffffffffffffffffffffffffffffffffffffff1663a9059cbb33846040518363ffffffff1660e01b8152600401610f3a929190613671565b6020604051808303816000875af1158015610f59573d6000803e3d6000fd5b505050506040513d601f19601f82011682018060405250810190610f7d91906135d8565b905080610fbf576040517f08c379a0000000000000000000000000000000000000000000000000000000008152600401610fb690613a19565b60405180910390fd5b857fb0ecf14e184effded5473bba77dcfab32b094b77ac1fbb36beec2aef55587970338442604051610ff39392919061382c565b60405180910390a2505050505050565b600082828101906110149190613afc565b905060005b81518110156112cc57600082828151811061103757611036613b45565b5b60200260200101519050600060026000838152602001908152602001600020905060038081111561106b5761106a612c2c565b5b8160090160009054906101000a900460ff16600381111561108f5761108e612c2c565b5b14806110d05750600260038111156110aa576110a9612c2c565b5b8160090160009054906101000a900460ff1660038111156110ce576110cd612c2c565b5b145b156110dc5750506112bf565b8060030154421180156110f25750806004015442105b801561113357506000600381111561110d5761110c612c2c565b5b8160090160009054906101000a900460ff16600381111561113157611130612c2c565b5b145b156111a05760018160090160006101000a81548160ff021916908360038111156111605761115f612c2c565b5b0217905550817f45e7ca8c14330ef52434b43a323a650db341a2b85a5160f66d892e3a9623c2273342604051611197929190613671565b60405180910390a25b806004015442101580156111bb575080600101548160020154105b1561122e5760038160090160006101000a81548160ff021916908360038111156111e8576111e7612c2c565b5b0217905550817f1c37c67694e49ddaa169e8b7f9dafd655ba8cfc26df25bf66ea18d649d5e7096334260405161121f929190613671565b60405180910390a250506112bf565b80600301544211801561124957508060010154816002015410155b156112bc5760028160090160006101000a81548160ff0219169083600381111561127657611275612c2c565b5b0217905550817fcab935963eaa03f3973204c91b5bc658726a1015d91fc361d82f67c40717230033426040516112ad929190613671565b60405180910390a250506112bf565b50505b8080600101915050611019565b50505050565b60006112dc612172565b905060008160000160089054906101000a900460ff1615905060008260000160009054906101000a900467ffffffffffffffff1690506000808267ffffffffffffffff1614801561132a5750825b9050600060018367ffffffffffffffff1614801561135f575060003073ffffffffffffffffffffffffffffffffffffffff163b145b90508115801561136d575080155b156113a4576040517ff92ee8a900000000000000000000000000000000000000000000000000000000815260040160405180910390fd5b60018560000160006101000a81548167ffffffffffffffff021916908367ffffffffffffffff16021790555083156113f45760018560000160086101000a81548160ff0219169083151502179055505b600073ffffffffffffffffffffffffffffffffffffffff168773ffffffffffffffffffffffffffffffffffffffff1603611463576040517f08c379a000000000000000000000000000000000000000000000000000000000815260040161145a90613bc0565b60405180910390fd5b600073ffffffffffffffffffffffffffffffffffffffff168673ffffffffffffffffffffffffffffffffffffffff16036114d2576040517f08c379a00000000000000000000000000000000000000000000000000000000081526004016114c990613c2c565b60405180910390fd5b6114e26114dd61216a565b612186565b6114ea61219a565b866000806101000a81548173ffffffffffffffffffffffffffffffffffffffff021916908373ffffffffffffffffffffffffffffffffffffffff16021790555085600160006101000a81548173ffffffffffffffffffffffffffffffffffffffff021916908373ffffffffffffffffffffffffffffffffffffffff16021790555083156115c75760008560000160086101000a81548160ff0219169083151502179055507fc7f505b2f371ae2175ee4913f4499e1f2633a7b5936321eed1cdaeb6115181d260016040516115be9190613ca5565b60405180910390a15b50505050505050565b6115d86121a4565b6115e18261228a565b6115eb8282612295565b5050565b8060006002600083815260200190815260200160002090508060090160019054906101000a900473ffffffffffffffffffffffffffffffffffffffff1673ffffffffffffffffffffffffffffffffffffffff1661164a61216a565b73ffffffffffffffffffffffffffffffffffffffff16146116a0576040517f08c379a0000000000000000000000000000000000000000000000000000000008152600401611697906138af565b60405180910390fd5b6000600260008581526020019081526020016000209050600160038111156116cb576116ca612c2c565b5b8160090160009054906101000a900460ff1660038111156116ef576116ee612c2c565b5b1461172f576040517f08c379a000000000000000000000000000000000000000000000000000000000815260040161172690613d32565b60405180910390fd5b80600101548160020154101561177a576040517f08c379a000000000000000000000000000000000000000000000000000000000815260040161177190613d9e565b60405180910390fd5b60028160090160006101000a81548160ff021916908360038111156117a2576117a1612c2c565b5b0217905550837fcab935963eaa03f3973204c91b5bc658726a1015d91fc361d82f67c40717230033426040516117d9929190613671565b60405180910390a250505050565b60006117f16123b4565b7f360894a13ba1a3210667c828492db98dca3e2076cc3735a920a3ca505d382bbc60001b905090565b60006060600091506000600380549050905060008167ffffffffffffffff81111561184857611847612f57565b5b6040519080825280602002602001820160405280156118765781602001602082028036833780820191505090505b5090506000805b83811015611a39576000600260006003848154811061189f5761189e613b45565b5b9060005260206000200154815260200190815260200160002090506003808111156118cd576118cc612c2c565b5b8160090160009054906101000a900460ff1660038111156118f1576118f0612c2c565b5b148061193257506002600381111561190c5761190b612c2c565b5b8160090160009054906101000a900460ff1660038111156119305761192f612c2c565b5b145b1561193d5750611a2c565b8060030154421180156119535750806004015442105b801561199457506000600381111561196e5761196d612c2c565b5b8160090160009054906101000a900460ff16600381111561199257611991612c2c565b5b145b806119b657508060030154421180156119b557508060010154816002015410155b5b806119d85750806004015442101580156119d7575080600101548160020154105b5b15611a2a57600382815481106119f1576119f0613b45565b5b9060005260206000200154848481518110611a0f57611a0e613b45565b5b6020026020010181815250508280611a2690613dbe565b9350505b505b808060010191505061187d565b506000811115611a735760019450611a51828261243b565b604051602001611a619190613ec4565b60405160208183030381529060405293505b5050509250929050565b611a856124e7565b611a8f600061256e565b565b60045481565b600080611aa2612645565b90508060000160009054906101000a900473ffffffffffffffffffffffffffffffffffffffff1691505090565b6000885111611b13576040517f08c379a0000000000000000000000000000000000000000000000000000000008152600401611b0a90613f32565b60405180910390fd5b60008711611b56576040517f08c379a0000000000000000000000000000000000000000000000000000000008152600401611b4d90613f9e565b60405180910390fd5b848610611b98576040517f08c379a0000000000000000000000000000000000000000000000000000000008152600401611b8f90614030565b60405180910390fd5b844210611bda576040517f08c379a0000000000000000000000000000000000000000000000000000000008152600401611bd19061409c565b60405180910390fd5b60046000815480929190611bed90613dbe565b91905055506000600260006004548152602001908152602001600020905088816000019081611c1c919061425e565b50878160010181905550868160030181905550858160040181905550848160050160006101000a81548160ff02191690836004811115611c5f57611c5e612c2c565b5b0217905550838160050160016101000a81548160ff02191690836003811115611c8b57611c8a612c2c565b5b021790555082816006019081611ca1919061425e565b5081816007019081611cb3919061425e565b50864211611cc2576000611cc5565b60015b8160090160006101000a81548160ff02191690836003811115611ceb57611cea612c2c565b5b0217905550338160090160016101000a81548173ffffffffffffffffffffffffffffffffffffffff021916908373ffffffffffffffffffffffffffffffffffffffff160217905550600360045490806001815401808255809150506001900390600052602060002001600090919091909150556004547fbe3dd7dc6384f58902a35b3dbc09ad6f5cc91b4499b64a64574f25c4c13cdef6338b8b8b8b8b8b8b8b8b60090160009054906101000a900460ff16604051611db39a99989796959493929190614330565b60405180910390a2505050505050505050565b6040518060400160405280600581526020017f352e302e3000000000000000000000000000000000000000000000000000000081525081565b8060006002600083815260200190815260200160002090508060090160019054906101000a900473ffffffffffffffffffffffffffffffffffffffff1673ffffffffffffffffffffffffffffffffffffffff16611e5a61216a565b73ffffffffffffffffffffffffffffffffffffffff1614611eb0576040517f08c379a0000000000000000000000000000000000000000000000000000000008152600401611ea7906138af565b60405180910390fd5b600060026000858152602001908152602001600020905060026003811115611edb57611eda612c2c565b5b8160090160009054906101000a900460ff166003811115611eff57611efe612c2c565b5b03611f3f576040517f08c379a0000000000000000000000000000000000000000000000000000000008152600401611f3690614453565b60405180910390fd5b60038160090160006101000a81548160ff02191690836003811115611f6757611f66612c2c565b5b0217905550837f1c37c67694e49ddaa169e8b7f9dafd655ba8cfc26df25bf66ea18d649d5e70963342604051611f9e929190613671565b60405180910390a250505050565b60038181548110611fbc57600080fd5b906000526020600020016000915090505481565b60606000806000806000806000600260008a81526020019081526020016000209050806000018054612001906136c9565b80601f016020809104026020016040519081016040528092919081815260200182805461202d906136c9565b801561207a5780601f1061204f5761010080835404028352916020019161207a565b820191906000526020600020905b81548152906001019060200180831161205d57829003601f168201915b50505050509750806001015496508060020154955080600301549450806004015493508060090160009054906101000a900460ff1692508060090160019054906101000a900473ffffffffffffffffffffffffffffffffffffffff16915050919395979092949650565b6120ec6124e7565b600073ffffffffffffffffffffffffffffffffffffffff168173ffffffffffffffffffffffffffffffffffffffff160361215e5760006040517f1e4fbdf700000000000000000000000000000000000000000000000000000000815260040161215591906131cd565b60405180910390fd5b6121678161256e565b50565b600033905090565b60008061217d61266d565b90508091505090565b61218e612698565b612197816126d8565b50565b6121a2612698565b565b7f000000000000000000000000000000000000000000000000000000000000000073ffffffffffffffffffffffffffffffffffffffff163073ffffffffffffffffffffffffffffffffffffffff16148061225157507f000000000000000000000000000000000000000000000000000000000000000073ffffffffffffffffffffffffffffffffffffffff1661223861275e565b73ffffffffffffffffffffffffffffffffffffffff1614155b15612288576040517fe07c8dba00000000000000000000000000000000000000000000000000000000815260040160405180910390fd5b565b6122926124e7565b50565b8173ffffffffffffffffffffffffffffffffffffffff166352d1902d6040518163ffffffff1660e01b8152600401602060405180830381865afa9250505080156122fd57506040513d601f19601f820116820180604052508101906122fa919061449f565b60015b61233e57816040517f4c9c8ce300000000000000000000000000000000000000000000000000000000815260040161233591906131cd565b60405180910390fd5b7f360894a13ba1a3210667c828492db98dca3e2076cc3735a920a3ca505d382bbc60001b81146123a557806040517faa1d49a400000000000000000000000000000000000000000000000000000000815260040161239c91906130f7565b60405180910390fd5b6123af83836127b5565b505050565b7f000000000000000000000000000000000000000000000000000000000000000073ffffffffffffffffffffffffffffffffffffffff163073ffffffffffffffffffffffffffffffffffffffff1614612439576040517fe07c8dba00000000000000000000000000000000000000000000000000000000815260040160405180910390fd5b565b606060008267ffffffffffffffff81111561245957612458612f57565b5b6040519080825280602002602001820160405280156124875781602001602082028036833780820191505090505b50905060005b838110156124dc578481815181106124a8576124a7613b45565b5b60200260200101518282815181106124c3576124c2613b45565b5b602002602001018181525050808060010191505061248d565b508091505092915050565b6124ef61216a565b73ffffffffffffffffffffffffffffffffffffffff1661250d611a97565b73ffffffffffffffffffffffffffffffffffffffff161461256c5761253061216a565b6040517f118cdaa700000000000000000000000000000000000000000000000000000000815260040161256391906131cd565b60405180910390fd5b565b6000612578612645565b905060008160000160009054906101000a900473ffffffffffffffffffffffffffffffffffffffff169050828260000160006101000a81548173ffffffffffffffffffffffffffffffffffffffff021916908373ffffffffffffffffffffffffffffffffffffffff1602179055508273ffffffffffffffffffffffffffffffffffffffff168173ffffffffffffffffffffffffffffffffffffffff167f8be0079c531659141344cd1fd0a4f28419497f9722a3daafe3b4186f6b6457e060405160405180910390a3505050565b60007f9016d09d72d40fdae2fd8ceac6b6234c7706214fd39c1cd1e609a0528c199300905090565b60007ff0c57e16840df040f15088dc2f81fe391c3923bec73e23a9662efc9c229c6a0060001b905090565b6126a0612828565b6126d6576040517fd7e6bcf800000000000000000000000000000000000000000000000000000000815260040160405180910390fd5b565b6126e0612698565b600073ffffffffffffffffffffffffffffffffffffffff168173ffffffffffffffffffffffffffffffffffffffff16036127525760006040517f1e4fbdf700000000000000000000000000000000000000000000000000000000815260040161274991906131cd565b60405180910390fd5b61275b8161256e565b50565b600061278c7f360894a13ba1a3210667c828492db98dca3e2076cc3735a920a3ca505d382bbc60001b612848565b60000160009054906101000a900473ffffffffffffffffffffffffffffffffffffffff16905090565b6127be82612852565b8173ffffffffffffffffffffffffffffffffffffffff167fbc7cd75a20ee27fd9adebab32041f755214dbc6bffa90cc0225b39da2e5c2d3b60405160405180910390a260008151111561281b57612815828261291f565b50612824565b6128236129a3565b5b5050565b6000612832612172565b60000160089054906101000a900460ff16905090565b6000819050919050565b60008173ffffffffffffffffffffffffffffffffffffffff163b036128ae57806040517f4c9c8ce30000000000000000000000000000000000000000000000000000000081526004016128a591906131cd565b60405180910390fd5b806128db7f360894a13ba1a3210667c828492db98dca3e2076cc3735a920a3ca505d382bbc60001b612848565b60000160006101000a81548173ffffffffffffffffffffffffffffffffffffffff021916908373ffffffffffffffffffffffffffffffffffffffff16021790555050565b60606000808473ffffffffffffffffffffffffffffffffffffffff16846040516129499190614508565b600060405180830381855af49150503d8060008114612984576040519150601f19603f3d011682016040523d82523d6000602084013e612989565b606091505b50915091506129998583836129e0565b9250505092915050565b60003411156129de576040517fb398979f00000000000000000000000000000000000000000000000000000000815260040160405180910390fd5b565b6060826129f5576129f082612a6f565b612a67565b60008251148015612a1d575060008473ffffffffffffffffffffffffffffffffffffffff163b145b15612a5f57836040517f9996b315000000000000000000000000000000000000000000000000000000008152600401612a5691906131cd565b60405180910390fd5b819050612a68565b5b9392505050565b600081511115612a825780518082602001fd5b6040517fd6bda27500000000000000000000000000000000000000000000000000000000815260040160405180910390fd5b6000604051905090565b600080fd5b600080fd5b6000819050919050565b612adb81612ac8565b8114612ae657600080fd5b50565b600081359050612af881612ad2565b92915050565b60008060408385031215612b1557612b14612abe565b5b6000612b2385828601612ae9565b9250506020612b3485828601612ae9565b9150509250929050565b600081519050919050565b600082825260208201905092915050565b60005b83811015612b78578082015181840152602081019050612b5d565b60008484015250505050565b6000601f19601f8301169050919050565b6000612ba082612b3e565b612baa8185612b49565b9350612bba818560208601612b5a565b612bc381612b84565b840191505092915050565b60006020820190508181036000830152612be88184612b95565b905092915050565b600060208284031215612c0657612c05612abe565b5b6000612c1484828501612ae9565b91505092915050565b612c2681612ac8565b82525050565b7f4e487b7100000000000000000000000000000000000000000000000000000000600052602160045260246000fd5b60058110612c6c57612c6b612c2c565b5b50565b6000819050612c7d82612c5b565b919050565b6000612c8d82612c6f565b9050919050565b612c9d81612c82565b82525050565b60048110612cb457612cb3612c2c565b5b50565b6000819050612cc582612ca3565b919050565b6000612cd582612cb7565b9050919050565b612ce581612cca565b82525050565b60048110612cfc57612cfb612c2c565b5b50565b6000819050612d0d82612ceb565b919050565b6000612d1d82612cff565b9050919050565b612d2d81612d12565b82525050565b600073ffffffffffffffffffffffffffffffffffffffff82169050919050565b6000612d5e82612d33565b9050919050565b612d6e81612d53565b82525050565b6000610160820190508181036000830152612d8f818e612b95565b9050612d9e602083018d612c1d565b612dab604083018c612c1d565b612db8606083018b612c1d565b612dc5608083018a612c1d565b612dd260a0830189612c94565b612ddf60c0830188612cdc565b81810360e0830152612df18187612b95565b9050818103610100830152612e068186612b95565b9050612e16610120830185612d24565b612e24610140830184612d65565b9c9b505050505050505050505050565b600080fd5b600080fd5b600080fd5b60008083601f840112612e5957612e58612e34565b5b8235905067ffffffffffffffff811115612e7657612e75612e39565b5b602083019150836001820283011115612e9257612e91612e3e565b5b9250929050565b60008060208385031215612eb057612eaf612abe565b5b600083013567ffffffffffffffff811115612ece57612ecd612ac3565b5b612eda85828601612e43565b92509250509250929050565b612eef81612d53565b8114612efa57600080fd5b50565b600081359050612f0c81612ee6565b92915050565b60008060408385031215612f2957612f28612abe565b5b6000612f3785828601612efd565b9250506020612f4885828601612efd565b9150509250929050565b600080fd5b7f4e487b7100000000000000000000000000000000000000000000000000000000600052604160045260246000fd5b612f8f82612b84565b810181811067ffffffffffffffff82111715612fae57612fad612f57565b5b80604052505050565b6000612fc1612ab4565b9050612fcd8282612f86565b919050565b600067ffffffffffffffff821115612fed57612fec612f57565b5b612ff682612b84565b9050602081019050919050565b82818337600083830152505050565b600061302561302084612fd2565b612fb7565b90508281526020810184848401111561304157613040612f52565b5b61304c848285613003565b509392505050565b600082601f83011261306957613068612e34565b5b8135613079848260208601613012565b91505092915050565b6000806040838503121561309957613098612abe565b5b60006130a785828601612efd565b925050602083013567ffffffffffffffff8111156130c8576130c7612ac3565b5b6130d485828601613054565b9150509250929050565b6000819050919050565b6130f1816130de565b82525050565b600060208201905061310c60008301846130e8565b92915050565b60008115159050919050565b61312781613112565b82525050565b600081519050919050565b600082825260208201905092915050565b60006131548261312d565b61315e8185613138565b935061316e818560208601612b5a565b61317781612b84565b840191505092915050565b6000604082019050613197600083018561311e565b81810360208301526131a98184613149565b90509392505050565b60006020820190506131c76000830184612c1d565b92915050565b60006020820190506131e26000830184612d65565b92915050565b600067ffffffffffffffff82111561320357613202612f57565b5b61320c82612b84565b9050602081019050919050565b600061322c613227846131e8565b612fb7565b90508281526020810184848401111561324857613247612f52565b5b613253848285613003565b509392505050565b600082601f8301126132705761326f612e34565b5b8135613280848260208601613219565b91505092915050565b6005811061329657600080fd5b50565b6000813590506132a881613289565b92915050565b600481106132bb57600080fd5b50565b6000813590506132cd816132ae565b92915050565b600080600080600080600080610100898b0312156132f4576132f3612abe565b5b600089013567ffffffffffffffff81111561331257613311612ac3565b5b61331e8b828c0161325b565b985050602061332f8b828c01612ae9565b97505060406133408b828c01612ae9565b96505060606133518b828c01612ae9565b95505060806133628b828c01613299565b94505060a06133738b828c016132be565b93505060c089013567ffffffffffffffff81111561339457613393612ac3565b5b6133a08b828c0161325b565b92505060e089013567ffffffffffffffff8111156133c1576133c0612ac3565b5b6133cd8b828c0161325b565b9150509295985092959890939650565b600060e08201905081810360008301526133f7818a612b95565b90506134066020830189612c1d565b6134136040830188612c1d565b6134206060830187612c1d565b61342d6080830186612c1d565b61343a60a0830185612d24565b61344760c0830184612d65565b98975050505050505050565b60006020828403121561346957613468612abe565b5b600061347784828501612efd565b91505092915050565b7f7468652063616d706169676e206973206e6f74207374617274206f7220656e6460008201527f6564000000000000000000000000000000000000000000000000000000000000602082015250565b60006134dc602283612b49565b91506134e782613480565b604082019050919050565b6000602082019050818103600083015261350b816134cf565b9050919050565b7f4e487b7100000000000000000000000000000000000000000000000000000000600052601160045260246000fd5b600061354c82612ac8565b915061355783612ac8565b925082820190508082111561356f5761356e613512565b5b92915050565b600060608201905061358a6000830186612d65565b6135976020830185612d65565b6135a46040830184612c1d565b949350505050565b6135b581613112565b81146135c057600080fd5b50565b6000815190506135d2816135ac565b92915050565b6000602082840312156135ee576135ed612abe565b5b60006135fc848285016135c3565b91505092915050565b7f646f6e617465207472616e73666572206661696c000000000000000000000000600082015250565b600061363b601483612b49565b915061364682613605565b602082019050919050565b6000602082019050818103600083015261366a8161362e565b9050919050565b60006040820190506136866000830185612d65565b6136936020830184612c1d565b9392505050565b7f4e487b7100000000000000000000000000000000000000000000000000000000600052602260045260246000fd5b600060028204905060018216806136e157607f821691505b6020821081036136f4576136f361369a565b5b50919050565b7f63616d7061696e206e6f742063616e63656c6c65642c63616e206e6f7420726560008201527f66756e6400000000000000000000000000000000000000000000000000000000602082015250565b6000613756602483612b49565b9150613761826136fa565b604082019050919050565b6000602082019050818103600083015261378581613749565b9050919050565b600061379782612ac8565b91506137a283612ac8565b92508282039050818111156137ba576137b9613512565b5b92915050565b7f726566756e64207472616e73666572206661696c656400000000000000000000600082015250565b60006137f6601683612b49565b9150613801826137c0565b602082019050919050565b60006020820190508181036000830152613825816137e9565b9050919050565b60006060820190506138416000830186612d65565b61384e6020830185612c1d565b61385b6040830184612c1d565b949350505050565b7f6e6f742073746172746572000000000000000000000000000000000000000000600082015250565b6000613899600b83612b49565b91506138a482613863565b602082019050919050565b600060208201905081810360008301526138c88161388c565b9050919050565b7f7468652063616d706169676e206973206e6f742070656e64696e672c63616e2060008201527f6e6f742061637469766500000000000000000000000000000000000000000000602082015250565b600061392b602a83612b49565b9150613936826138cf565b604082019050919050565b6000602082019050818103600083015261395a8161391e565b9050919050565b7f7468652063616d706169676e206973206e6f7420436f6d706c65746564000000600082015250565b6000613997601d83612b49565b91506139a282613961565b602082019050919050565b600060208201905081810360008301526139c68161398a565b9050919050565b7f7769746864726177207472616e73666572206661696c65640000000000000000600082015250565b6000613a03601883612b49565b9150613a0e826139cd565b602082019050919050565b60006020820190508181036000830152613a32816139f6565b9050919050565b600067ffffffffffffffff821115613a5457613a53612f57565b5b602082029050602081019050919050565b6000613a78613a7384613a39565b612fb7565b90508083825260208201905060208402830185811115613a9b57613a9a612e3e565b5b835b81811015613ac45780613ab08882612ae9565b845260208401935050602081019050613a9d565b5050509392505050565b600082601f830112613ae357613ae2612e34565b5b8135613af3848260208601613a65565b91505092915050565b600060208284031215613b1257613b11612abe565b5b600082013567ffffffffffffffff811115613b3057613b2f612ac3565b5b613b3c84828501613ace565b91505092915050565b7f4e487b7100000000000000000000000000000000000000000000000000000000600052603260045260246000fd5b7f546f6b656e20616464726573732063616e6e6f74206265207a65726f00000000600082015250565b6000613baa601c83612b49565b9150613bb582613b74565b602082019050919050565b60006020820190508181036000830152613bd981613b9d565b9050919050565b7f4e465420616464726573732063616e6e6f74206265207a65726f000000000000600082015250565b6000613c16601a83612b49565b9150613c2182613be0565b602082019050919050565b60006020820190508181036000830152613c4581613c09565b9050919050565b6000819050919050565b600067ffffffffffffffff82169050919050565b6000819050919050565b6000613c8f613c8a613c8584613c4c565b613c6a565b613c56565b9050919050565b613c9f81613c74565b82525050565b6000602082019050613cba6000830184613c96565b92915050565b7f7468652063616d706169676e206973206e6f7420616374697665202c63616e2060008201527f6e6f7420636f6d706c6574656400000000000000000000000000000000000000602082015250565b6000613d1c602d83612b49565b9150613d2782613cc0565b604082019050919050565b60006020820190508181036000830152613d4b81613d0f565b9050919050565b7f676f616c206973206e6f74207265616368000000000000000000000000000000600082015250565b6000613d88601183612b49565b9150613d9382613d52565b602082019050919050565b60006020820190508181036000830152613db781613d7b565b9050919050565b6000613dc982612ac8565b91507fffffffffffffffffffffffffffffffffffffffffffffffffffffffffffffffff8203613dfb57613dfa613512565b5b600182019050919050565b600081519050919050565b600082825260208201905092915050565b6000819050602082019050919050565b613e3b81612ac8565b82525050565b6000613e4d8383613e32565b60208301905092915050565b6000602082019050919050565b6000613e7182613e06565b613e7b8185613e11565b9350613e8683613e22565b8060005b83811015613eb7578151613e9e8882613e41565b9750613ea983613e59565b925050600181019050613e8a565b5085935050505092915050565b60006020820190508181036000830152613ede8184613e66565b905092915050565b7f5469746c652063616e6e6f7420626520656d7074790000000000000000000000600082015250565b6000613f1c601583612b49565b9150613f2782613ee6565b602082019050919050565b60006020820190508181036000830152613f4b81613f0f565b9050919050565b7f496e76616c696420676f616c0000000000000000000000000000000000000000600082015250565b6000613f88600c83612b49565b9150613f9382613f52565b602082019050919050565b60006020820190508181036000830152613fb781613f7b565b9050919050565b7f5f737461727454696d65206973206c61746572207468616e205f656e6454696d60008201527f6500000000000000000000000000000000000000000000000000000000000000602082015250565b600061401a602183612b49565b915061402582613fbe565b604082019050919050565b600060208201905081810360008301526140498161400d565b9050919050565b7f496e76616c696420656e6454696d650000000000000000000000000000000000600082015250565b6000614086600f83612b49565b915061409182614050565b602082019050919050565b600060208201905081810360008301526140b581614079565b9050919050565b60008190508160005260206000209050919050565b60006020601f8301049050919050565b600082821b905092915050565b60006008830261411e7fffffffffffffffffffffffffffffffffffffffffffffffffffffffffffffffff826140e1565b61412886836140e1565b95508019841693508086168417925050509392505050565b600061415b61415661415184612ac8565b613c6a565b612ac8565b9050919050565b6000819050919050565b61417583614140565b61418961418182614162565b8484546140ee565b825550505050565b600090565b61419e614191565b6141a981848461416c565b505050565b5b818110156141cd576141c2600082614196565b6001810190506141af565b5050565b601f821115614212576141e3816140bc565b6141ec846140d1565b810160208510156141fb578190505b61420f614207856140d1565b8301826141ae565b50505b505050565b600082821c905092915050565b600061423560001984600802614217565b1980831691505092915050565b600061424e8383614224565b9150826002028217905092915050565b61426782612b3e565b67ffffffffffffffff8111156142805761427f612f57565b5b61428a82546136c9565b6142958282856141d1565b600060209050601f8311600181146142c857600084156142b6578287015190505b6142c08582614242565b865550614328565b601f1984166142d6866140bc565b60005b828110156142fe578489015182556001820191506020850194506020810190506142d9565b8683101561431b5784890151614317601f891682614224565b8355505b6001600288020188555050505b505050505050565b600061014082019050614346600083018d612d65565b8181036020830152614358818c612b95565b9050614367604083018b612c1d565b614374606083018a612c1d565b6143816080830189612c1d565b61438e60a0830188612c94565b61439b60c0830187612cdc565b81810360e08301526143ad8186612b95565b90508181036101008301526143c28185612b95565b90506143d2610120830184612d24565b9b9a5050505050505050505050565b7f7468652063616d706169676e20697320636f6d706c657465642c63616e206e6f60008201527f742063616e63656c6c0000000000000000000000000000000000000000000000602082015250565b600061443d602983612b49565b9150614448826143e1565b604082019050919050565b6000602082019050818103600083015261446c81614430565b9050919050565b61447c816130de565b811461448757600080fd5b50565b60008151905061449981614473565b92915050565b6000602082840312156144b5576144b4612abe565b5b60006144c38482850161448a565b91505092915050565b600081905092915050565b60006144e28261312d565b6144ec81856144cc565b93506144fc818560208601612b5a565b80840191505092915050565b600061451482846144d7565b91508190509291505056fea2646970667358221220a2917c9e7a3c81e6645d2aacf45c99a8cdf14087062542309100c91129a0653c64736f6c634300081c0033",
  "linkReferences": {},
  "deployedLinkReferences": {}
}