{
  "_format": "hh-sol-artifact-1",
  "contractName": "DonationsManageContract",
  "sourceName": "contracts/DonationsManageContract.sol",
  "abi": [
    {
      "inputs": [
        {
          "internalType": "address",
          "name": "target",
          "type": "address"
        }
      ],
      "name": "AddressEmptyCode",
      "type": "error"
    },
    {
      "inputs": [
        {
          "internalType": "address",
          "name": "implementation",
          "type": "address"
        }
      ],
      "name": "ERC1967InvalidImplementation",
      "type": "error"
    },
    {
      "inputs": [],
      "name": "ERC1967NonPayable",
      "type": "error"
    },
    {
      "inputs": [],
      "name": "FailedCall",
      "type": "error"
    },
    {
      "inputs": [],
      "name": "InvalidInitialization",
      "type": "error"
    },
    {
      "inputs": [],
      "name": "NotInitializing",
      "type": "error"
    },
    {
      "inputs": [
        {
          "internalType": "address",
          "name": "owner",
          "type": "address"
        }
      ],
      "name": "OwnableInvalidOwner",
      "type": "error"
    },
    {
      "inputs": [
        {
          "internalType": "address",
          "name": "account",
          "type": "address"
        }
      ],
      "name": "OwnableUnauthorizedAccount",
      "type": "error"
    },
    {
      "inputs": [],
      "name": "UUPSUnauthorizedCallContext",
      "type": "error"
    },
    {
      "inputs": [
        {
          "internalType": "bytes32",
          "name": "slot",
          "type": "bytes32"
        }
      ],
      "name": "UUPSUnsupportedProxiableUUID",
      "type": "error"
    },
    {
      "anonymous": false,
      "inputs": [
        {
          "indexed": true,
          "internalType": "uint256",
          "name": "id",
          "type": "uint256"
        },
        {
          "indexed": false,
          "internalType": "address",
          "name": "caller",
          "type": "address"
        },
        {
          "indexed": false,
          "internalType": "uint256",
          "name": "time",
          "type": "uint256"
        }
      ],
      "name": "ActiveCampaign",
      "type": "event"
    },
    {
      "anonymous": false,
      "inputs": [
        {
          "indexed": true,
          "internalType": "uint256",
          "name": "id",
          "type": "uint256"
        },
        {
          "indexed": false,
          "internalType": "address",
          "name": "caller",
          "type": "address"
        },
        {
          "indexed": false,
          "internalType": "uint256",
          "name": "time",
          "type": "uint256"
        }
      ],
      "name": "CancellCampaign",
      "type": "event"
    },
    {
      "anonymous": false,
      "inputs": [
        {
          "indexed": true,
          "internalType": "uint256",
          "name": "id",
          "type": "uint256"
        },
        {
          "indexed": false,
          "internalType": "address",
          "name": "caller",
          "type": "address"
        },
        {
          "indexed": false,
          "internalType": "uint256",
          "name": "time",
          "type": "uint256"
        }
      ],
      "name": "CompletedCampaign",
      "type": "event"
    },
    {
      "anonymous": false,
      "inputs": [
        {
          "indexed": true,
          "internalType": "uint256",
          "name": "id",
          "type": "uint256"
        },
        {
          "indexed": false,
          "internalType": "address",
          "name": "donater",
          "type": "address"
        },
        {
          "indexed": false,
          "internalType": "uint256",
          "name": "amount",
          "type": "uint256"
        }
      ],
      "name": "Donate",
      "type": "event"
    },
    {
      "anonymous": false,
      "inputs": [
        {
          "indexed": false,
          "internalType": "uint64",
          "name": "version",
          "type": "uint64"
        }
      ],
      "name": "Initialized",
      "type": "event"
    },
    {
      "anonymous": false,
      "inputs": [
        {
          "indexed": true,
          "internalType": "address",
          "name": "previousOwner",
          "type": "address"
        },
        {
          "indexed": true,
          "internalType": "address",
          "name": "newOwner",
          "type": "address"
        }
      ],
      "name": "OwnershipTransferred",
      "type": "event"
    },
    {
      "anonymous": false,
      "inputs": [
        {
          "indexed": true,
          "internalType": "uint256",
          "name": "id",
          "type": "uint256"
        },
        {
          "indexed": false,
          "internalType": "address",
          "name": "refunder",
          "type": "address"
        },
        {
          "indexed": false,
          "internalType": "uint256",
          "name": "refundAmount",
          "type": "uint256"
        },
        {
          "indexed": false,
          "internalType": "uint256",
          "name": "time",
          "type": "uint256"
        }
      ],
      "name": "Refund",
      "type": "event"
    },
    {
      "anonymous": false,
      "inputs": [
        {
          "indexed": true,
          "internalType": "uint256",
          "name": "id",
          "type": "uint256"
        },
        {
          "indexed": false,
          "internalType": "address",
          "name": "starter",
          "type": "address"
        },
        {
          "indexed": false,
          "internalType": "string",
          "name": "title",
          "type": "string"
        },
        {
          "indexed": false,
          "internalType": "uint256",
          "name": "goal",
          "type": "uint256"
        },
        {
          "indexed": false,
          "internalType": "uint256",
          "name": "startTime",
          "type": "uint256"
        },
        {
          "indexed": false,
          "internalType": "uint256",
          "name": "endTime",
          "type": "uint256"
        },
        {
          "indexed": false,
          "internalType": "enum DonationsManageContract.CampaignNature",
          "name": "nature",
          "type": "uint8"
        },
        {
          "indexed": false,
          "internalType": "enum DonationsManageContract.Beneficiary",
          "name": "beneficiary",
          "type": "uint8"
        },
        {
          "indexed": false,
          "internalType": "string",
          "name": "purpose",
          "type": "string"
        },
        {
          "indexed": false,
          "internalType": "string",
          "name": "expectedImpact",
          "type": "string"
        },
        {
          "indexed": false,
          "internalType": "enum DonationsManageContract.CampaignStatus",
          "name": "status",
          "type": "uint8"
        }
      ],
      "name": "StartCampaign",
      "type": "event"
    },
    {
      "anonymous": false,
      "inputs": [
        {
          "indexed": true,
          "internalType": "address",
          "name": "implementation",
          "type": "address"
        }
      ],
      "name": "Upgraded",
      "type": "event"
    },
    {
      "anonymous": false,
      "inputs": [
        {
          "indexed": true,
          "internalType": "uint256",
          "name": "id",
          "type": "uint256"
        },
        {
          "indexed": false,
          "internalType": "address",
          "name": "withdrawer",
          "type": "address"
        },
        {
          "indexed": false,
          "internalType": "uint256",
          "name": "withdrawAmount",
          "type": "uint256"
        },
        {
          "indexed": false,
          "internalType": "uint256",
          "name": "time",
          "type": "uint256"
        }
      ],
      "name": "Withdraw",
      "type": "event"
    },
    {
      "inputs": [],
      "name": "UPGRADE_INTERFACE_VERSION",
      "outputs": [
        {
          "internalType": "string",
          "name": "",
          "type": "string"
        }
      ],
      "stateMutability": "view",
      "type": "function"
    },
    {
      "inputs": [
        {
          "internalType": "uint256",
          "name": "_campaignId",
          "type": "uint256"
        }
      ],
      "name": "activeCampaign",
      "outputs": [],
      "stateMutability": "nonpayable",
      "type": "function"
    },
    {
      "inputs": [],
      "name": "campaignCount",
      "outputs": [
        {
          "internalType": "uint256",
          "name": "",
          "type": "uint256"
        }
      ],
      "stateMutability": "view",
      "type": "function"
    },
    {
      "inputs": [
        {
          "internalType": "uint256",
          "name": "",
          "type": "uint256"
        }
      ],
      "name": "campaigns",
      "outputs": [
        {
          "internalType": "string",
          "name": "title",
          "type": "string"
        },
        {
          "internalType": "uint256",
          "name": "goal",
          "type": "uint256"
        },
        {
          "internalType": "uint256",
          "name": "totalDonated",
          "type": "uint256"
        },
        {
          "internalType": "uint256",
          "name": "startTime",
          "type": "uint256"
        },
        {
          "internalType": "uint256",
          "name": "endTime",
          "type": "uint256"
        },
        {
          "internalType": "enum DonationsManageContract.CampaignNature",
          "name": "nature",
          "type": "uint8"
        },
        {
          "internalType": "enum DonationsManageContract.Beneficiary",
          "name": "beneficiary",
          "type": "uint8"
        },
        {
          "internalType": "string",
          "name": "purpose",
          "type": "string"
        },
        {
          "internalType": "string",
          "name": "expectedImpact",
          "type": "string"
        },
        {
          "internalType": "enum DonationsManageContract.CampaignStatus",
          "name": "status",
          "type": "uint8"
        },
        {
          "internalType": "address",
          "name": "starter",
          "type": "address"
        }
      ],
      "stateMutability": "view",
      "type": "function"
    },
    {
      "inputs": [
        {
          "internalType": "uint256",
          "name": "",
          "type": "uint256"
        }
      ],
      "name": "campaignsToCheck",
      "outputs": [
        {
          "internalType": "uint256",
          "name": "",
          "type": "uint256"
        }
      ],
      "stateMutability": "view",
      "type": "function"
    },
    {
      "inputs": [
        {
          "internalType": "uint256",
          "name": "_campaignId",
          "type": "uint256"
        }
      ],
      "name": "cancellCampaign",
      "outputs": [],
      "stateMutability": "nonpayable",
      "type": "function"
    },
    {
      "inputs": [
        {
          "internalType": "bytes",
          "name": "",
          "type": "bytes"
        }
      ],
      "name": "checkUpkeep",
      "outputs": [
        {
          "internalType": "bool",
          "name": "upkeepNeeded",
          "type": "bool"
        },
        {
          "internalType": "bytes",
          "name": "performData",
          "type": "bytes"
        }
      ],
      "stateMutability": "view",
      "type": "function"
    },
    {
      "inputs": [
        {
          "internalType": "uint256",
          "name": "_campaignId",
          "type": "uint256"
        }
      ],
      "name": "completedCampaign",
      "outputs": [],
      "stateMutability": "nonpayable",
      "type": "function"
    },
    {
      "inputs": [
        {
          "internalType": "string",
          "name": "_title",
          "type": "string"
        },
        {
          "internalType": "uint256",
          "name": "_goal",
          "type": "uint256"
        },
        {
          "internalType": "uint256",
          "name": "_startTime",
          "type": "uint256"
        },
        {
          "internalType": "uint256",
          "name": "_endTime",
          "type": "uint256"
        },
        {
          "internalType": "enum DonationsManageContract.CampaignNature",
          "name": "_nature",
          "type": "uint8"
        },
        {
          "internalType": "enum DonationsManageContract.Beneficiary",
          "name": "_beneficiary",
          "type": "uint8"
        },
        {
          "internalType": "string",
          "name": "_purpose",
          "type": "string"
        },
        {
          "internalType": "string",
          "name": "_expectedImpact",
          "type": "string"
        }
      ],
      "name": "createCampaign",
      "outputs": [],
      "stateMutability": "nonpayable",
      "type": "function"
    },
    {
      "inputs": [
        {
          "internalType": "uint256",
          "name": "_campaignId",
          "type": "uint256"
        },
        {
          "internalType": "uint256",
          "name": "_amount",
          "type": "uint256"
        }
      ],
      "name": "donate",
      "outputs": [],
      "stateMutability": "nonpayable",
      "type": "function"
    },
    {
      "inputs": [
        {
          "internalType": "uint256",
          "name": "_campaignId",
          "type": "uint256"
        }
      ],
      "name": "getCampaignDetails",
      "outputs": [
        {
          "internalType": "string",
          "name": "title",
          "type": "string"
        },
        {
          "internalType": "uint256",
          "name": "goal",
          "type": "uint256"
        },
        {
          "internalType": "uint256",
          "name": "totalDonated",
          "type": "uint256"
        },
        {
          "internalType": "uint256",
          "name": "startTime",
          "type": "uint256"
        },
        {
          "internalType": "uint256",
          "name": "endTime",
          "type": "uint256"
        },
        {
          "internalType": "enum DonationsManageContract.CampaignStatus",
          "name": "status",
          "type": "uint8"
        },
        {
          "internalType": "address",
          "name": "starter",
          "type": "address"
        }
      ],
      "stateMutability": "view",
      "type": "function"
    },
    {
      "inputs": [],
      "name": "getVersion",
      "outputs": [
        {
          "internalType": "string",
          "name": "",
          "type": "string"
        }
      ],
      "stateMutability": "pure",
      "type": "function"
    },
    {
      "inputs": [
        {
          "internalType": "address",
          "name": "_token",
          "type": "address"
        },
        {
          "internalType": "address",
          "name": "_nft",
          "type": "address"
        }
      ],
      "name": "initialize",
      "outputs": [],
      "stateMutability": "nonpayable",
      "type": "function"
    },
    {
      "inputs": [],
      "name": "owner",
      "outputs": [
        {
          "internalType": "address",
          "name": "",
          "type": "address"
        }
      ],
      "stateMutability": "view",
      "type": "function"
    },
    {
      "inputs": [
        {
          "internalType": "bytes",
          "name": "performData",
          "type": "bytes"
        }
      ],
      "name": "performUpkeep",
      "outputs": [],
      "stateMutability": "nonpayable",
      "type": "function"
    },
    {
      "inputs": [],
      "name": "proxiableUUID",
      "outputs": [
        {
          "internalType": "bytes32",
          "name": "",
          "type": "bytes32"
        }
      ],
      "stateMutability": "view",
      "type": "function"
    },
    {
      "inputs": [
        {
          "internalType": "uint256",
          "name": "_campaignId",
          "type": "uint256"
        }
      ],
      "name": "refundToken",
      "outputs": [],
      "stateMutability": "nonpayable",
      "type": "function"
    },
    {
      "inputs": [],
      "name": "renounceOwnership",
      "outputs": [],
      "stateMutability": "nonpayable",
      "type": "function"
    },
    {
      "inputs": [
        {
          "internalType": "address",
          "name": "newOwner",
          "type": "address"
        }
      ],
      "name": "transferOwnership",
      "outputs": [],
      "stateMutability": "nonpayable",
      "type": "function"
    },
    {
      "inputs": [
        {
          "internalType": "address",
          "name": "newImplementation",
          "type": "address"
        },
        {
          "internalType": "bytes",
          "name": "data",
          "type": "bytes"
        }
      ],
      "name": "upgradeToAndCall",
      "outputs": [],
      "stateMutability": "payable",
      "type": "function"
    },
    {
      "inputs": [
        {
          "internalType": "uint256",
          "name": "_campaignId",
          "type": "uint256"
        }
      ],
      "name": "withdraw",
      "outputs": [],
      "stateMutability": "nonpayable",
      "type": "function"
    }
  ],
  "bytecode": "0x60a06040523073ffffffffffffffffffffffffffffffffffffffff1660809073ffffffffffffffffffffffffffffffffffffffff16815250348015604257600080fd5b5060805161438861006c600039600081816120dc0152818161213101526122ec01526143886000f3fe60806040526004361061012a5760003560e01c806352d1902d116100ab5780639d1a36911161006f5780639d1a3691146103b2578063ad3cb1cc146103db578063b4e5be2914610406578063be6c81a51461042f578063d993de621461046c578063f2fde38b146104af5761012a565b806352d1902d146102dc5780636e04ff0d14610307578063715018a6146103455780637274e30d1461035c5780638da5cb5b146103875761012a565b80632e1a7d4d116100f25780632e1a7d4d1461021c5780634585e33b14610245578063485cc9551461026e5780634f1ef286146102975780635177af14146102b35761012a565b80630cdd53f61461012f5780630d8e6e2c14610158578063141961bc1461018357806317191704146101ca57806323be7dac146101f3575b600080fd5b34801561013b57600080fd5b5061015660048036038101906101519190612a09565b6104d8565b005b34801561016457600080fd5b5061016d6106ff565b60405161017a9190612ad9565b60405180910390f35b34801561018f57600080fd5b506101aa60048036038101906101a59190612afb565b61073c565b6040516101c19b9a99989796959493929190612c7f565b60405180910390f35b3480156101d657600080fd5b506101f160048036038101906101ec9190612afb565b610975565b005b3480156101ff57600080fd5b5061021a60048036038101906102159190612afb565b610bdc565b005b34801561022857600080fd5b50610243600480360381019061023e9190612afb565b610d89565b005b34801561025157600080fd5b5061026c60048036038101906102679190612da4565b611003565b005b34801561027a57600080fd5b5061029560048036038101906102909190612e1d565b6112d2565b005b6102b160048036038101906102ac9190612f8d565b6114f2565b005b3480156102bf57600080fd5b506102da60048036038101906102d59190612afb565b611511565b005b3480156102e857600080fd5b506102f1611709565b6040516102fe9190613002565b60405180910390f35b34801561031357600080fd5b5061032e60048036038101906103299190612da4565b61173c565b60405161033c92919061308d565b60405180910390f35b34801561035157600080fd5b5061035a61199f565b005b34801561036857600080fd5b506103716119b3565b60405161037e91906130bd565b60405180910390f35b34801561039357600080fd5b5061039c6119b9565b6040516103a991906130d8565b60405180910390f35b3480156103be57600080fd5b506103d960048036038101906103d491906131de565b6119f1565b005b3480156103e757600080fd5b506103f0611ce8565b6040516103fd9190612ad9565b60405180910390f35b34801561041257600080fd5b5061042d60048036038101906104289190612afb565b611d21565b005b34801561043b57600080fd5b5061045660048036038101906104519190612afb565b611ece565b60405161046391906130bd565b60405180910390f35b34801561047857600080fd5b50610493600480360381019061048e9190612afb565b611ef2565b6040516104a697969594939291906132e8565b60405180910390f35b3480156104bb57600080fd5b506104d660048036038101906104d1919061335e565b612006565b005b60006002600084815260200190815260200160002090506001600381111561050357610502612b37565b5b8160090160009054906101000a900460ff16600381111561052757610526612b37565b5b14610567576040517f08c379a000000000000000000000000000000000000000000000000000000000815260040161055e906133fd565b60405180910390fd5b818160080160003373ffffffffffffffffffffffffffffffffffffffff1673ffffffffffffffffffffffffffffffffffffffff16815260200190815260200160002060008282546105b8919061344c565b92505081905550818160020160008282546105d3919061344c565b9250508190555060008060009054906101000a900473ffffffffffffffffffffffffffffffffffffffff1673ffffffffffffffffffffffffffffffffffffffff166323b872dd3330866040518463ffffffff1660e01b815260040161063a93929190613480565b6020604051808303816000875af1158015610659573d6000803e3d6000fd5b505050506040513d601f19601f8201168201806040525081019061067d91906134e3565b9050806106bf576040517f08c379a00000000000000000000000000000000000000000000000000000000081526004016106b69061355c565b60405180910390fd5b837f48def02da8c59b50861e25bab759a8a0c0de6fab6448ef85f32ce59397947d8033856040516106f192919061357c565b60405180910390a250505050565b60606040518060400160405280600581526020017f312e302e30000000000000000000000000000000000000000000000000000000815250905090565b600260205280600052604060002060009150905080600001805461075f906135d4565b80601f016020809104026020016040519081016040528092919081815260200182805461078b906135d4565b80156107d85780601f106107ad576101008083540402835291602001916107d8565b820191906000526020600020905b8154815290600101906020018083116107bb57829003601f168201915b5050505050908060010154908060020154908060030154908060040154908060050160009054906101000a900460ff16908060050160019054906101000a900460ff169080600601805461082b906135d4565b80601f0160208091040260200160405190810160405280929190818152602001828054610857906135d4565b80156108a45780601f10610879576101008083540402835291602001916108a4565b820191906000526020600020905b81548152906001019060200180831161088757829003601f168201915b5050505050908060070180546108b9906135d4565b80601f01602080910402602001604051908101604052809291908181526020018280546108e5906135d4565b80156109325780601f1061090757610100808354040283529160200191610932565b820191906000526020600020905b81548152906001019060200180831161091557829003601f168201915b5050505050908060090160009054906101000a900460ff16908060090160019054906101000a900473ffffffffffffffffffffffffffffffffffffffff1690508b565b600060026000838152602001908152602001600020905060038081111561099f5761099e612b37565b5b8160090160009054906101000a900460ff1660038111156109c3576109c2612b37565b5b14610a03576040517f08c379a00000000000000000000000000000000000000000000000000000000081526004016109fa90613677565b60405180910390fd5b600081600801905060008160003373ffffffffffffffffffffffffffffffffffffffff1673ffffffffffffffffffffffffffffffffffffffff16815260200190815260200160002054905060008114610bd65760008260003373ffffffffffffffffffffffffffffffffffffffff1673ffffffffffffffffffffffffffffffffffffffff1681526020019081526020016000208190555080836002016000828254610aae9190613697565b9250508190555060008060009054906101000a900473ffffffffffffffffffffffffffffffffffffffff1673ffffffffffffffffffffffffffffffffffffffff1663a9059cbb33846040518363ffffffff1660e01b8152600401610b1392919061357c565b6020604051808303816000875af1158015610b32573d6000803e3d6000fd5b505050506040513d601f19601f82011682018060405250810190610b5691906134e3565b905080610b98576040517f08c379a0000000000000000000000000000000000000000000000000000000008152600401610b8f90613717565b60405180910390fd5b847faba4210cad11f1112f31ba136a61cdc0f6ab4c2b478da8c93eec1d9769e97a89338442604051610bcc93929190613737565b60405180910390a2505b50505050565b8060006002600083815260200190815260200160002090508060090160019054906101000a900473ffffffffffffffffffffffffffffffffffffffff1673ffffffffffffffffffffffffffffffffffffffff16610c3761208c565b73ffffffffffffffffffffffffffffffffffffffff1614610c8d576040517f08c379a0000000000000000000000000000000000000000000000000000000008152600401610c84906137ba565b60405180910390fd5b600060026000858152602001908152602001600020905060006003811115610cb857610cb7612b37565b5b8160090160009054906101000a900460ff166003811115610cdc57610cdb612b37565b5b14610d1c576040517f08c379a0000000000000000000000000000000000000000000000000000000008152600401610d139061384c565b60405180910390fd5b60018160090160006101000a81548160ff02191690836003811115610d4457610d43612b37565b5b0217905550837f45e7ca8c14330ef52434b43a323a650db341a2b85a5160f66d892e3a9623c2273342604051610d7b92919061357c565b60405180910390a250505050565b8060006002600083815260200190815260200160002090508060090160019054906101000a900473ffffffffffffffffffffffffffffffffffffffff1673ffffffffffffffffffffffffffffffffffffffff16610de461208c565b73ffffffffffffffffffffffffffffffffffffffff1614610e3a576040517f08c379a0000000000000000000000000000000000000000000000000000000008152600401610e31906137ba565b60405180910390fd5b600060026000858152602001908152602001600020905060026003811115610e6557610e64612b37565b5b8160090160009054906101000a900460ff166003811115610e8957610e88612b37565b5b14610ec9576040517f08c379a0000000000000000000000000000000000000000000000000000000008152600401610ec0906138b8565b60405180910390fd5b6000816002015490506000826002018190555060008060009054906101000a900473ffffffffffffffffffffffffffffffffffffffff1673ffffffffffffffffffffffffffffffffffffffff1663a9059cbb33846040518363ffffffff1660e01b8152600401610f3a92919061357c565b6020604051808303816000875af1158015610f59573d6000803e3d6000fd5b505050506040513d601f19601f82011682018060405250810190610f7d91906134e3565b905080610fbf576040517f08c379a0000000000000000000000000000000000000000000000000000000008152600401610fb690613924565b60405180910390fd5b857fb0ecf14e184effded5473bba77dcfab32b094b77ac1fbb36beec2aef55587970338442604051610ff393929190613737565b60405180910390a2505050505050565b600082828101906110149190613a07565b905060005b81518110156112cc57600082828151811061103757611036613a50565b5b60200260200101519050600060026000838152602001908152602001600020905060038081111561106b5761106a612b37565b5b8160090160009054906101000a900460ff16600381111561108f5761108e612b37565b5b14806110d05750600260038111156110aa576110a9612b37565b5b8160090160009054906101000a900460ff1660038111156110ce576110cd612b37565b5b145b156110dc5750506112bf565b8060030154421180156110f25750806004015442105b801561113357506000600381111561110d5761110c612b37565b5b8160090160009054906101000a900460ff16600381111561113157611130612b37565b5b145b156111a05760018160090160006101000a81548160ff021916908360038111156111605761115f612b37565b5b0217905550817f45e7ca8c14330ef52434b43a323a650db341a2b85a5160f66d892e3a9623c227334260405161119792919061357c565b60405180910390a25b806004015442101580156111bb575080600101548160020154105b1561122e5760038160090160006101000a81548160ff021916908360038111156111e8576111e7612b37565b5b0217905550817f1c37c67694e49ddaa169e8b7f9dafd655ba8cfc26df25bf66ea18d649d5e7096334260405161121f92919061357c565b60405180910390a250506112bf565b80600301544211801561124957508060010154816002015410155b156112bc5760028160090160006101000a81548160ff0219169083600381111561127657611275612b37565b5b0217905550817fcab935963eaa03f3973204c91b5bc658726a1015d91fc361d82f67c40717230033426040516112ad92919061357c565b60405180910390a250506112bf565b50505b8080600101915050611019565b50505050565b60006112dc612094565b905060008160000160089054906101000a900460ff1615905060008260000160009054906101000a900467ffffffffffffffff1690506000808267ffffffffffffffff1614801561132a5750825b9050600060018367ffffffffffffffff1614801561135f575060003073ffffffffffffffffffffffffffffffffffffffff163b145b90508115801561136d575080155b156113a4576040517ff92ee8a900000000000000000000000000000000000000000000000000000000815260040160405180910390fd5b60018560000160006101000a81548167ffffffffffffffff021916908367ffffffffffffffff16021790555083156113f45760018560000160086101000a81548160ff0219169083151502179055505b6114046113ff61208c565b6120bc565b61140c6120d0565b866000806101000a81548173ffffffffffffffffffffffffffffffffffffffff021916908373ffffffffffffffffffffffffffffffffffffffff16021790555085600160006101000a81548173ffffffffffffffffffffffffffffffffffffffff021916908373ffffffffffffffffffffffffffffffffffffffff16021790555083156114e95760008560000160086101000a81548160ff0219169083151502179055507fc7f505b2f371ae2175ee4913f4499e1f2633a7b5936321eed1cdaeb6115181d260016040516114e09190613ad8565b60405180910390a15b50505050505050565b6114fa6120da565b611503826121c0565b61150d82826121cb565b5050565b8060006002600083815260200190815260200160002090508060090160019054906101000a900473ffffffffffffffffffffffffffffffffffffffff1673ffffffffffffffffffffffffffffffffffffffff1661156c61208c565b73ffffffffffffffffffffffffffffffffffffffff16146115c2576040517f08c379a00000000000000000000000000000000000000000000000000000000081526004016115b9906137ba565b60405180910390fd5b6000600260008581526020019081526020016000209050600160038111156115ed576115ec612b37565b5b8160090160009054906101000a900460ff16600381111561161157611610612b37565b5b14611651576040517f08c379a000000000000000000000000000000000000000000000000000000000815260040161164890613b65565b60405180910390fd5b80600101548160020154101561169c576040517f08c379a000000000000000000000000000000000000000000000000000000000815260040161169390613bd1565b60405180910390fd5b60028160090160006101000a81548160ff021916908360038111156116c4576116c3612b37565b5b0217905550837fcab935963eaa03f3973204c91b5bc658726a1015d91fc361d82f67c40717230033426040516116fb92919061357c565b60405180910390a250505050565b60006117136122ea565b7f360894a13ba1a3210667c828492db98dca3e2076cc3735a920a3ca505d382bbc60001b905090565b60006060600091506000600380549050905060008167ffffffffffffffff81111561176a57611769612e62565b5b6040519080825280602002602001820160405280156117985781602001602082028036833780820191505090505b5090506000805b8381101561195b57600060026000600384815481106117c1576117c0613a50565b5b9060005260206000200154815260200190815260200160002090506003808111156117ef576117ee612b37565b5b8160090160009054906101000a900460ff16600381111561181357611812612b37565b5b148061185457506002600381111561182e5761182d612b37565b5b8160090160009054906101000a900460ff16600381111561185257611851612b37565b5b145b1561185f575061194e565b8060030154421180156118755750806004015442105b80156118b65750600060038111156118905761188f612b37565b5b8160090160009054906101000a900460ff1660038111156118b4576118b3612b37565b5b145b806118d857508060030154421180156118d757508060010154816002015410155b5b806118fa5750806004015442101580156118f9575080600101548160020154105b5b1561194c576003828154811061191357611912613a50565b5b906000526020600020015484848151811061193157611930613a50565b5b602002602001018181525050828061194890613bf1565b9350505b505b808060010191505061179f565b50600081111561199557600194506119738282612371565b6040516020016119839190613cf7565b60405160208183030381529060405293505b5050509250929050565b6119a761241d565b6119b160006124a4565b565b60045481565b6000806119c461257b565b90508060000160009054906101000a900473ffffffffffffffffffffffffffffffffffffffff1691505090565b6000885111611a35576040517f08c379a0000000000000000000000000000000000000000000000000000000008152600401611a2c90613d65565b60405180910390fd5b60008711611a78576040517f08c379a0000000000000000000000000000000000000000000000000000000008152600401611a6f90613dd1565b60405180910390fd5b848610611aba576040517f08c379a0000000000000000000000000000000000000000000000000000000008152600401611ab190613e63565b60405180910390fd5b844210611afc576040517f08c379a0000000000000000000000000000000000000000000000000000000008152600401611af390613ecf565b60405180910390fd5b60046000815480929190611b0f90613bf1565b91905055506000600260006004548152602001908152602001600020905088816000019081611b3e9190614091565b50878160010181905550868160030181905550858160040181905550848160050160006101000a81548160ff02191690836004811115611b8157611b80612b37565b5b0217905550838160050160016101000a81548160ff02191690836003811115611bad57611bac612b37565b5b021790555082816006019081611bc39190614091565b5081816007019081611bd59190614091565b50864211611be4576000611be7565b60015b8160090160006101000a81548160ff02191690836003811115611c0d57611c0c612b37565b5b0217905550338160090160016101000a81548173ffffffffffffffffffffffffffffffffffffffff021916908373ffffffffffffffffffffffffffffffffffffffff160217905550600360045490806001815401808255809150506001900390600052602060002001600090919091909150556004547fbe3dd7dc6384f58902a35b3dbc09ad6f5cc91b4499b64a64574f25c4c13cdef6338b8b8b8b8b8b8b8b8b60090160009054906101000a900460ff16604051611cd59a99989796959493929190614163565b60405180910390a2505050505050505050565b6040518060400160405280600581526020017f352e302e3000000000000000000000000000000000000000000000000000000081525081565b8060006002600083815260200190815260200160002090508060090160019054906101000a900473ffffffffffffffffffffffffffffffffffffffff1673ffffffffffffffffffffffffffffffffffffffff16611d7c61208c565b73ffffffffffffffffffffffffffffffffffffffff1614611dd2576040517f08c379a0000000000000000000000000000000000000000000000000000000008152600401611dc9906137ba565b60405180910390fd5b600060026000858152602001908152602001600020905060026003811115611dfd57611dfc612b37565b5b8160090160009054906101000a900460ff166003811115611e2157611e20612b37565b5b03611e61576040517f08c379a0000000000000000000000000000000000000000000000000000000008152600401611e5890614286565b60405180910390fd5b60038160090160006101000a81548160ff02191690836003811115611e8957611e88612b37565b5b0217905550837f1c37c67694e49ddaa169e8b7f9dafd655ba8cfc26df25bf66ea18d649d5e70963342604051611ec092919061357c565b60405180910390a250505050565b60038181548110611ede57600080fd5b906000526020600020016000915090505481565b60606000806000806000806000600260008a81526020019081526020016000209050806000018054611f23906135d4565b80601f0160208091040260200160405190810160405280929190818152602001828054611f4f906135d4565b8015611f9c5780601f10611f7157610100808354040283529160200191611f9c565b820191906000526020600020905b815481529060010190602001808311611f7f57829003601f168201915b50505050509750806001015496508060020154955080600301549450806004015493508060090160009054906101000a900460ff1692508060090160019054906101000a900473ffffffffffffffffffffffffffffffffffffffff16915050919395979092949650565b61200e61241d565b600073ffffffffffffffffffffffffffffffffffffffff168173ffffffffffffffffffffffffffffffffffffffff16036120805760006040517f1e4fbdf700000000000000000000000000000000000000000000000000000000815260040161207791906130d8565b60405180910390fd5b612089816124a4565b50565b600033905090565b60007ff0c57e16840df040f15088dc2f81fe391c3923bec73e23a9662efc9c229c6a00905090565b6120c46125a3565b6120cd816125e3565b50565b6120d86125a3565b565b7f000000000000000000000000000000000000000000000000000000000000000073ffffffffffffffffffffffffffffffffffffffff163073ffffffffffffffffffffffffffffffffffffffff16148061218757507f000000000000000000000000000000000000000000000000000000000000000073ffffffffffffffffffffffffffffffffffffffff1661216e612669565b73ffffffffffffffffffffffffffffffffffffffff1614155b156121be576040517fe07c8dba00000000000000000000000000000000000000000000000000000000815260040160405180910390fd5b565b6121c861241d565b50565b8173ffffffffffffffffffffffffffffffffffffffff166352d1902d6040518163ffffffff1660e01b8152600401602060405180830381865afa92505050801561223357506040513d601f19601f8201168201806040525081019061223091906142d2565b60015b61227457816040517f4c9c8ce300000000000000000000000000000000000000000000000000000000815260040161226b91906130d8565b60405180910390fd5b7f360894a13ba1a3210667c828492db98dca3e2076cc3735a920a3ca505d382bbc60001b81146122db57806040517faa1d49a40000000000000000000000000000000000000000000000000000000081526004016122d29190613002565b60405180910390fd5b6122e583836126c0565b505050565b7f000000000000000000000000000000000000000000000000000000000000000073ffffffffffffffffffffffffffffffffffffffff163073ffffffffffffffffffffffffffffffffffffffff161461236f576040517fe07c8dba00000000000000000000000000000000000000000000000000000000815260040160405180910390fd5b565b606060008267ffffffffffffffff81111561238f5761238e612e62565b5b6040519080825280602002602001820160405280156123bd5781602001602082028036833780820191505090505b50905060005b83811015612412578481815181106123de576123dd613a50565b5b60200260200101518282815181106123f9576123f8613a50565b5b60200260200101818152505080806001019150506123c3565b508091505092915050565b61242561208c565b73ffffffffffffffffffffffffffffffffffffffff166124436119b9565b73ffffffffffffffffffffffffffffffffffffffff16146124a25761246661208c565b6040517f118cdaa700000000000000000000000000000000000000000000000000000000815260040161249991906130d8565b60405180910390fd5b565b60006124ae61257b565b905060008160000160009054906101000a900473ffffffffffffffffffffffffffffffffffffffff169050828260000160006101000a81548173ffffffffffffffffffffffffffffffffffffffff021916908373ffffffffffffffffffffffffffffffffffffffff1602179055508273ffffffffffffffffffffffffffffffffffffffff168173ffffffffffffffffffffffffffffffffffffffff167f8be0079c531659141344cd1fd0a4f28419497f9722a3daafe3b4186f6b6457e060405160405180910390a3505050565b60007f9016d09d72d40fdae2fd8ceac6b6234c7706214fd39c1cd1e609a0528c199300905090565b6125ab612733565b6125e1576040517fd7e6bcf800000000000000000000000000000000000000000000000000000000815260040160405180910390fd5b565b6125eb6125a3565b600073ffffffffffffffffffffffffffffffffffffffff168173ffffffffffffffffffffffffffffffffffffffff160361265d5760006040517f1e4fbdf700000000000000000000000000000000000000000000000000000000815260040161265491906130d8565b60405180910390fd5b612666816124a4565b50565b60006126977f360894a13ba1a3210667c828492db98dca3e2076cc3735a920a3ca505d382bbc60001b612753565b60000160009054906101000a900473ffffffffffffffffffffffffffffffffffffffff16905090565b6126c98261275d565b8173ffffffffffffffffffffffffffffffffffffffff167fbc7cd75a20ee27fd9adebab32041f755214dbc6bffa90cc0225b39da2e5c2d3b60405160405180910390a260008151111561272657612720828261282a565b5061272f565b61272e6128ae565b5b5050565b600061273d612094565b60000160089054906101000a900460ff16905090565b6000819050919050565b60008173ffffffffffffffffffffffffffffffffffffffff163b036127b957806040517f4c9c8ce30000000000000000000000000000000000000000000000000000000081526004016127b091906130d8565b60405180910390fd5b806127e67f360894a13ba1a3210667c828492db98dca3e2076cc3735a920a3ca505d382bbc60001b612753565b60000160006101000a81548173ffffffffffffffffffffffffffffffffffffffff021916908373ffffffffffffffffffffffffffffffffffffffff16021790555050565b60606000808473ffffffffffffffffffffffffffffffffffffffff1684604051612854919061433b565b600060405180830381855af49150503d806000811461288f576040519150601f19603f3d011682016040523d82523d6000602084013e612894565b606091505b50915091506128a48583836128eb565b9250505092915050565b60003411156128e9576040517fb398979f00000000000000000000000000000000000000000000000000000000815260040160405180910390fd5b565b606082612900576128fb8261297a565b612972565b60008251148015612928575060008473ffffffffffffffffffffffffffffffffffffffff163b145b1561296a57836040517f9996b31500000000000000000000000000000000000000000000000000000000815260040161296191906130d8565b60405180910390fd5b819050612973565b5b9392505050565b60008151111561298d5780518082602001fd5b6040517fd6bda27500000000000000000000000000000000000000000000000000000000815260040160405180910390fd5b6000604051905090565b600080fd5b600080fd5b6000819050919050565b6129e6816129d3565b81146129f157600080fd5b50565b600081359050612a03816129dd565b92915050565b60008060408385031215612a2057612a1f6129c9565b5b6000612a2e858286016129f4565b9250506020612a3f858286016129f4565b9150509250929050565b600081519050919050565b600082825260208201905092915050565b60005b83811015612a83578082015181840152602081019050612a68565b60008484015250505050565b6000601f19601f8301169050919050565b6000612aab82612a49565b612ab58185612a54565b9350612ac5818560208601612a65565b612ace81612a8f565b840191505092915050565b60006020820190508181036000830152612af38184612aa0565b905092915050565b600060208284031215612b1157612b106129c9565b5b6000612b1f848285016129f4565b91505092915050565b612b31816129d3565b82525050565b7f4e487b7100000000000000000000000000000000000000000000000000000000600052602160045260246000fd5b60058110612b7757612b76612b37565b5b50565b6000819050612b8882612b66565b919050565b6000612b9882612b7a565b9050919050565b612ba881612b8d565b82525050565b60048110612bbf57612bbe612b37565b5b50565b6000819050612bd082612bae565b919050565b6000612be082612bc2565b9050919050565b612bf081612bd5565b82525050565b60048110612c0757612c06612b37565b5b50565b6000819050612c1882612bf6565b919050565b6000612c2882612c0a565b9050919050565b612c3881612c1d565b82525050565b600073ffffffffffffffffffffffffffffffffffffffff82169050919050565b6000612c6982612c3e565b9050919050565b612c7981612c5e565b82525050565b6000610160820190508181036000830152612c9a818e612aa0565b9050612ca9602083018d612b28565b612cb6604083018c612b28565b612cc3606083018b612b28565b612cd0608083018a612b28565b612cdd60a0830189612b9f565b612cea60c0830188612be7565b81810360e0830152612cfc8187612aa0565b9050818103610100830152612d118186612aa0565b9050612d21610120830185612c2f565b612d2f610140830184612c70565b9c9b505050505050505050505050565b600080fd5b600080fd5b600080fd5b60008083601f840112612d6457612d63612d3f565b5b8235905067ffffffffffffffff811115612d8157612d80612d44565b5b602083019150836001820283011115612d9d57612d9c612d49565b5b9250929050565b60008060208385031215612dbb57612dba6129c9565b5b600083013567ffffffffffffffff811115612dd957612dd86129ce565b5b612de585828601612d4e565b92509250509250929050565b612dfa81612c5e565b8114612e0557600080fd5b50565b600081359050612e1781612df1565b92915050565b60008060408385031215612e3457612e336129c9565b5b6000612e4285828601612e08565b9250506020612e5385828601612e08565b9150509250929050565b600080fd5b7f4e487b7100000000000000000000000000000000000000000000000000000000600052604160045260246000fd5b612e9a82612a8f565b810181811067ffffffffffffffff82111715612eb957612eb8612e62565b5b80604052505050565b6000612ecc6129bf565b9050612ed88282612e91565b919050565b600067ffffffffffffffff821115612ef857612ef7612e62565b5b612f0182612a8f565b9050602081019050919050565b82818337600083830152505050565b6000612f30612f2b84612edd565b612ec2565b905082815260208101848484011115612f4c57612f4b612e5d565b5b612f57848285612f0e565b509392505050565b600082601f830112612f7457612f73612d3f565b5b8135612f84848260208601612f1d565b91505092915050565b60008060408385031215612fa457612fa36129c9565b5b6000612fb285828601612e08565b925050602083013567ffffffffffffffff811115612fd357612fd26129ce565b5b612fdf85828601612f5f565b9150509250929050565b6000819050919050565b612ffc81612fe9565b82525050565b60006020820190506130176000830184612ff3565b92915050565b60008115159050919050565b6130328161301d565b82525050565b600081519050919050565b600082825260208201905092915050565b600061305f82613038565b6130698185613043565b9350613079818560208601612a65565b61308281612a8f565b840191505092915050565b60006040820190506130a26000830185613029565b81810360208301526130b48184613054565b90509392505050565b60006020820190506130d26000830184612b28565b92915050565b60006020820190506130ed6000830184612c70565b92915050565b600067ffffffffffffffff82111561310e5761310d612e62565b5b61311782612a8f565b9050602081019050919050565b6000613137613132846130f3565b612ec2565b90508281526020810184848401111561315357613152612e5d565b5b61315e848285612f0e565b509392505050565b600082601f83011261317b5761317a612d3f565b5b813561318b848260208601613124565b91505092915050565b600581106131a157600080fd5b50565b6000813590506131b381613194565b92915050565b600481106131c657600080fd5b50565b6000813590506131d8816131b9565b92915050565b600080600080600080600080610100898b0312156131ff576131fe6129c9565b5b600089013567ffffffffffffffff81111561321d5761321c6129ce565b5b6132298b828c01613166565b985050602061323a8b828c016129f4565b975050604061324b8b828c016129f4565b965050606061325c8b828c016129f4565b955050608061326d8b828c016131a4565b94505060a061327e8b828c016131c9565b93505060c089013567ffffffffffffffff81111561329f5761329e6129ce565b5b6132ab8b828c01613166565b92505060e089013567ffffffffffffffff8111156132cc576132cb6129ce565b5b6132d88b828c01613166565b9150509295985092959890939650565b600060e0820190508181036000830152613302818a612aa0565b90506133116020830189612b28565b61331e6040830188612b28565b61332b6060830187612b28565b6133386080830186612b28565b61334560a0830185612c2f565b61335260c0830184612c70565b98975050505050505050565b600060208284031215613374576133736129c9565b5b600061338284828501612e08565b91505092915050565b7f7468652063616d706169676e206973206e6f74207374617274206f7220656e6460008201527f6564000000000000000000000000000000000000000000000000000000000000602082015250565b60006133e7602283612a54565b91506133f28261338b565b604082019050919050565b60006020820190508181036000830152613416816133da565b9050919050565b7f4e487b7100000000000000000000000000000000000000000000000000000000600052601160045260246000fd5b6000613457826129d3565b9150613462836129d3565b925082820190508082111561347a5761347961341d565b5b92915050565b60006060820190506134956000830186612c70565b6134a26020830185612c70565b6134af6040830184612b28565b949350505050565b6134c08161301d565b81146134cb57600080fd5b50565b6000815190506134dd816134b7565b92915050565b6000602082840312156134f9576134f86129c9565b5b6000613507848285016134ce565b91505092915050565b7f646f6e617465207472616e73666572206661696c000000000000000000000000600082015250565b6000613546601483612a54565b915061355182613510565b602082019050919050565b6000602082019050818103600083015261357581613539565b9050919050565b60006040820190506135916000830185612c70565b61359e6020830184612b28565b9392505050565b7f4e487b7100000000000000000000000000000000000000000000000000000000600052602260045260246000fd5b600060028204905060018216806135ec57607f821691505b6020821081036135ff576135fe6135a5565b5b50919050565b7f63616d7061696e206e6f742063616e63656c6c65642c63616e206e6f7420726560008201527f66756e6400000000000000000000000000000000000000000000000000000000602082015250565b6000613661602483612a54565b915061366c82613605565b604082019050919050565b6000602082019050818103600083015261369081613654565b9050919050565b60006136a2826129d3565b91506136ad836129d3565b92508282039050818111156136c5576136c461341d565b5b92915050565b7f726566756e64207472616e73666572206661696c656400000000000000000000600082015250565b6000613701601683612a54565b915061370c826136cb565b602082019050919050565b60006020820190508181036000830152613730816136f4565b9050919050565b600060608201905061374c6000830186612c70565b6137596020830185612b28565b6137666040830184612b28565b949350505050565b7f6e6f742073746172746572000000000000000000000000000000000000000000600082015250565b60006137a4600b83612a54565b91506137af8261376e565b602082019050919050565b600060208201905081810360008301526137d381613797565b9050919050565b7f7468652063616d706169676e206973206e6f742070656e64696e672c63616e2060008201527f6e6f742061637469766500000000000000000000000000000000000000000000602082015250565b6000613836602a83612a54565b9150613841826137da565b604082019050919050565b6000602082019050818103600083015261386581613829565b9050919050565b7f7468652063616d706169676e206973206e6f7420436f6d706c65746564000000600082015250565b60006138a2601d83612a54565b91506138ad8261386c565b602082019050919050565b600060208201905081810360008301526138d181613895565b9050919050565b7f7769746864726177207472616e73666572206661696c65640000000000000000600082015250565b600061390e601883612a54565b9150613919826138d8565b602082019050919050565b6000602082019050818103600083015261393d81613901565b9050919050565b600067ffffffffffffffff82111561395f5761395e612e62565b5b602082029050602081019050919050565b600061398361397e84613944565b612ec2565b905080838252602082019050602084028301858111156139a6576139a5612d49565b5b835b818110156139cf57806139bb88826129f4565b8452602084019350506020810190506139a8565b5050509392505050565b600082601f8301126139ee576139ed612d3f565b5b81356139fe848260208601613970565b91505092915050565b600060208284031215613a1d57613a1c6129c9565b5b600082013567ffffffffffffffff811115613a3b57613a3a6129ce565b5b613a47848285016139d9565b91505092915050565b7f4e487b7100000000000000000000000000000000000000000000000000000000600052603260045260246000fd5b6000819050919050565b600067ffffffffffffffff82169050919050565b6000819050919050565b6000613ac2613abd613ab884613a7f565b613a9d565b613a89565b9050919050565b613ad281613aa7565b82525050565b6000602082019050613aed6000830184613ac9565b92915050565b7f7468652063616d706169676e206973206e6f7420616374697665202c63616e2060008201527f6e6f7420636f6d706c6574656400000000000000000000000000000000000000602082015250565b6000613b4f602d83612a54565b9150613b5a82613af3565b604082019050919050565b60006020820190508181036000830152613b7e81613b42565b9050919050565b7f676f616c206973206e6f74207265616368000000000000000000000000000000600082015250565b6000613bbb601183612a54565b9150613bc682613b85565b602082019050919050565b60006020820190508181036000830152613bea81613bae565b9050919050565b6000613bfc826129d3565b91507fffffffffffffffffffffffffffffffffffffffffffffffffffffffffffffffff8203613c2e57613c2d61341d565b5b600182019050919050565b600081519050919050565b600082825260208201905092915050565b6000819050602082019050919050565b613c6e816129d3565b82525050565b6000613c808383613c65565b60208301905092915050565b6000602082019050919050565b6000613ca482613c39565b613cae8185613c44565b9350613cb983613c55565b8060005b83811015613cea578151613cd18882613c74565b9750613cdc83613c8c565b925050600181019050613cbd565b5085935050505092915050565b60006020820190508181036000830152613d118184613c99565b905092915050565b7f5469746c652063616e6e6f7420626520656d7074790000000000000000000000600082015250565b6000613d4f601583612a54565b9150613d5a82613d19565b602082019050919050565b60006020820190508181036000830152613d7e81613d42565b9050919050565b7f496e76616c696420676f616c0000000000000000000000000000000000000000600082015250565b6000613dbb600c83612a54565b9150613dc682613d85565b602082019050919050565b60006020820190508181036000830152613dea81613dae565b9050919050565b7f5f737461727454696d65206973206c61746572207468616e205f656e6454696d60008201527f6500000000000000000000000000000000000000000000000000000000000000602082015250565b6000613e4d602183612a54565b9150613e5882613df1565b604082019050919050565b60006020820190508181036000830152613e7c81613e40565b9050919050565b7f496e76616c696420656e6454696d650000000000000000000000000000000000600082015250565b6000613eb9600f83612a54565b9150613ec482613e83565b602082019050919050565b60006020820190508181036000830152613ee881613eac565b9050919050565b60008190508160005260206000209050919050565b60006020601f8301049050919050565b600082821b905092915050565b600060088302613f517fffffffffffffffffffffffffffffffffffffffffffffffffffffffffffffffff82613f14565b613f5b8683613f14565b95508019841693508086168417925050509392505050565b6000613f8e613f89613f84846129d3565b613a9d565b6129d3565b9050919050565b6000819050919050565b613fa883613f73565b613fbc613fb482613f95565b848454613f21565b825550505050565b600090565b613fd1613fc4565b613fdc818484613f9f565b505050565b5b8181101561400057613ff5600082613fc9565b600181019050613fe2565b5050565b601f8211156140455761401681613eef565b61401f84613f04565b8101602085101561402e578190505b61404261403a85613f04565b830182613fe1565b50505b505050565b600082821c905092915050565b60006140686000198460080261404a565b1980831691505092915050565b60006140818383614057565b9150826002028217905092915050565b61409a82612a49565b67ffffffffffffffff8111156140b3576140b2612e62565b5b6140bd82546135d4565b6140c8828285614004565b600060209050601f8311600181146140fb57600084156140e9578287015190505b6140f38582614075565b86555061415b565b601f19841661410986613eef565b60005b828110156141315784890151825560018201915060208501945060208101905061410c565b8683101561414e578489015161414a601f891682614057565b8355505b6001600288020188555050505b505050505050565b600061014082019050614179600083018d612c70565b818103602083015261418b818c612aa0565b905061419a604083018b612b28565b6141a7606083018a612b28565b6141b46080830189612b28565b6141c160a0830188612b9f565b6141ce60c0830187612be7565b81810360e08301526141e08186612aa0565b90508181036101008301526141f58185612aa0565b9050614205610120830184612c2f565b9b9a5050505050505050505050565b7f7468652063616d706169676e20697320636f6d706c657465642c63616e206e6f60008201527f742063616e63656c6c0000000000000000000000000000000000000000000000602082015250565b6000614270602983612a54565b915061427b82614214565b604082019050919050565b6000602082019050818103600083015261429f81614263565b9050919050565b6142af81612fe9565b81146142ba57600080fd5b50565b6000815190506142cc816142a6565b92915050565b6000602082840312156142e8576142e76129c9565b5b60006142f6848285016142bd565b91505092915050565b600081905092915050565b600061431582613038565b61431f81856142ff565b935061432f818560208601612a65565b80840191505092915050565b6000614347828461430a565b91508190509291505056fea2646970667358221220839de844de77e8a17d2ac69986fb135777ff7bfdeaf66a02fed6d1ac57cc673564736f6c634300081c0033",
  "linkReferences": {},
  "deployedLinkReferences": {}
}