{
  "_format": "hh-sol-artifact-1",
  "contractName": "DonationsManageContract",
  "sourceName": "contracts/DonationsManageContract.sol",
  "abi": [
    {
      "inputs": [
        {
          "internalType": "address",
          "name": "_token",
          "type": "address"
        },
        {
          "internalType": "address",
          "name": "_nft",
          "type": "address"
        }
      ],
      "stateMutability": "nonpayable",
      "type": "constructor"
    },
    {
      "anonymous": false,
      "inputs": [
        {
          "indexed": true,
          "internalType": "uint256",
          "name": "id",
          "type": "uint256"
        },
        {
          "indexed": false,
          "internalType": "address",
          "name": "caller",
          "type": "address"
        },
        {
          "indexed": false,
          "internalType": "uint256",
          "name": "time",
          "type": "uint256"
        }
      ],
      "name": "ActiveCampaign",
      "type": "event"
    },
    {
      "anonymous": false,
      "inputs": [
        {
          "indexed": true,
          "internalType": "uint256",
          "name": "id",
          "type": "uint256"
        },
        {
          "indexed": false,
          "internalType": "address",
          "name": "caller",
          "type": "address"
        },
        {
          "indexed": false,
          "internalType": "uint256",
          "name": "time",
          "type": "uint256"
        }
      ],
      "name": "CancellCampaign",
      "type": "event"
    },
    {
      "anonymous": false,
      "inputs": [
        {
          "indexed": true,
          "internalType": "uint256",
          "name": "id",
          "type": "uint256"
        },
        {
          "indexed": false,
          "internalType": "address",
          "name": "caller",
          "type": "address"
        },
        {
          "indexed": false,
          "internalType": "uint256",
          "name": "time",
          "type": "uint256"
        }
      ],
      "name": "CompletedCampaign",
      "type": "event"
    },
    {
      "anonymous": false,
      "inputs": [
        {
          "indexed": true,
          "internalType": "uint256",
          "name": "id",
          "type": "uint256"
        },
        {
          "indexed": false,
          "internalType": "address",
          "name": "donater",
          "type": "address"
        },
        {
          "indexed": false,
          "internalType": "uint256",
          "name": "amount",
          "type": "uint256"
        }
      ],
      "name": "Donate",
      "type": "event"
    },
    {
      "anonymous": false,
      "inputs": [
        {
          "indexed": true,
          "internalType": "uint256",
          "name": "id",
          "type": "uint256"
        },
        {
          "indexed": false,
          "internalType": "address",
          "name": "refunder",
          "type": "address"
        },
        {
          "indexed": false,
          "internalType": "uint256",
          "name": "refundAmount",
          "type": "uint256"
        },
        {
          "indexed": false,
          "internalType": "uint256",
          "name": "time",
          "type": "uint256"
        }
      ],
      "name": "Refund",
      "type": "event"
    },
    {
      "anonymous": false,
      "inputs": [
        {
          "indexed": true,
          "internalType": "uint256",
          "name": "id",
          "type": "uint256"
        },
        {
          "indexed": false,
          "internalType": "address",
          "name": "starter",
          "type": "address"
        },
        {
          "indexed": false,
          "internalType": "string",
          "name": "title",
          "type": "string"
        },
        {
          "indexed": false,
          "internalType": "uint256",
          "name": "goal",
          "type": "uint256"
        },
        {
          "indexed": false,
          "internalType": "uint256",
          "name": "startTime",
          "type": "uint256"
        },
        {
          "indexed": false,
          "internalType": "uint256",
          "name": "endTime",
          "type": "uint256"
        },
        {
          "indexed": false,
          "internalType": "enum DonationsManageContract.CampaignNature",
          "name": "nature",
          "type": "uint8"
        },
        {
          "indexed": false,
          "internalType": "enum DonationsManageContract.Beneficiary",
          "name": "beneficiary",
          "type": "uint8"
        },
        {
          "indexed": false,
          "internalType": "string",
          "name": "purpose",
          "type": "string"
        },
        {
          "indexed": false,
          "internalType": "string",
          "name": "expectedImpact",
          "type": "string"
        },
        {
          "indexed": false,
          "internalType": "enum DonationsManageContract.CampaignStatus",
          "name": "status",
          "type": "uint8"
        }
      ],
      "name": "StartCampaign",
      "type": "event"
    },
    {
      "anonymous": false,
      "inputs": [
        {
          "indexed": true,
          "internalType": "uint256",
          "name": "id",
          "type": "uint256"
        },
        {
          "indexed": false,
          "internalType": "address",
          "name": "withdrawer",
          "type": "address"
        },
        {
          "indexed": false,
          "internalType": "uint256",
          "name": "withdrawAmount",
          "type": "uint256"
        },
        {
          "indexed": false,
          "internalType": "uint256",
          "name": "time",
          "type": "uint256"
        }
      ],
      "name": "Withdraw",
      "type": "event"
    },
    {
      "inputs": [
        {
          "internalType": "uint256",
          "name": "_campaignId",
          "type": "uint256"
        }
      ],
      "name": "activeCampaign",
      "outputs": [],
      "stateMutability": "nonpayable",
      "type": "function"
    },
    {
      "inputs": [],
      "name": "campaignCount",
      "outputs": [
        {
          "internalType": "uint256",
          "name": "",
          "type": "uint256"
        }
      ],
      "stateMutability": "view",
      "type": "function"
    },
    {
      "inputs": [
        {
          "internalType": "uint256",
          "name": "",
          "type": "uint256"
        }
      ],
      "name": "campaigns",
      "outputs": [
        {
          "internalType": "string",
          "name": "title",
          "type": "string"
        },
        {
          "internalType": "uint256",
          "name": "goal",
          "type": "uint256"
        },
        {
          "internalType": "uint256",
          "name": "totalDonated",
          "type": "uint256"
        },
        {
          "internalType": "uint256",
          "name": "startTime",
          "type": "uint256"
        },
        {
          "internalType": "uint256",
          "name": "endTime",
          "type": "uint256"
        },
        {
          "internalType": "enum DonationsManageContract.CampaignNature",
          "name": "nature",
          "type": "uint8"
        },
        {
          "internalType": "enum DonationsManageContract.Beneficiary",
          "name": "beneficiary",
          "type": "uint8"
        },
        {
          "internalType": "string",
          "name": "purpose",
          "type": "string"
        },
        {
          "internalType": "string",
          "name": "expectedImpact",
          "type": "string"
        },
        {
          "internalType": "enum DonationsManageContract.CampaignStatus",
          "name": "status",
          "type": "uint8"
        },
        {
          "internalType": "address",
          "name": "starter",
          "type": "address"
        }
      ],
      "stateMutability": "view",
      "type": "function"
    },
    {
      "inputs": [
        {
          "internalType": "uint256",
          "name": "",
          "type": "uint256"
        }
      ],
      "name": "campaignsToCheck",
      "outputs": [
        {
          "internalType": "uint256",
          "name": "",
          "type": "uint256"
        }
      ],
      "stateMutability": "view",
      "type": "function"
    },
    {
      "inputs": [
        {
          "internalType": "uint256",
          "name": "_campaignId",
          "type": "uint256"
        }
      ],
      "name": "cancellCampaign",
      "outputs": [],
      "stateMutability": "nonpayable",
      "type": "function"
    },
    {
      "inputs": [
        {
          "internalType": "bytes",
          "name": "",
          "type": "bytes"
        }
      ],
      "name": "checkUpkeep",
      "outputs": [
        {
          "internalType": "bool",
          "name": "upkeepNeeded",
          "type": "bool"
        },
        {
          "internalType": "bytes",
          "name": "performData",
          "type": "bytes"
        }
      ],
      "stateMutability": "view",
      "type": "function"
    },
    {
      "inputs": [
        {
          "internalType": "uint256",
          "name": "_campaignId",
          "type": "uint256"
        }
      ],
      "name": "completedCampaign",
      "outputs": [],
      "stateMutability": "nonpayable",
      "type": "function"
    },
    {
      "inputs": [
        {
          "internalType": "string",
          "name": "_title",
          "type": "string"
        },
        {
          "internalType": "uint256",
          "name": "_goal",
          "type": "uint256"
        },
        {
          "internalType": "uint256",
          "name": "_startTime",
          "type": "uint256"
        },
        {
          "internalType": "uint256",
          "name": "_endTime",
          "type": "uint256"
        },
        {
          "internalType": "enum DonationsManageContract.CampaignNature",
          "name": "_nature",
          "type": "uint8"
        },
        {
          "internalType": "enum DonationsManageContract.Beneficiary",
          "name": "_beneficiary",
          "type": "uint8"
        },
        {
          "internalType": "string",
          "name": "_purpose",
          "type": "string"
        },
        {
          "internalType": "string",
          "name": "_expectedImpact",
          "type": "string"
        }
      ],
      "name": "createCampaign",
      "outputs": [],
      "stateMutability": "nonpayable",
      "type": "function"
    },
    {
      "inputs": [
        {
          "internalType": "uint256",
          "name": "_campaignId",
          "type": "uint256"
        },
        {
          "internalType": "uint256",
          "name": "_amount",
          "type": "uint256"
        }
      ],
      "name": "donate",
      "outputs": [],
      "stateMutability": "nonpayable",
      "type": "function"
    },
    {
      "inputs": [
        {
          "internalType": "uint256",
          "name": "_campaignId",
          "type": "uint256"
        }
      ],
      "name": "getCampaignDetails",
      "outputs": [
        {
          "internalType": "string",
          "name": "title",
          "type": "string"
        },
        {
          "internalType": "uint256",
          "name": "goal",
          "type": "uint256"
        },
        {
          "internalType": "uint256",
          "name": "totalDonated",
          "type": "uint256"
        },
        {
          "internalType": "uint256",
          "name": "startTime",
          "type": "uint256"
        },
        {
          "internalType": "uint256",
          "name": "endTime",
          "type": "uint256"
        },
        {
          "internalType": "enum DonationsManageContract.CampaignStatus",
          "name": "status",
          "type": "uint8"
        },
        {
          "internalType": "address",
          "name": "starter",
          "type": "address"
        }
      ],
      "stateMutability": "view",
      "type": "function"
    },
    {
      "inputs": [],
      "name": "owner",
      "outputs": [
        {
          "internalType": "address",
          "name": "",
          "type": "address"
        }
      ],
      "stateMutability": "view",
      "type": "function"
    },
    {
      "inputs": [
        {
          "internalType": "bytes",
          "name": "performData",
          "type": "bytes"
        }
      ],
      "name": "performUpkeep",
      "outputs": [],
      "stateMutability": "nonpayable",
      "type": "function"
    },
    {
      "inputs": [
        {
          "internalType": "uint256",
          "name": "_campaignId",
          "type": "uint256"
        }
      ],
      "name": "refundToken",
      "outputs": [],
      "stateMutability": "nonpayable",
      "type": "function"
    },
    {
      "inputs": [
        {
          "internalType": "uint256",
          "name": "_campaignId",
          "type": "uint256"
        }
      ],
      "name": "withdraw",
      "outputs": [],
      "stateMutability": "nonpayable",
      "type": "function"
    }
  ],
  "bytecode": "0x608060405234801561001057600080fd5b506040516133c13803806133c18339818101604052810190610032919061011e565b81600160006101000a81548173ffffffffffffffffffffffffffffffffffffffff021916908373ffffffffffffffffffffffffffffffffffffffff16021790555080600260006101000a81548173ffffffffffffffffffffffffffffffffffffffff021916908373ffffffffffffffffffffffffffffffffffffffff160217905550505061015e565b600080fd5b600073ffffffffffffffffffffffffffffffffffffffff82169050919050565b60006100eb826100c0565b9050919050565b6100fb816100e0565b811461010657600080fd5b50565b600081519050610118816100f2565b92915050565b60008060408385031215610135576101346100bb565b5b600061014385828601610109565b925050602061015485828601610109565b9150509250929050565b6132548061016d6000396000f3fe608060405234801561001057600080fd5b50600436106100ea5760003560e01c80636e04ff0d1161008c5780639d1a3691116100665780639d1a36911461023e578063b4e5be291461025a578063be6c81a514610276578063d993de62146102a6576100ea565b80636e04ff0d146101d15780637274e30d146102025780638da5cb5b14610220576100ea565b806323be7dac116100c857806323be7dac146101615780632e1a7d4d1461017d5780634585e33b146101995780635177af14146101b5576100ea565b80630cdd53f6146100ef578063141961bc1461010b5780631719170414610145575b600080fd5b61010960048036038101906101049190611bd7565b6102dc565b005b61012560048036038101906101209190611c17565b610504565b60405161013c9b9a99989796959493929190611e2b565b60405180910390f35b61015f600480360381019061015a9190611c17565b61073d565b005b61017b60048036038101906101769190611c17565b6109a5565b005b61019760048036038101906101929190611c17565b610b4b565b005b6101b360048036038101906101ae9190611f50565b610dbf565b005b6101cf60048036038101906101ca9190611c17565b61108e565b005b6101eb60048036038101906101e69190611f50565b61127f565b6040516101f992919061200d565b60405180910390f35b61020a6114e2565b604051610217919061203d565b60405180910390f35b6102286114e8565b6040516102359190612058565b60405180910390f35b610258600480360381019061025391906121ed565b61150c565b005b610274600480360381019061026f9190611c17565b611803565b005b610290600480360381019061028b9190611c17565b6119a9565b60405161029d919061203d565b60405180910390f35b6102c060048036038101906102bb9190611c17565b6119cd565b6040516102d397969594939291906122f7565b60405180910390f35b60006003600084815260200190815260200160002090506001600381111561030757610306611ce3565b5b8160090160009054906101000a900460ff16600381111561032b5761032a611ce3565b5b1461036b576040517f08c379a0000000000000000000000000000000000000000000000000000000008152600401610362906123df565b60405180910390fd5b818160080160003373ffffffffffffffffffffffffffffffffffffffff1673ffffffffffffffffffffffffffffffffffffffff16815260200190815260200160002060008282546103bc919061242e565b92505081905550818160020160008282546103d7919061242e565b925050819055506000600160009054906101000a900473ffffffffffffffffffffffffffffffffffffffff1673ffffffffffffffffffffffffffffffffffffffff166323b872dd3330866040518463ffffffff1660e01b815260040161043f93929190612462565b6020604051808303816000875af115801561045e573d6000803e3d6000fd5b505050506040513d601f19601f8201168201806040525081019061048291906124c5565b9050806104c4576040517f08c379a00000000000000000000000000000000000000000000000000000000081526004016104bb9061253e565b60405180910390fd5b837f48def02da8c59b50861e25bab759a8a0c0de6fab6448ef85f32ce59397947d8033856040516104f692919061255e565b60405180910390a250505050565b6003602052806000526040600020600091509050806000018054610527906125b6565b80601f0160208091040260200160405190810160405280929190818152602001828054610553906125b6565b80156105a05780601f10610575576101008083540402835291602001916105a0565b820191906000526020600020905b81548152906001019060200180831161058357829003601f168201915b5050505050908060010154908060020154908060030154908060040154908060050160009054906101000a900460ff16908060050160019054906101000a900460ff16908060060180546105f3906125b6565b80601f016020809104026020016040519081016040528092919081815260200182805461061f906125b6565b801561066c5780601f106106415761010080835404028352916020019161066c565b820191906000526020600020905b81548152906001019060200180831161064f57829003601f168201915b505050505090806007018054610681906125b6565b80601f01602080910402602001604051908101604052809291908181526020018280546106ad906125b6565b80156106fa5780601f106106cf576101008083540402835291602001916106fa565b820191906000526020600020905b8154815290600101906020018083116106dd57829003601f168201915b5050505050908060090160009054906101000a900460ff16908060090160019054906101000a900473ffffffffffffffffffffffffffffffffffffffff1690508b565b600060036000838152602001908152602001600020905060038081111561076757610766611ce3565b5b8160090160009054906101000a900460ff16600381111561078b5761078a611ce3565b5b146107cb576040517f08c379a00000000000000000000000000000000000000000000000000000000081526004016107c290612659565b60405180910390fd5b600081600801905060008160003373ffffffffffffffffffffffffffffffffffffffff1673ffffffffffffffffffffffffffffffffffffffff1681526020019081526020016000205490506000811461099f5760008260003373ffffffffffffffffffffffffffffffffffffffff1673ffffffffffffffffffffffffffffffffffffffff16815260200190815260200160002081905550808360020160008282546108769190612679565b925050819055506000600160009054906101000a900473ffffffffffffffffffffffffffffffffffffffff1673ffffffffffffffffffffffffffffffffffffffff1663a9059cbb33846040518363ffffffff1660e01b81526004016108dc92919061255e565b6020604051808303816000875af11580156108fb573d6000803e3d6000fd5b505050506040513d601f19601f8201168201806040525081019061091f91906124c5565b905080610961576040517f08c379a0000000000000000000000000000000000000000000000000000000008152600401610958906126f9565b60405180910390fd5b847faba4210cad11f1112f31ba136a61cdc0f6ab4c2b478da8c93eec1d9769e97a8933844260405161099593929190612719565b60405180910390a2505b50505050565b8060006003600083815260200190815260200160002090508060090160019054906101000a900473ffffffffffffffffffffffffffffffffffffffff1673ffffffffffffffffffffffffffffffffffffffff163373ffffffffffffffffffffffffffffffffffffffff1614610a4f576040517f08c379a0000000000000000000000000000000000000000000000000000000008152600401610a469061279c565b60405180910390fd5b600060036000858152602001908152602001600020905060006003811115610a7a57610a79611ce3565b5b8160090160009054906101000a900460ff166003811115610a9e57610a9d611ce3565b5b14610ade576040517f08c379a0000000000000000000000000000000000000000000000000000000008152600401610ad59061282e565b60405180910390fd5b60018160090160006101000a81548160ff02191690836003811115610b0657610b05611ce3565b5b0217905550837f45e7ca8c14330ef52434b43a323a650db341a2b85a5160f66d892e3a9623c2273342604051610b3d92919061255e565b60405180910390a250505050565b8060006003600083815260200190815260200160002090508060090160019054906101000a900473ffffffffffffffffffffffffffffffffffffffff1673ffffffffffffffffffffffffffffffffffffffff163373ffffffffffffffffffffffffffffffffffffffff1614610bf5576040517f08c379a0000000000000000000000000000000000000000000000000000000008152600401610bec9061279c565b60405180910390fd5b600060036000858152602001908152602001600020905060026003811115610c2057610c1f611ce3565b5b8160090160009054906101000a900460ff166003811115610c4457610c43611ce3565b5b14610c84576040517f08c379a0000000000000000000000000000000000000000000000000000000008152600401610c7b9061289a565b60405180910390fd5b600081600201549050600082600201819055506000600160009054906101000a900473ffffffffffffffffffffffffffffffffffffffff1673ffffffffffffffffffffffffffffffffffffffff1663a9059cbb33846040518363ffffffff1660e01b8152600401610cf692919061255e565b6020604051808303816000875af1158015610d15573d6000803e3d6000fd5b505050506040513d601f19601f82011682018060405250810190610d3991906124c5565b905080610d7b576040517f08c379a0000000000000000000000000000000000000000000000000000000008152600401610d7290612906565b60405180910390fd5b857fb0ecf14e184effded5473bba77dcfab32b094b77ac1fbb36beec2aef55587970338442604051610daf93929190612719565b60405180910390a2505050505050565b60008282810190610dd091906129e9565b905060005b8151811015611088576000828281518110610df357610df2612a32565b5b602002602001015190506000600360008381526020019081526020016000209050600380811115610e2757610e26611ce3565b5b8160090160009054906101000a900460ff166003811115610e4b57610e4a611ce3565b5b1480610e8c575060026003811115610e6657610e65611ce3565b5b8160090160009054906101000a900460ff166003811115610e8a57610e89611ce3565b5b145b15610e9857505061107b565b806003015442118015610eae5750806004015442105b8015610eef575060006003811115610ec957610ec8611ce3565b5b8160090160009054906101000a900460ff166003811115610eed57610eec611ce3565b5b145b15610f5c5760018160090160006101000a81548160ff02191690836003811115610f1c57610f1b611ce3565b5b0217905550817f45e7ca8c14330ef52434b43a323a650db341a2b85a5160f66d892e3a9623c2273342604051610f5392919061255e565b60405180910390a25b80600401544210158015610f77575080600101548160020154105b15610fea5760038160090160006101000a81548160ff02191690836003811115610fa457610fa3611ce3565b5b0217905550817f1c37c67694e49ddaa169e8b7f9dafd655ba8cfc26df25bf66ea18d649d5e70963342604051610fdb92919061255e565b60405180910390a2505061107b565b80600301544211801561100557508060010154816002015410155b156110785760028160090160006101000a81548160ff0219169083600381111561103257611031611ce3565b5b0217905550817fcab935963eaa03f3973204c91b5bc658726a1015d91fc361d82f67c407172300334260405161106992919061255e565b60405180910390a2505061107b565b50505b8080600101915050610dd5565b50505050565b8060006003600083815260200190815260200160002090508060090160019054906101000a900473ffffffffffffffffffffffffffffffffffffffff1673ffffffffffffffffffffffffffffffffffffffff163373ffffffffffffffffffffffffffffffffffffffff1614611138576040517f08c379a000000000000000000000000000000000000000000000000000000000815260040161112f9061279c565b60405180910390fd5b60006003600085815260200190815260200160002090506001600381111561116357611162611ce3565b5b8160090160009054906101000a900460ff16600381111561118757611186611ce3565b5b146111c7576040517f08c379a00000000000000000000000000000000000000000000000000000000081526004016111be90612ad3565b60405180910390fd5b806001015481600201541015611212576040517f08c379a000000000000000000000000000000000000000000000000000000000815260040161120990612b3f565b60405180910390fd5b60028160090160006101000a81548160ff0219169083600381111561123a57611239611ce3565b5b0217905550837fcab935963eaa03f3973204c91b5bc658726a1015d91fc361d82f67c407172300334260405161127192919061255e565b60405180910390a250505050565b60006060600091506000600480549050905060008167ffffffffffffffff8111156112ad576112ac612078565b5b6040519080825280602002602001820160405280156112db5781602001602082028036833780820191505090505b5090506000805b8381101561149e576000600360006004848154811061130457611303612a32565b5b90600052602060002001548152602001908152602001600020905060038081111561133257611331611ce3565b5b8160090160009054906101000a900460ff16600381111561135657611355611ce3565b5b148061139757506002600381111561137157611370611ce3565b5b8160090160009054906101000a900460ff16600381111561139557611394611ce3565b5b145b156113a25750611491565b8060030154421180156113b85750806004015442105b80156113f95750600060038111156113d3576113d2611ce3565b5b8160090160009054906101000a900460ff1660038111156113f7576113f6611ce3565b5b145b8061141b575080600301544211801561141a57508060010154816002015410155b5b8061143d57508060040154421015801561143c575080600101548160020154105b5b1561148f576004828154811061145657611455612a32565b5b906000526020600020015484848151811061147457611473612a32565b5b602002602001018181525050828061148b90612b5f565b9350505b505b80806001019150506112e2565b5060008111156114d857600194506114b68282611ae1565b6040516020016114c69190612c65565b60405160208183030381529060405293505b5050509250929050565b60055481565b60008054906101000a900473ffffffffffffffffffffffffffffffffffffffff1681565b6000885111611550576040517f08c379a000000000000000000000000000000000000000000000000000000000815260040161154790612cd3565b60405180910390fd5b60008711611593576040517f08c379a000000000000000000000000000000000000000000000000000000000815260040161158a90612d3f565b60405180910390fd5b8486106115d5576040517f08c379a00000000000000000000000000000000000000000000000000000000081526004016115cc90612dd1565b60405180910390fd5b844210611617576040517f08c379a000000000000000000000000000000000000000000000000000000000815260040161160e90612e3d565b60405180910390fd5b6005600081548092919061162a90612b5f565b919050555060006003600060055481526020019081526020016000209050888160000190816116599190613009565b50878160010181905550868160030181905550858160040181905550848160050160006101000a81548160ff0219169083600481111561169c5761169b611ce3565b5b0217905550838160050160016101000a81548160ff021916908360038111156116c8576116c7611ce3565b5b0217905550828160060190816116de9190613009565b50818160070190816116f09190613009565b508642116116ff576000611702565b60015b8160090160006101000a81548160ff0219169083600381111561172857611727611ce3565b5b0217905550338160090160016101000a81548173ffffffffffffffffffffffffffffffffffffffff021916908373ffffffffffffffffffffffffffffffffffffffff160217905550600460055490806001815401808255809150506001900390600052602060002001600090919091909150556005547fbe3dd7dc6384f58902a35b3dbc09ad6f5cc91b4499b64a64574f25c4c13cdef6338b8b8b8b8b8b8b8b8b60090160009054906101000a900460ff166040516117f09a999897969594939291906130db565b60405180910390a2505050505050505050565b8060006003600083815260200190815260200160002090508060090160019054906101000a900473ffffffffffffffffffffffffffffffffffffffff1673ffffffffffffffffffffffffffffffffffffffff163373ffffffffffffffffffffffffffffffffffffffff16146118ad576040517f08c379a00000000000000000000000000000000000000000000000000000000081526004016118a49061279c565b60405180910390fd5b6000600360008581526020019081526020016000209050600060038111156118d8576118d7611ce3565b5b8160090160009054906101000a900460ff1660038111156118fc576118fb611ce3565b5b1461193c576040517f08c379a0000000000000000000000000000000000000000000000000000000008152600401611933906131fe565b60405180910390fd5b60038160090160006101000a81548160ff0219169083600381111561196457611963611ce3565b5b0217905550837f1c37c67694e49ddaa169e8b7f9dafd655ba8cfc26df25bf66ea18d649d5e7096334260405161199b92919061255e565b60405180910390a250505050565b600481815481106119b957600080fd5b906000526020600020016000915090505481565b60606000806000806000806000600360008a815260200190815260200160002090508060000180546119fe906125b6565b80601f0160208091040260200160405190810160405280929190818152602001828054611a2a906125b6565b8015611a775780601f10611a4c57610100808354040283529160200191611a77565b820191906000526020600020905b815481529060010190602001808311611a5a57829003601f168201915b50505050509750806001015496508060020154955080600301549450806004015493508060090160009054906101000a900460ff1692508060090160019054906101000a900473ffffffffffffffffffffffffffffffffffffffff16915050919395979092949650565b606060008267ffffffffffffffff811115611aff57611afe612078565b5b604051908082528060200260200182016040528015611b2d5781602001602082028036833780820191505090505b50905060005b83811015611b8257848181518110611b4e57611b4d612a32565b5b6020026020010151828281518110611b6957611b68612a32565b5b6020026020010181815250508080600101915050611b33565b508091505092915050565b6000604051905090565b600080fd5b600080fd5b6000819050919050565b611bb481611ba1565b8114611bbf57600080fd5b50565b600081359050611bd181611bab565b92915050565b60008060408385031215611bee57611bed611b97565b5b6000611bfc85828601611bc2565b9250506020611c0d85828601611bc2565b9150509250929050565b600060208284031215611c2d57611c2c611b97565b5b6000611c3b84828501611bc2565b91505092915050565b600081519050919050565b600082825260208201905092915050565b60005b83811015611c7e578082015181840152602081019050611c63565b60008484015250505050565b6000601f19601f8301169050919050565b6000611ca682611c44565b611cb08185611c4f565b9350611cc0818560208601611c60565b611cc981611c8a565b840191505092915050565b611cdd81611ba1565b82525050565b7f4e487b7100000000000000000000000000000000000000000000000000000000600052602160045260246000fd5b60058110611d2357611d22611ce3565b5b50565b6000819050611d3482611d12565b919050565b6000611d4482611d26565b9050919050565b611d5481611d39565b82525050565b60048110611d6b57611d6a611ce3565b5b50565b6000819050611d7c82611d5a565b919050565b6000611d8c82611d6e565b9050919050565b611d9c81611d81565b82525050565b60048110611db357611db2611ce3565b5b50565b6000819050611dc482611da2565b919050565b6000611dd482611db6565b9050919050565b611de481611dc9565b82525050565b600073ffffffffffffffffffffffffffffffffffffffff82169050919050565b6000611e1582611dea565b9050919050565b611e2581611e0a565b82525050565b6000610160820190508181036000830152611e46818e611c9b565b9050611e55602083018d611cd4565b611e62604083018c611cd4565b611e6f606083018b611cd4565b611e7c608083018a611cd4565b611e8960a0830189611d4b565b611e9660c0830188611d93565b81810360e0830152611ea88187611c9b565b9050818103610100830152611ebd8186611c9b565b9050611ecd610120830185611ddb565b611edb610140830184611e1c565b9c9b505050505050505050505050565b600080fd5b600080fd5b600080fd5b60008083601f840112611f1057611f0f611eeb565b5b8235905067ffffffffffffffff811115611f2d57611f2c611ef0565b5b602083019150836001820283011115611f4957611f48611ef5565b5b9250929050565b60008060208385031215611f6757611f66611b97565b5b600083013567ffffffffffffffff811115611f8557611f84611b9c565b5b611f9185828601611efa565b92509250509250929050565b60008115159050919050565b611fb281611f9d565b82525050565b600081519050919050565b600082825260208201905092915050565b6000611fdf82611fb8565b611fe98185611fc3565b9350611ff9818560208601611c60565b61200281611c8a565b840191505092915050565b60006040820190506120226000830185611fa9565b81810360208301526120348184611fd4565b90509392505050565b60006020820190506120526000830184611cd4565b92915050565b600060208201905061206d6000830184611e1c565b92915050565b600080fd5b7f4e487b7100000000000000000000000000000000000000000000000000000000600052604160045260246000fd5b6120b082611c8a565b810181811067ffffffffffffffff821117156120cf576120ce612078565b5b80604052505050565b60006120e2611b8d565b90506120ee82826120a7565b919050565b600067ffffffffffffffff82111561210e5761210d612078565b5b61211782611c8a565b9050602081019050919050565b82818337600083830152505050565b6000612146612141846120f3565b6120d8565b90508281526020810184848401111561216257612161612073565b5b61216d848285612124565b509392505050565b600082601f83011261218a57612189611eeb565b5b813561219a848260208601612133565b91505092915050565b600581106121b057600080fd5b50565b6000813590506121c2816121a3565b92915050565b600481106121d557600080fd5b50565b6000813590506121e7816121c8565b92915050565b600080600080600080600080610100898b03121561220e5761220d611b97565b5b600089013567ffffffffffffffff81111561222c5761222b611b9c565b5b6122388b828c01612175565b98505060206122498b828c01611bc2565b975050604061225a8b828c01611bc2565b965050606061226b8b828c01611bc2565b955050608061227c8b828c016121b3565b94505060a061228d8b828c016121d8565b93505060c089013567ffffffffffffffff8111156122ae576122ad611b9c565b5b6122ba8b828c01612175565b92505060e089013567ffffffffffffffff8111156122db576122da611b9c565b5b6122e78b828c01612175565b9150509295985092959890939650565b600060e0820190508181036000830152612311818a611c9b565b90506123206020830189611cd4565b61232d6040830188611cd4565b61233a6060830187611cd4565b6123476080830186611cd4565b61235460a0830185611ddb565b61236160c0830184611e1c565b98975050505050505050565b7f7468652063616d706169676e206973206e6f74207374617274206f7220656e6460008201527f6564000000000000000000000000000000000000000000000000000000000000602082015250565b60006123c9602283611c4f565b91506123d48261236d565b604082019050919050565b600060208201905081810360008301526123f8816123bc565b9050919050565b7f4e487b7100000000000000000000000000000000000000000000000000000000600052601160045260246000fd5b600061243982611ba1565b915061244483611ba1565b925082820190508082111561245c5761245b6123ff565b5b92915050565b60006060820190506124776000830186611e1c565b6124846020830185611e1c565b6124916040830184611cd4565b949350505050565b6124a281611f9d565b81146124ad57600080fd5b50565b6000815190506124bf81612499565b92915050565b6000602082840312156124db576124da611b97565b5b60006124e9848285016124b0565b91505092915050565b7f646f6e617465207472616e73666572206661696c000000000000000000000000600082015250565b6000612528601483611c4f565b9150612533826124f2565b602082019050919050565b600060208201905081810360008301526125578161251b565b9050919050565b60006040820190506125736000830185611e1c565b6125806020830184611cd4565b9392505050565b7f4e487b7100000000000000000000000000000000000000000000000000000000600052602260045260246000fd5b600060028204905060018216806125ce57607f821691505b6020821081036125e1576125e0612587565b5b50919050565b7f63616d7061696e206e6f742063616e63656c6c65642c63616e206e6f7420726560008201527f66756e6400000000000000000000000000000000000000000000000000000000602082015250565b6000612643602483611c4f565b915061264e826125e7565b604082019050919050565b6000602082019050818103600083015261267281612636565b9050919050565b600061268482611ba1565b915061268f83611ba1565b92508282039050818111156126a7576126a66123ff565b5b92915050565b7f726566756e64207472616e73666572206661696c656400000000000000000000600082015250565b60006126e3601683611c4f565b91506126ee826126ad565b602082019050919050565b60006020820190508181036000830152612712816126d6565b9050919050565b600060608201905061272e6000830186611e1c565b61273b6020830185611cd4565b6127486040830184611cd4565b949350505050565b7f6e6f742073746172746572000000000000000000000000000000000000000000600082015250565b6000612786600b83611c4f565b915061279182612750565b602082019050919050565b600060208201905081810360008301526127b581612779565b9050919050565b7f63616d706169676e206973206e6f742070656e64696e672c63616e206e6f742060008201527f6163746976650000000000000000000000000000000000000000000000000000602082015250565b6000612818602683611c4f565b9150612823826127bc565b604082019050919050565b600060208201905081810360008301526128478161280b565b9050919050565b7f7468652063616d706169676e206973206e6f7420436f6d706c65746564000000600082015250565b6000612884601d83611c4f565b915061288f8261284e565b602082019050919050565b600060208201905081810360008301526128b381612877565b9050919050565b7f7769746864726177207472616e73666572206661696c65640000000000000000600082015250565b60006128f0601883611c4f565b91506128fb826128ba565b602082019050919050565b6000602082019050818103600083015261291f816128e3565b9050919050565b600067ffffffffffffffff82111561294157612940612078565b5b602082029050602081019050919050565b600061296561296084612926565b6120d8565b9050808382526020820190506020840283018581111561298857612987611ef5565b5b835b818110156129b1578061299d8882611bc2565b84526020840193505060208101905061298a565b5050509392505050565b600082601f8301126129d0576129cf611eeb565b5b81356129e0848260208601612952565b91505092915050565b6000602082840312156129ff576129fe611b97565b5b600082013567ffffffffffffffff811115612a1d57612a1c611b9c565b5b612a29848285016129bb565b91505092915050565b7f4e487b7100000000000000000000000000000000000000000000000000000000600052603260045260246000fd5b7f6e6f74206163746976652063616d706169676e2c63616e206e6f7420636f6d7060008201527f6c65746564000000000000000000000000000000000000000000000000000000602082015250565b6000612abd602583611c4f565b9150612ac882612a61565b604082019050919050565b60006020820190508181036000830152612aec81612ab0565b9050919050565b7f676f616c206973206e6f74207265616368000000000000000000000000000000600082015250565b6000612b29601183611c4f565b9150612b3482612af3565b602082019050919050565b60006020820190508181036000830152612b5881612b1c565b9050919050565b6000612b6a82611ba1565b91507fffffffffffffffffffffffffffffffffffffffffffffffffffffffffffffffff8203612b9c57612b9b6123ff565b5b600182019050919050565b600081519050919050565b600082825260208201905092915050565b6000819050602082019050919050565b612bdc81611ba1565b82525050565b6000612bee8383612bd3565b60208301905092915050565b6000602082019050919050565b6000612c1282612ba7565b612c1c8185612bb2565b9350612c2783612bc3565b8060005b83811015612c58578151612c3f8882612be2565b9750612c4a83612bfa565b925050600181019050612c2b565b5085935050505092915050565b60006020820190508181036000830152612c7f8184612c07565b905092915050565b7f5469746c652063616e6e6f7420626520656d7074790000000000000000000000600082015250565b6000612cbd601583611c4f565b9150612cc882612c87565b602082019050919050565b60006020820190508181036000830152612cec81612cb0565b9050919050565b7f496e76616c696420676f616c0000000000000000000000000000000000000000600082015250565b6000612d29600c83611c4f565b9150612d3482612cf3565b602082019050919050565b60006020820190508181036000830152612d5881612d1c565b9050919050565b7f5f737461727454696d65206973206c61746572207468616e205f656e6454696d60008201527f6500000000000000000000000000000000000000000000000000000000000000602082015250565b6000612dbb602183611c4f565b9150612dc682612d5f565b604082019050919050565b60006020820190508181036000830152612dea81612dae565b9050919050565b7f496e76616c696420656e6454696d650000000000000000000000000000000000600082015250565b6000612e27600f83611c4f565b9150612e3282612df1565b602082019050919050565b60006020820190508181036000830152612e5681612e1a565b9050919050565b60008190508160005260206000209050919050565b60006020601f8301049050919050565b600082821b905092915050565b600060088302612ebf7fffffffffffffffffffffffffffffffffffffffffffffffffffffffffffffffff82612e82565b612ec98683612e82565b95508019841693508086168417925050509392505050565b6000819050919050565b6000612f06612f01612efc84611ba1565b612ee1565b611ba1565b9050919050565b6000819050919050565b612f2083612eeb565b612f34612f2c82612f0d565b848454612e8f565b825550505050565b600090565b612f49612f3c565b612f54818484612f17565b505050565b5b81811015612f7857612f6d600082612f41565b600181019050612f5a565b5050565b601f821115612fbd57612f8e81612e5d565b612f9784612e72565b81016020851015612fa6578190505b612fba612fb285612e72565b830182612f59565b50505b505050565b600082821c905092915050565b6000612fe060001984600802612fc2565b1980831691505092915050565b6000612ff98383612fcf565b9150826002028217905092915050565b61301282611c44565b67ffffffffffffffff81111561302b5761302a612078565b5b61303582546125b6565b613040828285612f7c565b600060209050601f8311600181146130735760008415613061578287015190505b61306b8582612fed565b8655506130d3565b601f19841661308186612e5d565b60005b828110156130a957848901518255600182019150602085019450602081019050613084565b868310156130c657848901516130c2601f891682612fcf565b8355505b6001600288020188555050505b505050505050565b6000610140820190506130f1600083018d611e1c565b8181036020830152613103818c611c9b565b9050613112604083018b611cd4565b61311f606083018a611cd4565b61312c6080830189611cd4565b61313960a0830188611d4b565b61314660c0830187611d93565b81810360e08301526131588186611c9b565b905081810361010083015261316d8185611c9b565b905061317d610120830184611ddb565b9b9a5050505050505050505050565b7f63616d706169676e206973206e6f742070656e64696e672c63616e206e6f742060008201527f63616e63656c6c00000000000000000000000000000000000000000000000000602082015250565b60006131e8602783611c4f565b91506131f38261318c565b604082019050919050565b60006020820190508181036000830152613217816131db565b905091905056fea2646970667358221220b0175f71f3e3c26e3a16620f3ab7ec2c98163ffd1cca7b8ade73a2519af887e464736f6c634300081c0033",
  "linkReferences": {},
  "deployedLinkReferences": {}
}