{
  "_format": "hh-sol-artifact-1",
  "contractName": "NFT",
  "sourceName": "contracts/nft.sol",
  "abi": [
    {
      "inputs": [
        {
          "internalType": "string",
          "name": "tokenName",
          "type": "string"
        },
        {
          "internalType": "string",
          "name": "tokenSymol",
          "type": "string"
        }
      ],
      "stateMutability": "nonpayable",
      "type": "constructor"
    },
    {
      "inputs": [],
      "name": "ERC721EnumerableForbiddenBatchMint",
      "type": "error"
    },
    {
      "inputs": [
        {
          "internalType": "address",
          "name": "sender",
          "type": "address"
        },
        {
          "internalType": "uint256",
          "name": "tokenId",
          "type": "uint256"
        },
        {
          "internalType": "address",
          "name": "owner",
          "type": "address"
        }
      ],
      "name": "ERC721IncorrectOwner",
      "type": "error"
    },
    {
      "inputs": [
        {
          "internalType": "address",
          "name": "operator",
          "type": "address"
        },
        {
          "internalType": "uint256",
          "name": "tokenId",
          "type": "uint256"
        }
      ],
      "name": "ERC721InsufficientApproval",
      "type": "error"
    },
    {
      "inputs": [
        {
          "internalType": "address",
          "name": "approver",
          "type": "address"
        }
      ],
      "name": "ERC721InvalidApprover",
      "type": "error"
    },
    {
      "inputs": [
        {
          "internalType": "address",
          "name": "operator",
          "type": "address"
        }
      ],
      "name": "ERC721InvalidOperator",
      "type": "error"
    },
    {
      "inputs": [
        {
          "internalType": "address",
          "name": "owner",
          "type": "address"
        }
      ],
      "name": "ERC721InvalidOwner",
      "type": "error"
    },
    {
      "inputs": [
        {
          "internalType": "address",
          "name": "receiver",
          "type": "address"
        }
      ],
      "name": "ERC721InvalidReceiver",
      "type": "error"
    },
    {
      "inputs": [
        {
          "internalType": "address",
          "name": "sender",
          "type": "address"
        }
      ],
      "name": "ERC721InvalidSender",
      "type": "error"
    },
    {
      "inputs": [
        {
          "internalType": "uint256",
          "name": "tokenId",
          "type": "uint256"
        }
      ],
      "name": "ERC721NonexistentToken",
      "type": "error"
    },
    {
      "inputs": [
        {
          "internalType": "address",
          "name": "owner",
          "type": "address"
        },
        {
          "internalType": "uint256",
          "name": "index",
          "type": "uint256"
        }
      ],
      "name": "ERC721OutOfBoundsIndex",
      "type": "error"
    },
    {
      "inputs": [
        {
          "internalType": "address",
          "name": "owner",
          "type": "address"
        }
      ],
      "name": "OwnableInvalidOwner",
      "type": "error"
    },
    {
      "inputs": [
        {
          "internalType": "address",
          "name": "account",
          "type": "address"
        }
      ],
      "name": "OwnableUnauthorizedAccount",
      "type": "error"
    },
    {
      "inputs": [],
      "name": "ReentrancyGuardReentrantCall",
      "type": "error"
    },
    {
      "anonymous": false,
      "inputs": [
        {
          "indexed": true,
          "internalType": "address",
          "name": "owner",
          "type": "address"
        },
        {
          "indexed": true,
          "internalType": "address",
          "name": "approved",
          "type": "address"
        },
        {
          "indexed": true,
          "internalType": "uint256",
          "name": "tokenId",
          "type": "uint256"
        }
      ],
      "name": "Approval",
      "type": "event"
    },
    {
      "anonymous": false,
      "inputs": [
        {
          "indexed": true,
          "internalType": "address",
          "name": "owner",
          "type": "address"
        },
        {
          "indexed": true,
          "internalType": "address",
          "name": "operator",
          "type": "address"
        },
        {
          "indexed": false,
          "internalType": "bool",
          "name": "approved",
          "type": "bool"
        }
      ],
      "name": "ApprovalForAll",
      "type": "event"
    },
    {
      "anonymous": false,
      "inputs": [
        {
          "indexed": false,
          "internalType": "uint256",
          "name": "_fromTokenId",
          "type": "uint256"
        },
        {
          "indexed": false,
          "internalType": "uint256",
          "name": "_toTokenId",
          "type": "uint256"
        }
      ],
      "name": "BatchMetadataUpdate",
      "type": "event"
    },
    {
      "anonymous": false,
      "inputs": [
        {
          "indexed": false,
          "internalType": "uint256",
          "name": "_tokenId",
          "type": "uint256"
        }
      ],
      "name": "MetadataUpdate",
      "type": "event"
    },
    {
      "anonymous": false,
      "inputs": [
        {
          "components": [
            {
              "internalType": "string",
              "name": "level",
              "type": "string"
            },
            {
              "internalType": "string",
              "name": "uri",
              "type": "string"
            }
          ],
          "indexed": false,
          "internalType": "struct NFT.LevelMetaDataURI[]",
          "name": "levelToMetaDataURIs",
          "type": "tuple[]"
        }
      ],
      "name": "NFTDeployed",
      "type": "event"
    },
    {
      "anonymous": false,
      "inputs": [
        {
          "indexed": false,
          "internalType": "address",
          "name": "to",
          "type": "address"
        },
        {
          "indexed": false,
          "internalType": "uint256",
          "name": "tokenId",
          "type": "uint256"
        },
        {
          "indexed": false,
          "internalType": "string",
          "name": "level",
          "type": "string"
        }
      ],
      "name": "NFTMinted",
      "type": "event"
    },
    {
      "anonymous": false,
      "inputs": [
        {
          "indexed": true,
          "internalType": "address",
          "name": "previousOwner",
          "type": "address"
        },
        {
          "indexed": true,
          "internalType": "address",
          "name": "newOwner",
          "type": "address"
        }
      ],
      "name": "OwnershipTransferred",
      "type": "event"
    },
    {
      "anonymous": false,
      "inputs": [
        {
          "indexed": true,
          "internalType": "address",
          "name": "from",
          "type": "address"
        },
        {
          "indexed": true,
          "internalType": "address",
          "name": "to",
          "type": "address"
        },
        {
          "indexed": true,
          "internalType": "uint256",
          "name": "tokenId",
          "type": "uint256"
        }
      ],
      "name": "Transfer",
      "type": "event"
    },
    {
      "inputs": [
        {
          "internalType": "address",
          "name": "to",
          "type": "address"
        },
        {
          "internalType": "uint256",
          "name": "tokenId",
          "type": "uint256"
        }
      ],
      "name": "approve",
      "outputs": [],
      "stateMutability": "nonpayable",
      "type": "function"
    },
    {
      "inputs": [
        {
          "internalType": "address",
          "name": "owner",
          "type": "address"
        }
      ],
      "name": "balanceOf",
      "outputs": [
        {
          "internalType": "uint256",
          "name": "",
          "type": "uint256"
        }
      ],
      "stateMutability": "view",
      "type": "function"
    },
    {
      "inputs": [
        {
          "internalType": "uint256",
          "name": "tokenId",
          "type": "uint256"
        }
      ],
      "name": "burn",
      "outputs": [],
      "stateMutability": "nonpayable",
      "type": "function"
    },
    {
      "inputs": [
        {
          "internalType": "uint256",
          "name": "tokenId",
          "type": "uint256"
        }
      ],
      "name": "getApproved",
      "outputs": [
        {
          "internalType": "address",
          "name": "",
          "type": "address"
        }
      ],
      "stateMutability": "view",
      "type": "function"
    },
    {
      "inputs": [
        {
          "internalType": "address",
          "name": "owner",
          "type": "address"
        },
        {
          "internalType": "address",
          "name": "operator",
          "type": "address"
        }
      ],
      "name": "isApprovedForAll",
      "outputs": [
        {
          "internalType": "bool",
          "name": "",
          "type": "bool"
        }
      ],
      "stateMutability": "view",
      "type": "function"
    },
    {
      "inputs": [
        {
          "internalType": "string",
          "name": "",
          "type": "string"
        }
      ],
      "name": "levelToMetaDataURI",
      "outputs": [
        {
          "internalType": "string",
          "name": "",
          "type": "string"
        }
      ],
      "stateMutability": "view",
      "type": "function"
    },
    {
      "inputs": [],
      "name": "name",
      "outputs": [
        {
          "internalType": "string",
          "name": "",
          "type": "string"
        }
      ],
      "stateMutability": "view",
      "type": "function"
    },
    {
      "inputs": [],
      "name": "owner",
      "outputs": [
        {
          "internalType": "address",
          "name": "",
          "type": "address"
        }
      ],
      "stateMutability": "view",
      "type": "function"
    },
    {
      "inputs": [
        {
          "internalType": "uint256",
          "name": "tokenId",
          "type": "uint256"
        }
      ],
      "name": "ownerOf",
      "outputs": [
        {
          "internalType": "address",
          "name": "",
          "type": "address"
        }
      ],
      "stateMutability": "view",
      "type": "function"
    },
    {
      "inputs": [],
      "name": "renounceOwnership",
      "outputs": [],
      "stateMutability": "nonpayable",
      "type": "function"
    },
    {
      "inputs": [
        {
          "internalType": "address",
          "name": "to",
          "type": "address"
        },
        {
          "internalType": "string",
          "name": "level",
          "type": "string"
        }
      ],
      "name": "safeMint",
      "outputs": [],
      "stateMutability": "nonpayable",
      "type": "function"
    },
    {
      "inputs": [
        {
          "internalType": "address",
          "name": "from",
          "type": "address"
        },
        {
          "internalType": "address",
          "name": "to",
          "type": "address"
        },
        {
          "internalType": "uint256",
          "name": "tokenId",
          "type": "uint256"
        }
      ],
      "name": "safeTransferFrom",
      "outputs": [],
      "stateMutability": "nonpayable",
      "type": "function"
    },
    {
      "inputs": [
        {
          "internalType": "address",
          "name": "from",
          "type": "address"
        },
        {
          "internalType": "address",
          "name": "to",
          "type": "address"
        },
        {
          "internalType": "uint256",
          "name": "tokenId",
          "type": "uint256"
        },
        {
          "internalType": "bytes",
          "name": "data",
          "type": "bytes"
        }
      ],
      "name": "safeTransferFrom",
      "outputs": [],
      "stateMutability": "nonpayable",
      "type": "function"
    },
    {
      "inputs": [
        {
          "internalType": "address",
          "name": "operator",
          "type": "address"
        },
        {
          "internalType": "bool",
          "name": "approved",
          "type": "bool"
        }
      ],
      "name": "setApprovalForAll",
      "outputs": [],
      "stateMutability": "nonpayable",
      "type": "function"
    },
    {
      "inputs": [
        {
          "internalType": "bytes4",
          "name": "interfaceId",
          "type": "bytes4"
        }
      ],
      "name": "supportsInterface",
      "outputs": [
        {
          "internalType": "bool",
          "name": "",
          "type": "bool"
        }
      ],
      "stateMutability": "view",
      "type": "function"
    },
    {
      "inputs": [],
      "name": "symbol",
      "outputs": [
        {
          "internalType": "string",
          "name": "",
          "type": "string"
        }
      ],
      "stateMutability": "view",
      "type": "function"
    },
    {
      "inputs": [
        {
          "internalType": "uint256",
          "name": "index",
          "type": "uint256"
        }
      ],
      "name": "tokenByIndex",
      "outputs": [
        {
          "internalType": "uint256",
          "name": "",
          "type": "uint256"
        }
      ],
      "stateMutability": "view",
      "type": "function"
    },
    {
      "inputs": [
        {
          "internalType": "address",
          "name": "owner",
          "type": "address"
        },
        {
          "internalType": "uint256",
          "name": "index",
          "type": "uint256"
        }
      ],
      "name": "tokenOfOwnerByIndex",
      "outputs": [
        {
          "internalType": "uint256",
          "name": "",
          "type": "uint256"
        }
      ],
      "stateMutability": "view",
      "type": "function"
    },
    {
      "inputs": [
        {
          "internalType": "uint256",
          "name": "tokenId",
          "type": "uint256"
        }
      ],
      "name": "tokenURI",
      "outputs": [
        {
          "internalType": "string",
          "name": "",
          "type": "string"
        }
      ],
      "stateMutability": "view",
      "type": "function"
    },
    {
      "inputs": [],
      "name": "totalSupply",
      "outputs": [
        {
          "internalType": "uint256",
          "name": "",
          "type": "uint256"
        }
      ],
      "stateMutability": "view",
      "type": "function"
    },
    {
      "inputs": [
        {
          "internalType": "address",
          "name": "from",
          "type": "address"
        },
        {
          "internalType": "address",
          "name": "to",
          "type": "address"
        },
        {
          "internalType": "uint256",
          "name": "tokenId",
          "type": "uint256"
        }
      ],
      "name": "transferFrom",
      "outputs": [],
      "stateMutability": "nonpayable",
      "type": "function"
    },
    {
      "inputs": [
        {
          "internalType": "address",
          "name": "newOwner",
          "type": "address"
        }
      ],
      "name": "transferOwnership",
      "outputs": [],
      "stateMutability": "nonpayable",
      "type": "function"
    },
    {
      "inputs": [],
      "name": "triggerNFTDeployedEvent",
      "outputs": [],
      "stateMutability": "nonpayable",
      "type": "function"
    }
  ],
  "bytecode": "0x608060405234801561001057600080fd5b5060405161403a38038061403a833981810160405281019061003291906103e9565b33828281600090816100449190610682565b5080600190816100549190610682565b505050600073ffffffffffffffffffffffffffffffffffffffff168173ffffffffffffffffffffffffffffffffffffffff16036100c95760006040517f1e4fbdf70000000000000000000000000000000000000000000000000000000081526004016100c09190610795565b60405180910390fd5b6100d8816101ae60201b60201c565b506001600c8190555060405180606001604052806035815260200161400560359139600e60405161010890610807565b908152602001604051809103902090816101229190610682565b50604051806060016040528060358152602001613fd060359139600e60405161014a90610868565b908152602001604051809103902090816101649190610682565b50604051806060016040528060358152602001613f9b60359139600e60405161018c906108c9565b908152602001604051809103902090816101a69190610682565b5050506108de565b6000600b60009054906101000a900473ffffffffffffffffffffffffffffffffffffffff16905081600b60006101000a81548173ffffffffffffffffffffffffffffffffffffffff021916908373ffffffffffffffffffffffffffffffffffffffff1602179055508173ffffffffffffffffffffffffffffffffffffffff168173ffffffffffffffffffffffffffffffffffffffff167f8be0079c531659141344cd1fd0a4f28419497f9722a3daafe3b4186f6b6457e060405160405180910390a35050565b6000604051905090565b600080fd5b600080fd5b600080fd5b600080fd5b6000601f19601f8301169050919050565b7f4e487b7100000000000000000000000000000000000000000000000000000000600052604160045260246000fd5b6102db82610292565b810181811067ffffffffffffffff821117156102fa576102f96102a3565b5b80604052505050565b600061030d610274565b905061031982826102d2565b919050565b600067ffffffffffffffff821115610339576103386102a3565b5b61034282610292565b9050602081019050919050565b60005b8381101561036d578082015181840152602081019050610352565b60008484015250505050565b600061038c6103878461031e565b610303565b9050828152602081018484840111156103a8576103a761028d565b5b6103b384828561034f565b509392505050565b600082601f8301126103d0576103cf610288565b5b81516103e0848260208601610379565b91505092915050565b60008060408385031215610400576103ff61027e565b5b600083015167ffffffffffffffff81111561041e5761041d610283565b5b61042a858286016103bb565b925050602083015167ffffffffffffffff81111561044b5761044a610283565b5b610457858286016103bb565b9150509250929050565b600081519050919050565b7f4e487b7100000000000000000000000000000000000000000000000000000000600052602260045260246000fd5b600060028204905060018216806104b357607f821691505b6020821081036104c6576104c561046c565b5b50919050565b60008190508160005260206000209050919050565b60006020601f8301049050919050565b600082821b905092915050565b60006008830261052e7fffffffffffffffffffffffffffffffffffffffffffffffffffffffffffffffff826104f1565b61053886836104f1565b95508019841693508086168417925050509392505050565b6000819050919050565b6000819050919050565b600061057f61057a61057584610550565b61055a565b610550565b9050919050565b6000819050919050565b61059983610564565b6105ad6105a582610586565b8484546104fe565b825550505050565b600090565b6105c26105b5565b6105cd818484610590565b505050565b5b818110156105f1576105e66000826105ba565b6001810190506105d3565b5050565b601f82111561063657610607816104cc565b610610846104e1565b8101602085101561061f578190505b61063361062b856104e1565b8301826105d2565b50505b505050565b600082821c905092915050565b60006106596000198460080261063b565b1980831691505092915050565b60006106728383610648565b9150826002028217905092915050565b61068b82610461565b67ffffffffffffffff8111156106a4576106a36102a3565b5b6106ae825461049b565b6106b98282856105f5565b600060209050601f8311600181146106ec57600084156106da578287015190505b6106e48582610666565b86555061074c565b601f1984166106fa866104cc565b60005b82811015610722578489015182556001820191506020850194506020810190506106fd565b8683101561073f578489015161073b601f891682610648565b8355505b6001600288020188555050505b505050505050565b600073ffffffffffffffffffffffffffffffffffffffff82169050919050565b600061077f82610754565b9050919050565b61078f81610774565b82525050565b60006020820190506107aa6000830184610786565b92915050565b600081905092915050565b7f4469616d6f6e6400000000000000000000000000000000000000000000000000600082015250565b60006107f16007836107b0565b91506107fc826107bb565b600782019050919050565b6000610812826107e4565b9150819050919050565b7f476f6c6400000000000000000000000000000000000000000000000000000000600082015250565b60006108526004836107b0565b915061085d8261081c565b600482019050919050565b600061087382610845565b9150819050919050565b7f53696c7665720000000000000000000000000000000000000000000000000000600082015250565b60006108b36006836107b0565b91506108be8261087d565b600682019050919050565b60006108d4826108a6565b9150819050919050565b6136ae806108ed6000396000f3fe608060405234801561001057600080fd5b506004361061014d5760003560e01c80636352211e116100c3578063b88d4fde1161007c578063b88d4fde146103b0578063c3841f67146103cc578063c87b56dd146103d6578063d204c45e14610406578063e985e9c514610422578063f2fde38b146104525761014d565b80636352211e146102ee57806370a082311461031e578063715018a61461034e5780638da5cb5b1461035857806395d89b4114610376578063a22cb465146103945761014d565b806323b872dd1161011557806323b872dd1461020a5780632f745c591461022657806342842e0e1461025657806342966c68146102725780634f6ccce71461028e57806353bb4b7f146102be5761014d565b806301ffc9a71461015257806306fdde0314610182578063081812fc146101a0578063095ea7b3146101d057806318160ddd146101ec575b600080fd5b61016c60048036038101906101679190612741565b61046e565b6040516101799190612789565b60405180910390f35b61018a610480565b6040516101979190612834565b60405180910390f35b6101ba60048036038101906101b5919061288c565b610512565b6040516101c791906128fa565b60405180910390f35b6101ea60048036038101906101e59190612941565b61052e565b005b6101f4610544565b6040516102019190612990565b60405180910390f35b610224600480360381019061021f91906129ab565b610551565b005b610240600480360381019061023b9190612941565b610653565b60405161024d9190612990565b60405180910390f35b610270600480360381019061026b91906129ab565b6106fc565b005b61028c6004803603810190610287919061288c565b61071c565b005b6102a860048036038101906102a3919061288c565b610733565b6040516102b59190612990565b60405180910390f35b6102d860048036038101906102d39190612b33565b6107a9565b6040516102e59190612834565b60405180910390f35b6103086004803603810190610303919061288c565b61085f565b60405161031591906128fa565b60405180910390f35b61033860048036038101906103339190612b7c565b610871565b6040516103459190612990565b60405180910390f35b61035661092b565b005b61036061093f565b60405161036d91906128fa565b60405180910390f35b61037e610969565b60405161038b9190612834565b60405180910390f35b6103ae60048036038101906103a99190612bd5565b6109fb565b005b6103ca60048036038101906103c59190612cb6565b610a11565b005b6103d4610a36565b005b6103f060048036038101906103eb919061288c565b610df8565b6040516103fd9190612834565b60405180910390f35b610420600480360381019061041b9190612d39565b610e0a565b005b61043c60048036038101906104379190612d95565b610f2f565b6040516104499190612789565b60405180910390f35b61046c60048036038101906104679190612b7c565b610fc3565b005b600061047982611049565b9050919050565b60606000805461048f90612e04565b80601f01602080910402602001604051908101604052809291908181526020018280546104bb90612e04565b80156105085780601f106104dd57610100808354040283529160200191610508565b820191906000526020600020905b8154815290600101906020018083116104eb57829003601f168201915b5050505050905090565b600061051d826110aa565b5061052782611132565b9050919050565b610540828261053b61116f565b611177565b5050565b6000600880549050905090565b600073ffffffffffffffffffffffffffffffffffffffff168273ffffffffffffffffffffffffffffffffffffffff16036105c35760006040517f64a0ae920000000000000000000000000000000000000000000000000000000081526004016105ba91906128fa565b60405180910390fd5b60006105d783836105d261116f565b611189565b90508373ffffffffffffffffffffffffffffffffffffffff168173ffffffffffffffffffffffffffffffffffffffff161461064d578382826040517f64283d7b00000000000000000000000000000000000000000000000000000000815260040161064493929190612e35565b60405180910390fd5b50505050565b600061065e83610871565b82106106a35782826040517fa57d13dc00000000000000000000000000000000000000000000000000000000815260040161069a929190612e6c565b60405180910390fd5b600660008473ffffffffffffffffffffffffffffffffffffffff1673ffffffffffffffffffffffffffffffffffffffff168152602001908152602001600020600083815260200190815260200160002054905092915050565b61071783838360405180602001604052806000815250610a11565b505050565b61072f60008261072a61116f565b611189565b5050565b600061073d610544565b8210610783576000826040517fa57d13dc00000000000000000000000000000000000000000000000000000000815260040161077a929190612e6c565b60405180910390fd5b6008828154811061079757610796612e95565b5b90600052602060002001549050919050565b600e8180516020810182018051848252602083016020850120818352809550505050505060009150905080546107de90612e04565b80601f016020809104026020016040519081016040528092919081815260200182805461080a90612e04565b80156108575780601f1061082c57610100808354040283529160200191610857565b820191906000526020600020905b81548152906001019060200180831161083a57829003601f168201915b505050505081565b600061086a826110aa565b9050919050565b60008073ffffffffffffffffffffffffffffffffffffffff168273ffffffffffffffffffffffffffffffffffffffff16036108e45760006040517f89c62b640000000000000000000000000000000000000000000000000000000081526004016108db91906128fa565b60405180910390fd5b600360008373ffffffffffffffffffffffffffffffffffffffff1673ffffffffffffffffffffffffffffffffffffffff168152602001908152602001600020549050919050565b61093361119f565b61093d6000611226565b565b6000600b60009054906101000a900473ffffffffffffffffffffffffffffffffffffffff16905090565b60606001805461097890612e04565b80601f01602080910402602001604051908101604052809291908181526020018280546109a490612e04565b80156109f15780601f106109c6576101008083540402835291602001916109f1565b820191906000526020600020905b8154815290600101906020018083116109d457829003601f168201915b5050505050905090565b610a0d610a0661116f565b83836112ec565b5050565b610a1c848484610551565b610a30610a2761116f565b8585858561145b565b50505050565b610a3e61119f565b6000600367ffffffffffffffff811115610a5b57610a5a612a08565b5b604051908082528060200260200182016040528015610a9457816020015b610a816126bb565b815260200190600190039081610a795790505b50905060405180604001604052806040518060400160405280600781526020017f4469616d6f6e64000000000000000000000000000000000000000000000000008152508152602001600e604051610aeb90612f1b565b90815260200160405180910390208054610b0490612e04565b80601f0160208091040260200160405190810160405280929190818152602001828054610b3090612e04565b8015610b7d5780601f10610b5257610100808354040283529160200191610b7d565b820191906000526020600020905b815481529060010190602001808311610b6057829003601f168201915b505050505081525081600081518110610b9957610b98612e95565b5b602002602001018190525060405180604001604052806040518060400160405280600481526020017f476f6c64000000000000000000000000000000000000000000000000000000008152508152602001600e604051610bf890612f7c565b90815260200160405180910390208054610c1190612e04565b80601f0160208091040260200160405190810160405280929190818152602001828054610c3d90612e04565b8015610c8a5780601f10610c5f57610100808354040283529160200191610c8a565b820191906000526020600020905b815481529060010190602001808311610c6d57829003601f168201915b505050505081525081600181518110610ca657610ca5612e95565b5b602002602001018190525060405180604001604052806040518060400160405280600681526020017f53696c76657200000000000000000000000000000000000000000000000000008152508152602001600e604051610d0590612fdd565b90815260200160405180910390208054610d1e90612e04565b80601f0160208091040260200160405190810160405280929190818152602001828054610d4a90612e04565b8015610d975780601f10610d6c57610100808354040283529160200191610d97565b820191906000526020600020905b815481529060010190602001808311610d7a57829003601f168201915b505050505081525081600281518110610db357610db2612e95565b5b60200260200101819052507f9ffd666ccee48e842799130b57c3fa98e6fab07fa23e7d164c8c209b9a96f02681604051610ded9190613142565b60405180910390a150565b6060610e038261160c565b9050919050565b610e1261171f565b6000600d6000815480929190610e2790613193565b919050559050610edd81600e84604051610e41919061320c565b90815260200160405180910390208054610e5a90612e04565b80601f0160208091040260200160405190810160405280929190818152602001828054610e8690612e04565b8015610ed35780601f10610ea857610100808354040283529160200191610ed3565b820191906000526020600020905b815481529060010190602001808311610eb657829003601f168201915b5050505050611765565b610ee783826117c1565b7fd35bb95e09c04b219e35047ce7b7b300e3384264ef84a40456943dbc0fc17c14838284604051610f1a93929190613223565b60405180910390a150610f2b6117df565b5050565b6000600560008473ffffffffffffffffffffffffffffffffffffffff1673ffffffffffffffffffffffffffffffffffffffff16815260200190815260200160002060008373ffffffffffffffffffffffffffffffffffffffff1673ffffffffffffffffffffffffffffffffffffffff16815260200190815260200160002060009054906101000a900460ff16905092915050565b610fcb61119f565b600073ffffffffffffffffffffffffffffffffffffffff168173ffffffffffffffffffffffffffffffffffffffff160361103d5760006040517f1e4fbdf700000000000000000000000000000000000000000000000000000000815260040161103491906128fa565b60405180910390fd5b61104681611226565b50565b6000634906490660e01b7bffffffffffffffffffffffffffffffffffffffffffffffffffffffff1916827bffffffffffffffffffffffffffffffffffffffffffffffffffffffff191614806110a357506110a2826117e9565b5b9050919050565b6000806110b683611863565b9050600073ffffffffffffffffffffffffffffffffffffffff168173ffffffffffffffffffffffffffffffffffffffff160361112957826040517f7e2732890000000000000000000000000000000000000000000000000000000081526004016111209190612990565b60405180910390fd5b80915050919050565b60006004600083815260200190815260200160002060009054906101000a900473ffffffffffffffffffffffffffffffffffffffff169050919050565b600033905090565b61118483838360016118a0565b505050565b6000611196848484611a65565b90509392505050565b6111a761116f565b73ffffffffffffffffffffffffffffffffffffffff166111c561093f565b73ffffffffffffffffffffffffffffffffffffffff1614611224576111e861116f565b6040517f118cdaa700000000000000000000000000000000000000000000000000000000815260040161121b91906128fa565b60405180910390fd5b565b6000600b60009054906101000a900473ffffffffffffffffffffffffffffffffffffffff16905081600b60006101000a81548173ffffffffffffffffffffffffffffffffffffffff021916908373ffffffffffffffffffffffffffffffffffffffff1602179055508173ffffffffffffffffffffffffffffffffffffffff168173ffffffffffffffffffffffffffffffffffffffff167f8be0079c531659141344cd1fd0a4f28419497f9722a3daafe3b4186f6b6457e060405160405180910390a35050565b600073ffffffffffffffffffffffffffffffffffffffff168273ffffffffffffffffffffffffffffffffffffffff160361135d57816040517f5b08ba1800000000000000000000000000000000000000000000000000000000815260040161135491906128fa565b60405180910390fd5b80600560008573ffffffffffffffffffffffffffffffffffffffff1673ffffffffffffffffffffffffffffffffffffffff16815260200190815260200160002060008473ffffffffffffffffffffffffffffffffffffffff1673ffffffffffffffffffffffffffffffffffffffff16815260200190815260200160002060006101000a81548160ff0219169083151502179055508173ffffffffffffffffffffffffffffffffffffffff168373ffffffffffffffffffffffffffffffffffffffff167f17307eab39ab6107e8899845ad3d59bd9653f200f220920489ca2b5937696c318360405161144e9190612789565b60405180910390a3505050565b60008373ffffffffffffffffffffffffffffffffffffffff163b1115611605578273ffffffffffffffffffffffffffffffffffffffff1663150b7a02868685856040518563ffffffff1660e01b81526004016114ba94939291906132b6565b6020604051808303816000875af19250505080156114f657506040513d601f19601f820116820180604052508101906114f39190613317565b60015b61157a573d8060008114611526576040519150601f19603f3d011682016040523d82523d6000602084013e61152b565b606091505b50600081510361157257836040517f64a0ae9200000000000000000000000000000000000000000000000000000000815260040161156991906128fa565b60405180910390fd5b805181602001fd5b63150b7a0260e01b7bffffffffffffffffffffffffffffffffffffffffffffffffffffffff1916817bffffffffffffffffffffffffffffffffffffffffffffffffffffffff19161461160357836040517f64a0ae920000000000000000000000000000000000000000000000000000000081526004016115fa91906128fa565b60405180910390fd5b505b5050505050565b6060611617826110aa565b506000600a6000848152602001908152602001600020805461163890612e04565b80601f016020809104026020016040519081016040528092919081815260200182805461166490612e04565b80156116b15780601f10611686576101008083540402835291602001916116b1565b820191906000526020600020905b81548152906001019060200180831161169457829003601f168201915b5050505050905060006116c2611b82565b905060008151036116d757819250505061171a565b60008251111561170c5780826040516020016116f4929190613344565b6040516020818303038152906040529250505061171a565b61171584611b99565b925050505b919050565b6002600c540361175b576040517f3ee5aeb500000000000000000000000000000000000000000000000000000000815260040160405180910390fd5b6002600c81905550565b80600a600084815260200190815260200160002090816117859190613514565b507ff8e1a15aba9398e019f0b49df1a4fde98ee17ae345cb5f6b5e2c27f5033e8ce7826040516117b59190612990565b60405180910390a15050565b6117db828260405180602001604052806000815250611c02565b5050565b6001600c81905550565b60007f780e9d63000000000000000000000000000000000000000000000000000000007bffffffffffffffffffffffffffffffffffffffffffffffffffffffff1916827bffffffffffffffffffffffffffffffffffffffffffffffffffffffff1916148061185c575061185b82611c26565b5b9050919050565b60006002600083815260200190815260200160002060009054906101000a900473ffffffffffffffffffffffffffffffffffffffff169050919050565b80806118d95750600073ffffffffffffffffffffffffffffffffffffffff168273ffffffffffffffffffffffffffffffffffffffff1614155b15611a0d5760006118e9846110aa565b9050600073ffffffffffffffffffffffffffffffffffffffff168373ffffffffffffffffffffffffffffffffffffffff161415801561195457508273ffffffffffffffffffffffffffffffffffffffff168173ffffffffffffffffffffffffffffffffffffffff1614155b801561196757506119658184610f2f565b155b156119a957826040517fa9fbf51f0000000000000000000000000000000000000000000000000000000081526004016119a091906128fa565b60405180910390fd5b8115611a0b57838573ffffffffffffffffffffffffffffffffffffffff168273ffffffffffffffffffffffffffffffffffffffff167f8c5be1e5ebec7d5bd14f71427d1e84f3dd0314c0f7b2291e5b200ac8c7c3b92560405160405180910390a45b505b836004600085815260200190815260200160002060006101000a81548173ffffffffffffffffffffffffffffffffffffffff021916908373ffffffffffffffffffffffffffffffffffffffff16021790555050505050565b600080611a73858585611d08565b9050600073ffffffffffffffffffffffffffffffffffffffff168173ffffffffffffffffffffffffffffffffffffffff1603611ab757611ab284611f22565b611af6565b8473ffffffffffffffffffffffffffffffffffffffff168173ffffffffffffffffffffffffffffffffffffffff1614611af557611af48185611f6b565b5b5b600073ffffffffffffffffffffffffffffffffffffffff168573ffffffffffffffffffffffffffffffffffffffff1603611b3857611b3384612056565b611b77565b8473ffffffffffffffffffffffffffffffffffffffff168173ffffffffffffffffffffffffffffffffffffffff1614611b7657611b758585612127565b5b5b809150509392505050565b606060405180602001604052806000815250905090565b6060611ba4826110aa565b506000611baf611b82565b90506000815111611bcf5760405180602001604052806000815250611bfa565b80611bd9846121b2565b604051602001611bea929190613344565b6040516020818303038152906040525b915050919050565b611c0c8383612280565b611c21611c1761116f565b600085858561145b565b505050565b60007f80ac58cd000000000000000000000000000000000000000000000000000000007bffffffffffffffffffffffffffffffffffffffffffffffffffffffff1916827bffffffffffffffffffffffffffffffffffffffffffffffffffffffff19161480611cf157507f5b5e139f000000000000000000000000000000000000000000000000000000007bffffffffffffffffffffffffffffffffffffffffffffffffffffffff1916827bffffffffffffffffffffffffffffffffffffffffffffffffffffffff1916145b80611d015750611d0082612379565b5b9050919050565b600080611d1484611863565b9050600073ffffffffffffffffffffffffffffffffffffffff168373ffffffffffffffffffffffffffffffffffffffff1614611d5657611d558184866123e3565b5b600073ffffffffffffffffffffffffffffffffffffffff168173ffffffffffffffffffffffffffffffffffffffff1614611de757611d986000856000806118a0565b6001600360008373ffffffffffffffffffffffffffffffffffffffff1673ffffffffffffffffffffffffffffffffffffffff168152602001908152602001600020600082825403925050819055505b600073ffffffffffffffffffffffffffffffffffffffff168573ffffffffffffffffffffffffffffffffffffffff1614611e6a576001600360008773ffffffffffffffffffffffffffffffffffffffff1673ffffffffffffffffffffffffffffffffffffffff168152602001908152602001600020600082825401925050819055505b846002600086815260200190815260200160002060006101000a81548173ffffffffffffffffffffffffffffffffffffffff021916908373ffffffffffffffffffffffffffffffffffffffff160217905550838573ffffffffffffffffffffffffffffffffffffffff168273ffffffffffffffffffffffffffffffffffffffff167fddf252ad1be2c89b69c2b068fc378daa952ba7f163c4a11628f55a4df523b3ef60405160405180910390a4809150509392505050565b6008805490506009600083815260200190815260200160002081905550600881908060018154018082558091505060019003906000526020600020016000909190919091505550565b6000611f7683610871565b90506000600760008481526020019081526020016000205490506000600660008673ffffffffffffffffffffffffffffffffffffffff1673ffffffffffffffffffffffffffffffffffffffff16815260200190815260200160002090508282146120225760008160008581526020019081526020016000205490508082600085815260200190815260200160002081905550826007600083815260200190815260200160002081905550505b6007600085815260200190815260200160002060009055806000848152602001908152602001600020600090555050505050565b6000600160088054905061206a91906135e6565b905060006009600084815260200190815260200160002054905060006008838154811061209a57612099612e95565b5b9060005260206000200154905080600883815481106120bc576120bb612e95565b5b90600052602060002001819055508160096000838152602001908152602001600020819055506009600085815260200190815260200160002060009055600880548061210b5761210a61361a565b5b6001900381819060005260206000200160009055905550505050565b6000600161213484610871565b61213e91906135e6565b905081600660008573ffffffffffffffffffffffffffffffffffffffff1673ffffffffffffffffffffffffffffffffffffffff168152602001908152602001600020600083815260200190815260200160002081905550806007600084815260200190815260200160002081905550505050565b6060600060016121c1846124a7565b01905060008167ffffffffffffffff8111156121e0576121df612a08565b5b6040519080825280601f01601f1916602001820160405280156122125781602001600182028036833780820191505090505b509050600082602001820190505b600115612275578080600190039150507f3031323334353637383961626364656600000000000000000000000000000000600a86061a8153600a858161226957612268613649565b5b04945060008503612220575b819350505050919050565b600073ffffffffffffffffffffffffffffffffffffffff168273ffffffffffffffffffffffffffffffffffffffff16036122f25760006040517f64a0ae920000000000000000000000000000000000000000000000000000000081526004016122e991906128fa565b60405180910390fd5b600061230083836000611189565b9050600073ffffffffffffffffffffffffffffffffffffffff168173ffffffffffffffffffffffffffffffffffffffff16146123745760006040517f73c6ac6e00000000000000000000000000000000000000000000000000000000815260040161236b91906128fa565b60405180910390fd5b505050565b60007f01ffc9a7000000000000000000000000000000000000000000000000000000007bffffffffffffffffffffffffffffffffffffffffffffffffffffffff1916827bffffffffffffffffffffffffffffffffffffffffffffffffffffffff1916149050919050565b6123ee8383836125fa565b6124a257600073ffffffffffffffffffffffffffffffffffffffff168373ffffffffffffffffffffffffffffffffffffffff160361246357806040517f7e27328900000000000000000000000000000000000000000000000000000000815260040161245a9190612990565b60405180910390fd5b81816040517f177e802f000000000000000000000000000000000000000000000000000000008152600401612499929190612e6c565b60405180910390fd5b505050565b600080600090507a184f03e93ff9f4daa797ed6e38ed64bf6a1f0100000000000000008310612505577a184f03e93ff9f4daa797ed6e38ed64bf6a1f01000000000000000083816124fb576124fa613649565b5b0492506040810190505b6d04ee2d6d415b85acef81000000008310612542576d04ee2d6d415b85acef8100000000838161253857612537613649565b5b0492506020810190505b662386f26fc10000831061257157662386f26fc10000838161256757612566613649565b5b0492506010810190505b6305f5e100831061259a576305f5e10083816125905761258f613649565b5b0492506008810190505b61271083106125bf5761271083816125b5576125b4613649565b5b0492506004810190505b606483106125e257606483816125d8576125d7613649565b5b0492506002810190505b600a83106125f1576001810190505b80915050919050565b60008073ffffffffffffffffffffffffffffffffffffffff168373ffffffffffffffffffffffffffffffffffffffff16141580156126b257508273ffffffffffffffffffffffffffffffffffffffff168473ffffffffffffffffffffffffffffffffffffffff16148061267357506126728484610f2f565b5b806126b157508273ffffffffffffffffffffffffffffffffffffffff1661269983611132565b73ffffffffffffffffffffffffffffffffffffffff16145b5b90509392505050565b604051806040016040528060608152602001606081525090565b6000604051905090565b600080fd5b600080fd5b60007fffffffff0000000000000000000000000000000000000000000000000000000082169050919050565b61271e816126e9565b811461272957600080fd5b50565b60008135905061273b81612715565b92915050565b600060208284031215612757576127566126df565b5b60006127658482850161272c565b91505092915050565b60008115159050919050565b6127838161276e565b82525050565b600060208201905061279e600083018461277a565b92915050565b600081519050919050565b600082825260208201905092915050565b60005b838110156127de5780820151818401526020810190506127c3565b60008484015250505050565b6000601f19601f8301169050919050565b6000612806826127a4565b61281081856127af565b93506128208185602086016127c0565b612829816127ea565b840191505092915050565b6000602082019050818103600083015261284e81846127fb565b905092915050565b6000819050919050565b61286981612856565b811461287457600080fd5b50565b60008135905061288681612860565b92915050565b6000602082840312156128a2576128a16126df565b5b60006128b084828501612877565b91505092915050565b600073ffffffffffffffffffffffffffffffffffffffff82169050919050565b60006128e4826128b9565b9050919050565b6128f4816128d9565b82525050565b600060208201905061290f60008301846128eb565b92915050565b61291e816128d9565b811461292957600080fd5b50565b60008135905061293b81612915565b92915050565b60008060408385031215612958576129576126df565b5b60006129668582860161292c565b925050602061297785828601612877565b9150509250929050565b61298a81612856565b82525050565b60006020820190506129a56000830184612981565b92915050565b6000806000606084860312156129c4576129c36126df565b5b60006129d28682870161292c565b93505060206129e38682870161292c565b92505060406129f486828701612877565b9150509250925092565b600080fd5b600080fd5b7f4e487b7100000000000000000000000000000000000000000000000000000000600052604160045260246000fd5b612a40826127ea565b810181811067ffffffffffffffff82111715612a5f57612a5e612a08565b5b80604052505050565b6000612a726126d5565b9050612a7e8282612a37565b919050565b600067ffffffffffffffff821115612a9e57612a9d612a08565b5b612aa7826127ea565b9050602081019050919050565b82818337600083830152505050565b6000612ad6612ad184612a83565b612a68565b905082815260208101848484011115612af257612af1612a03565b5b612afd848285612ab4565b509392505050565b600082601f830112612b1a57612b196129fe565b5b8135612b2a848260208601612ac3565b91505092915050565b600060208284031215612b4957612b486126df565b5b600082013567ffffffffffffffff811115612b6757612b666126e4565b5b612b7384828501612b05565b91505092915050565b600060208284031215612b9257612b916126df565b5b6000612ba08482850161292c565b91505092915050565b612bb28161276e565b8114612bbd57600080fd5b50565b600081359050612bcf81612ba9565b92915050565b60008060408385031215612bec57612beb6126df565b5b6000612bfa8582860161292c565b9250506020612c0b85828601612bc0565b9150509250929050565b600067ffffffffffffffff821115612c3057612c2f612a08565b5b612c39826127ea565b9050602081019050919050565b6000612c59612c5484612c15565b612a68565b905082815260208101848484011115612c7557612c74612a03565b5b612c80848285612ab4565b509392505050565b600082601f830112612c9d57612c9c6129fe565b5b8135612cad848260208601612c46565b91505092915050565b60008060008060808587031215612cd057612ccf6126df565b5b6000612cde8782880161292c565b9450506020612cef8782880161292c565b9350506040612d0087828801612877565b925050606085013567ffffffffffffffff811115612d2157612d206126e4565b5b612d2d87828801612c88565b91505092959194509250565b60008060408385031215612d5057612d4f6126df565b5b6000612d5e8582860161292c565b925050602083013567ffffffffffffffff811115612d7f57612d7e6126e4565b5b612d8b85828601612b05565b9150509250929050565b60008060408385031215612dac57612dab6126df565b5b6000612dba8582860161292c565b9250506020612dcb8582860161292c565b9150509250929050565b7f4e487b7100000000000000000000000000000000000000000000000000000000600052602260045260246000fd5b60006002820490506001821680612e1c57607f821691505b602082108103612e2f57612e2e612dd5565b5b50919050565b6000606082019050612e4a60008301866128eb565b612e576020830185612981565b612e6460408301846128eb565b949350505050565b6000604082019050612e8160008301856128eb565b612e8e6020830184612981565b9392505050565b7f4e487b7100000000000000000000000000000000000000000000000000000000600052603260045260246000fd5b600081905092915050565b7f4469616d6f6e6400000000000000000000000000000000000000000000000000600082015250565b6000612f05600783612ec4565b9150612f1082612ecf565b600782019050919050565b6000612f2682612ef8565b9150819050919050565b7f476f6c6400000000000000000000000000000000000000000000000000000000600082015250565b6000612f66600483612ec4565b9150612f7182612f30565b600482019050919050565b6000612f8782612f59565b9150819050919050565b7f53696c7665720000000000000000000000000000000000000000000000000000600082015250565b6000612fc7600683612ec4565b9150612fd282612f91565b600682019050919050565b6000612fe882612fba565b9150819050919050565b600081519050919050565b600082825260208201905092915050565b6000819050602082019050919050565b600082825260208201905092915050565b600061303a826127a4565b613044818561301e565b93506130548185602086016127c0565b61305d816127ea565b840191505092915050565b60006040830160008301518482036000860152613085828261302f565b9150506020830151848203602086015261309f828261302f565b9150508091505092915050565b60006130b88383613068565b905092915050565b6000602082019050919050565b60006130d882612ff2565b6130e28185612ffd565b9350836020820285016130f48561300e565b8060005b85811015613130578484038952815161311185826130ac565b945061311c836130c0565b925060208a019950506001810190506130f8565b50829750879550505050505092915050565b6000602082019050818103600083015261315c81846130cd565b905092915050565b7f4e487b7100000000000000000000000000000000000000000000000000000000600052601160045260246000fd5b600061319e82612856565b91507fffffffffffffffffffffffffffffffffffffffffffffffffffffffffffffffff82036131d0576131cf613164565b5b600182019050919050565b60006131e6826127a4565b6131f08185612ec4565b93506132008185602086016127c0565b80840191505092915050565b600061321882846131db565b915081905092915050565b600060608201905061323860008301866128eb565b6132456020830185612981565b818103604083015261325781846127fb565b9050949350505050565b600081519050919050565b600082825260208201905092915050565b600061328882613261565b613292818561326c565b93506132a28185602086016127c0565b6132ab816127ea565b840191505092915050565b60006080820190506132cb60008301876128eb565b6132d860208301866128eb565b6132e56040830185612981565b81810360608301526132f7818461327d565b905095945050505050565b60008151905061331181612715565b92915050565b60006020828403121561332d5761332c6126df565b5b600061333b84828501613302565b91505092915050565b600061335082856131db565b915061335c82846131db565b91508190509392505050565b60008190508160005260206000209050919050565b60006020601f8301049050919050565b600082821b905092915050565b6000600883026133ca7fffffffffffffffffffffffffffffffffffffffffffffffffffffffffffffffff8261338d565b6133d4868361338d565b95508019841693508086168417925050509392505050565b6000819050919050565b600061341161340c61340784612856565b6133ec565b612856565b9050919050565b6000819050919050565b61342b836133f6565b61343f61343782613418565b84845461339a565b825550505050565b600090565b613454613447565b61345f818484613422565b505050565b5b818110156134835761347860008261344c565b600181019050613465565b5050565b601f8211156134c85761349981613368565b6134a28461337d565b810160208510156134b1578190505b6134c56134bd8561337d565b830182613464565b50505b505050565b600082821c905092915050565b60006134eb600019846008026134cd565b1980831691505092915050565b600061350483836134da565b9150826002028217905092915050565b61351d826127a4565b67ffffffffffffffff81111561353657613535612a08565b5b6135408254612e04565b61354b828285613487565b600060209050601f83116001811461357e576000841561356c578287015190505b61357685826134f8565b8655506135de565b601f19841661358c86613368565b60005b828110156135b45784890151825560018201915060208501945060208101905061358f565b868310156135d157848901516135cd601f8916826134da565b8355505b6001600288020188555050505b505050505050565b60006135f182612856565b91506135fc83612856565b925082820390508181111561361457613613613164565b5b92915050565b7f4e487b7100000000000000000000000000000000000000000000000000000000600052603160045260246000fd5b7f4e487b7100000000000000000000000000000000000000000000000000000000600052601260045260246000fdfea26469706673582212205fe22d1885f7fc2079dd2b6efbe5e799966217545a372a124eb2b692680bf37564736f6c634300081c0033697066733a2f2f516d577578616a724342584438516d53343178626f396d6b634d6a385044434d556642515a734670503154575a65697066733a2f2f516d52797361314c414671327942567351667a74566176644a4351433945485365324b443978486d327038786b74697066733a2f2f516d58486e746a41676a74687858476d745133335150504c72337a68355879317237446e64357933725168394d61",
  "linkReferences": {},
  "deployedLinkReferences": {}
}