{
  "_format": "hh-sol-artifact-1",
  "contractName": "NFT",
  "sourceName": "contracts/nft.sol",
  "abi": [
    {
      "inputs": [
        {
          "internalType": "string",
          "name": "tokenName",
          "type": "string"
        },
        {
          "internalType": "string",
          "name": "tokenSymol",
          "type": "string"
        }
      ],
      "stateMutability": "nonpayable",
      "type": "constructor"
    },
    {
      "inputs": [],
      "name": "ERC721EnumerableForbiddenBatchMint",
      "type": "error"
    },
    {
      "inputs": [
        {
          "internalType": "address",
          "name": "sender",
          "type": "address"
        },
        {
          "internalType": "uint256",
          "name": "tokenId",
          "type": "uint256"
        },
        {
          "internalType": "address",
          "name": "owner",
          "type": "address"
        }
      ],
      "name": "ERC721IncorrectOwner",
      "type": "error"
    },
    {
      "inputs": [
        {
          "internalType": "address",
          "name": "operator",
          "type": "address"
        },
        {
          "internalType": "uint256",
          "name": "tokenId",
          "type": "uint256"
        }
      ],
      "name": "ERC721InsufficientApproval",
      "type": "error"
    },
    {
      "inputs": [
        {
          "internalType": "address",
          "name": "approver",
          "type": "address"
        }
      ],
      "name": "ERC721InvalidApprover",
      "type": "error"
    },
    {
      "inputs": [
        {
          "internalType": "address",
          "name": "operator",
          "type": "address"
        }
      ],
      "name": "ERC721InvalidOperator",
      "type": "error"
    },
    {
      "inputs": [
        {
          "internalType": "address",
          "name": "owner",
          "type": "address"
        }
      ],
      "name": "ERC721InvalidOwner",
      "type": "error"
    },
    {
      "inputs": [
        {
          "internalType": "address",
          "name": "receiver",
          "type": "address"
        }
      ],
      "name": "ERC721InvalidReceiver",
      "type": "error"
    },
    {
      "inputs": [
        {
          "internalType": "address",
          "name": "sender",
          "type": "address"
        }
      ],
      "name": "ERC721InvalidSender",
      "type": "error"
    },
    {
      "inputs": [
        {
          "internalType": "uint256",
          "name": "tokenId",
          "type": "uint256"
        }
      ],
      "name": "ERC721NonexistentToken",
      "type": "error"
    },
    {
      "inputs": [
        {
          "internalType": "address",
          "name": "owner",
          "type": "address"
        },
        {
          "internalType": "uint256",
          "name": "index",
          "type": "uint256"
        }
      ],
      "name": "ERC721OutOfBoundsIndex",
      "type": "error"
    },
    {
      "inputs": [
        {
          "internalType": "address",
          "name": "owner",
          "type": "address"
        }
      ],
      "name": "OwnableInvalidOwner",
      "type": "error"
    },
    {
      "inputs": [
        {
          "internalType": "address",
          "name": "account",
          "type": "address"
        }
      ],
      "name": "OwnableUnauthorizedAccount",
      "type": "error"
    },
    {
      "anonymous": false,
      "inputs": [
        {
          "indexed": true,
          "internalType": "address",
          "name": "owner",
          "type": "address"
        },
        {
          "indexed": true,
          "internalType": "address",
          "name": "approved",
          "type": "address"
        },
        {
          "indexed": true,
          "internalType": "uint256",
          "name": "tokenId",
          "type": "uint256"
        }
      ],
      "name": "Approval",
      "type": "event"
    },
    {
      "anonymous": false,
      "inputs": [
        {
          "indexed": true,
          "internalType": "address",
          "name": "owner",
          "type": "address"
        },
        {
          "indexed": true,
          "internalType": "address",
          "name": "operator",
          "type": "address"
        },
        {
          "indexed": false,
          "internalType": "bool",
          "name": "approved",
          "type": "bool"
        }
      ],
      "name": "ApprovalForAll",
      "type": "event"
    },
    {
      "anonymous": false,
      "inputs": [
        {
          "indexed": false,
          "internalType": "uint256",
          "name": "_fromTokenId",
          "type": "uint256"
        },
        {
          "indexed": false,
          "internalType": "uint256",
          "name": "_toTokenId",
          "type": "uint256"
        }
      ],
      "name": "BatchMetadataUpdate",
      "type": "event"
    },
    {
      "anonymous": false,
      "inputs": [
        {
          "indexed": false,
          "internalType": "uint256",
          "name": "_tokenId",
          "type": "uint256"
        }
      ],
      "name": "MetadataUpdate",
      "type": "event"
    },
    {
      "anonymous": false,
      "inputs": [
        {
          "indexed": true,
          "internalType": "address",
          "name": "previousOwner",
          "type": "address"
        },
        {
          "indexed": true,
          "internalType": "address",
          "name": "newOwner",
          "type": "address"
        }
      ],
      "name": "OwnershipTransferred",
      "type": "event"
    },
    {
      "anonymous": false,
      "inputs": [
        {
          "indexed": true,
          "internalType": "address",
          "name": "from",
          "type": "address"
        },
        {
          "indexed": true,
          "internalType": "address",
          "name": "to",
          "type": "address"
        },
        {
          "indexed": true,
          "internalType": "uint256",
          "name": "tokenId",
          "type": "uint256"
        }
      ],
      "name": "Transfer",
      "type": "event"
    },
    {
      "inputs": [
        {
          "internalType": "address",
          "name": "to",
          "type": "address"
        },
        {
          "internalType": "uint256",
          "name": "tokenId",
          "type": "uint256"
        }
      ],
      "name": "approve",
      "outputs": [],
      "stateMutability": "nonpayable",
      "type": "function"
    },
    {
      "inputs": [
        {
          "internalType": "address",
          "name": "owner",
          "type": "address"
        }
      ],
      "name": "balanceOf",
      "outputs": [
        {
          "internalType": "uint256",
          "name": "",
          "type": "uint256"
        }
      ],
      "stateMutability": "view",
      "type": "function"
    },
    {
      "inputs": [
        {
          "internalType": "uint256",
          "name": "tokenId",
          "type": "uint256"
        }
      ],
      "name": "burn",
      "outputs": [],
      "stateMutability": "nonpayable",
      "type": "function"
    },
    {
      "inputs": [
        {
          "internalType": "uint256",
          "name": "tokenId",
          "type": "uint256"
        }
      ],
      "name": "getApproved",
      "outputs": [
        {
          "internalType": "address",
          "name": "",
          "type": "address"
        }
      ],
      "stateMutability": "view",
      "type": "function"
    },
    {
      "inputs": [
        {
          "internalType": "address",
          "name": "owner",
          "type": "address"
        },
        {
          "internalType": "address",
          "name": "operator",
          "type": "address"
        }
      ],
      "name": "isApprovedForAll",
      "outputs": [
        {
          "internalType": "bool",
          "name": "",
          "type": "bool"
        }
      ],
      "stateMutability": "view",
      "type": "function"
    },
    {
      "inputs": [
        {
          "internalType": "string",
          "name": "",
          "type": "string"
        }
      ],
      "name": "levelToMetaDataURI",
      "outputs": [
        {
          "internalType": "string",
          "name": "",
          "type": "string"
        }
      ],
      "stateMutability": "view",
      "type": "function"
    },
    {
      "inputs": [],
      "name": "name",
      "outputs": [
        {
          "internalType": "string",
          "name": "",
          "type": "string"
        }
      ],
      "stateMutability": "view",
      "type": "function"
    },
    {
      "inputs": [],
      "name": "owner",
      "outputs": [
        {
          "internalType": "address",
          "name": "",
          "type": "address"
        }
      ],
      "stateMutability": "view",
      "type": "function"
    },
    {
      "inputs": [
        {
          "internalType": "uint256",
          "name": "tokenId",
          "type": "uint256"
        }
      ],
      "name": "ownerOf",
      "outputs": [
        {
          "internalType": "address",
          "name": "",
          "type": "address"
        }
      ],
      "stateMutability": "view",
      "type": "function"
    },
    {
      "inputs": [],
      "name": "renounceOwnership",
      "outputs": [],
      "stateMutability": "nonpayable",
      "type": "function"
    },
    {
      "inputs": [
        {
          "internalType": "address",
          "name": "to",
          "type": "address"
        },
        {
          "internalType": "string",
          "name": "level",
          "type": "string"
        }
      ],
      "name": "safeMint",
      "outputs": [],
      "stateMutability": "nonpayable",
      "type": "function"
    },
    {
      "inputs": [
        {
          "internalType": "address",
          "name": "from",
          "type": "address"
        },
        {
          "internalType": "address",
          "name": "to",
          "type": "address"
        },
        {
          "internalType": "uint256",
          "name": "tokenId",
          "type": "uint256"
        }
      ],
      "name": "safeTransferFrom",
      "outputs": [],
      "stateMutability": "nonpayable",
      "type": "function"
    },
    {
      "inputs": [
        {
          "internalType": "address",
          "name": "from",
          "type": "address"
        },
        {
          "internalType": "address",
          "name": "to",
          "type": "address"
        },
        {
          "internalType": "uint256",
          "name": "tokenId",
          "type": "uint256"
        },
        {
          "internalType": "bytes",
          "name": "data",
          "type": "bytes"
        }
      ],
      "name": "safeTransferFrom",
      "outputs": [],
      "stateMutability": "nonpayable",
      "type": "function"
    },
    {
      "inputs": [
        {
          "internalType": "address",
          "name": "operator",
          "type": "address"
        },
        {
          "internalType": "bool",
          "name": "approved",
          "type": "bool"
        }
      ],
      "name": "setApprovalForAll",
      "outputs": [],
      "stateMutability": "nonpayable",
      "type": "function"
    },
    {
      "inputs": [
        {
          "internalType": "bytes4",
          "name": "interfaceId",
          "type": "bytes4"
        }
      ],
      "name": "supportsInterface",
      "outputs": [
        {
          "internalType": "bool",
          "name": "",
          "type": "bool"
        }
      ],
      "stateMutability": "view",
      "type": "function"
    },
    {
      "inputs": [],
      "name": "symbol",
      "outputs": [
        {
          "internalType": "string",
          "name": "",
          "type": "string"
        }
      ],
      "stateMutability": "view",
      "type": "function"
    },
    {
      "inputs": [
        {
          "internalType": "uint256",
          "name": "index",
          "type": "uint256"
        }
      ],
      "name": "tokenByIndex",
      "outputs": [
        {
          "internalType": "uint256",
          "name": "",
          "type": "uint256"
        }
      ],
      "stateMutability": "view",
      "type": "function"
    },
    {
      "inputs": [
        {
          "internalType": "address",
          "name": "owner",
          "type": "address"
        },
        {
          "internalType": "uint256",
          "name": "index",
          "type": "uint256"
        }
      ],
      "name": "tokenOfOwnerByIndex",
      "outputs": [
        {
          "internalType": "uint256",
          "name": "",
          "type": "uint256"
        }
      ],
      "stateMutability": "view",
      "type": "function"
    },
    {
      "inputs": [
        {
          "internalType": "uint256",
          "name": "tokenId",
          "type": "uint256"
        }
      ],
      "name": "tokenURI",
      "outputs": [
        {
          "internalType": "string",
          "name": "",
          "type": "string"
        }
      ],
      "stateMutability": "view",
      "type": "function"
    },
    {
      "inputs": [],
      "name": "totalSupply",
      "outputs": [
        {
          "internalType": "uint256",
          "name": "",
          "type": "uint256"
        }
      ],
      "stateMutability": "view",
      "type": "function"
    },
    {
      "inputs": [
        {
          "internalType": "address",
          "name": "from",
          "type": "address"
        },
        {
          "internalType": "address",
          "name": "to",
          "type": "address"
        },
        {
          "internalType": "uint256",
          "name": "tokenId",
          "type": "uint256"
        }
      ],
      "name": "transferFrom",
      "outputs": [],
      "stateMutability": "nonpayable",
      "type": "function"
    },
    {
      "inputs": [
        {
          "internalType": "address",
          "name": "newOwner",
          "type": "address"
        }
      ],
      "name": "transferOwnership",
      "outputs": [],
      "stateMutability": "nonpayable",
      "type": "function"
    }
  ],
  "bytecode": "0x608060405234801561001057600080fd5b506040516138d33803806138d3833981810160405281019061003291906103e1565b3382828160009081610044919061067a565b508060019081610054919061067a565b505050600073ffffffffffffffffffffffffffffffffffffffff168173ffffffffffffffffffffffffffffffffffffffff16036100c95760006040517f1e4fbdf70000000000000000000000000000000000000000000000000000000081526004016100c0919061078d565b60405180910390fd5b6100d8816101a660201b60201c565b5060405180606001604052806035815260200161383460359139600d604051610100906107ff565b9081526020016040518091039020908161011a919061067a565b5060405180606001604052806035815260200161386960359139600d60405161014290610860565b9081526020016040518091039020908161015c919061067a565b5060405180606001604052806035815260200161389e60359139600d604051610184906108c1565b9081526020016040518091039020908161019e919061067a565b5050506108d6565b6000600b60009054906101000a900473ffffffffffffffffffffffffffffffffffffffff16905081600b60006101000a81548173ffffffffffffffffffffffffffffffffffffffff021916908373ffffffffffffffffffffffffffffffffffffffff1602179055508173ffffffffffffffffffffffffffffffffffffffff168173ffffffffffffffffffffffffffffffffffffffff167f8be0079c531659141344cd1fd0a4f28419497f9722a3daafe3b4186f6b6457e060405160405180910390a35050565b6000604051905090565b600080fd5b600080fd5b600080fd5b600080fd5b6000601f19601f8301169050919050565b7f4e487b7100000000000000000000000000000000000000000000000000000000600052604160045260246000fd5b6102d38261028a565b810181811067ffffffffffffffff821117156102f2576102f161029b565b5b80604052505050565b600061030561026c565b905061031182826102ca565b919050565b600067ffffffffffffffff8211156103315761033061029b565b5b61033a8261028a565b9050602081019050919050565b60005b8381101561036557808201518184015260208101905061034a565b60008484015250505050565b600061038461037f84610316565b6102fb565b9050828152602081018484840111156103a05761039f610285565b5b6103ab848285610347565b509392505050565b600082601f8301126103c8576103c7610280565b5b81516103d8848260208601610371565b91505092915050565b600080604083850312156103f8576103f7610276565b5b600083015167ffffffffffffffff8111156104165761041561027b565b5b610422858286016103b3565b925050602083015167ffffffffffffffff8111156104435761044261027b565b5b61044f858286016103b3565b9150509250929050565b600081519050919050565b7f4e487b7100000000000000000000000000000000000000000000000000000000600052602260045260246000fd5b600060028204905060018216806104ab57607f821691505b6020821081036104be576104bd610464565b5b50919050565b60008190508160005260206000209050919050565b60006020601f8301049050919050565b600082821b905092915050565b6000600883026105267fffffffffffffffffffffffffffffffffffffffffffffffffffffffffffffffff826104e9565b61053086836104e9565b95508019841693508086168417925050509392505050565b6000819050919050565b6000819050919050565b600061057761057261056d84610548565b610552565b610548565b9050919050565b6000819050919050565b6105918361055c565b6105a561059d8261057e565b8484546104f6565b825550505050565b600090565b6105ba6105ad565b6105c5818484610588565b505050565b5b818110156105e9576105de6000826105b2565b6001810190506105cb565b5050565b601f82111561062e576105ff816104c4565b610608846104d9565b81016020851015610617578190505b61062b610623856104d9565b8301826105ca565b50505b505050565b600082821c905092915050565b600061065160001984600802610633565b1980831691505092915050565b600061066a8383610640565b9150826002028217905092915050565b61068382610459565b67ffffffffffffffff81111561069c5761069b61029b565b5b6106a68254610493565b6106b18282856105ed565b600060209050601f8311600181146106e457600084156106d2578287015190505b6106dc858261065e565b865550610744565b601f1984166106f2866104c4565b60005b8281101561071a578489015182556001820191506020850194506020810190506106f5565b868310156107375784890151610733601f891682610640565b8355505b6001600288020188555050505b505050505050565b600073ffffffffffffffffffffffffffffffffffffffff82169050919050565b60006107778261074c565b9050919050565b6107878161076c565b82525050565b60006020820190506107a2600083018461077e565b92915050565b600081905092915050565b7f4469616d6f6e6400000000000000000000000000000000000000000000000000600082015250565b60006107e96007836107a8565b91506107f4826107b3565b600782019050919050565b600061080a826107dc565b9150819050919050565b7f476f6c6400000000000000000000000000000000000000000000000000000000600082015250565b600061084a6004836107a8565b915061085582610814565b600482019050919050565b600061086b8261083d565b9150819050919050565b7f53696c7665720000000000000000000000000000000000000000000000000000600082015250565b60006108ab6006836107a8565b91506108b682610875565b600682019050919050565b60006108cc8261089e565b9150819050919050565b612f4f806108e56000396000f3fe608060405234801561001057600080fd5b50600436106101425760003560e01c80636352211e116100b8578063a22cb4651161007c578063a22cb46514610389578063b88d4fde146103a5578063c87b56dd146103c1578063d204c45e146103f1578063e985e9c51461040d578063f2fde38b1461043d57610142565b80636352211e146102e357806370a0823114610313578063715018a6146103435780638da5cb5b1461034d57806395d89b411461036b57610142565b806323b872dd1161010a57806323b872dd146101ff5780632f745c591461021b57806342842e0e1461024b57806342966c68146102675780634f6ccce71461028357806353bb4b7f146102b357610142565b806301ffc9a71461014757806306fdde0314610177578063081812fc14610195578063095ea7b3146101c557806318160ddd146101e1575b600080fd5b610161600480360381019061015c91906122b5565b610459565b60405161016e91906122fd565b60405180910390f35b61017f61046b565b60405161018c91906123a8565b60405180910390f35b6101af60048036038101906101aa9190612400565b6104fd565b6040516101bc919061246e565b60405180910390f35b6101df60048036038101906101da91906124b5565b610519565b005b6101e961052f565b6040516101f69190612504565b60405180910390f35b6102196004803603810190610214919061251f565b61053c565b005b610235600480360381019061023091906124b5565b61063e565b6040516102429190612504565b60405180910390f35b6102656004803603810190610260919061251f565b6106e7565b005b610281600480360381019061027c9190612400565b610707565b005b61029d60048036038101906102989190612400565b61071e565b6040516102aa9190612504565b60405180910390f35b6102cd60048036038101906102c891906126a7565b610794565b6040516102da91906123a8565b60405180910390f35b6102fd60048036038101906102f89190612400565b61084a565b60405161030a919061246e565b60405180910390f35b61032d600480360381019061032891906126f0565b61085c565b60405161033a9190612504565b60405180910390f35b61034b610916565b005b61035561092a565b604051610362919061246e565b60405180910390f35b610373610954565b60405161038091906123a8565b60405180910390f35b6103a3600480360381019061039e9190612749565b6109e6565b005b6103bf60048036038101906103ba919061282a565b6109fc565b005b6103db60048036038101906103d69190612400565b610a21565b6040516103e891906123a8565b60405180910390f35b61040b600480360381019061040691906128ad565b610a33565b005b61042760048036038101906104229190612909565b610b0d565b60405161043491906122fd565b60405180910390f35b610457600480360381019061045291906126f0565b610ba1565b005b600061046482610c27565b9050919050565b60606000805461047a90612978565b80601f01602080910402602001604051908101604052809291908181526020018280546104a690612978565b80156104f35780601f106104c8576101008083540402835291602001916104f3565b820191906000526020600020905b8154815290600101906020018083116104d657829003601f168201915b5050505050905090565b600061050882610c88565b5061051282610d10565b9050919050565b61052b8282610526610d4d565b610d55565b5050565b6000600880549050905090565b600073ffffffffffffffffffffffffffffffffffffffff168273ffffffffffffffffffffffffffffffffffffffff16036105ae5760006040517f64a0ae920000000000000000000000000000000000000000000000000000000081526004016105a5919061246e565b60405180910390fd5b60006105c283836105bd610d4d565b610d67565b90508373ffffffffffffffffffffffffffffffffffffffff168173ffffffffffffffffffffffffffffffffffffffff1614610638578382826040517f64283d7b00000000000000000000000000000000000000000000000000000000815260040161062f939291906129a9565b60405180910390fd5b50505050565b60006106498361085c565b821061068e5782826040517fa57d13dc0000000000000000000000000000000000000000000000000000000081526004016106859291906129e0565b60405180910390fd5b600660008473ffffffffffffffffffffffffffffffffffffffff1673ffffffffffffffffffffffffffffffffffffffff168152602001908152602001600020600083815260200190815260200160002054905092915050565b610702838383604051806020016040528060008152506109fc565b505050565b61071a600082610715610d4d565b610d67565b5050565b600061072861052f565b821061076e576000826040517fa57d13dc0000000000000000000000000000000000000000000000000000000081526004016107659291906129e0565b60405180910390fd5b6008828154811061078257610781612a09565b5b90600052602060002001549050919050565b600d8180516020810182018051848252602083016020850120818352809550505050505060009150905080546107c990612978565b80601f01602080910402602001604051908101604052809291908181526020018280546107f590612978565b80156108425780601f1061081757610100808354040283529160200191610842565b820191906000526020600020905b81548152906001019060200180831161082557829003601f168201915b505050505081565b600061085582610c88565b9050919050565b60008073ffffffffffffffffffffffffffffffffffffffff168273ffffffffffffffffffffffffffffffffffffffff16036108cf5760006040517f89c62b640000000000000000000000000000000000000000000000000000000081526004016108c6919061246e565b60405180910390fd5b600360008373ffffffffffffffffffffffffffffffffffffffff1673ffffffffffffffffffffffffffffffffffffffff168152602001908152602001600020549050919050565b61091e610d7d565b6109286000610e04565b565b6000600b60009054906101000a900473ffffffffffffffffffffffffffffffffffffffff16905090565b60606001805461096390612978565b80601f016020809104026020016040519081016040528092919081815260200182805461098f90612978565b80156109dc5780601f106109b1576101008083540402835291602001916109dc565b820191906000526020600020905b8154815290600101906020018083116109bf57829003601f168201915b5050505050905090565b6109f86109f1610d4d565b8383610eca565b5050565b610a0784848461053c565b610a1b610a12610d4d565b85858585611039565b50505050565b6060610a2c826111ea565b9050919050565b6000600c6000815480929190610a4890612a67565b919050559050610a5883826112fd565b610b0881600d84604051610a6c9190612aeb565b90815260200160405180910390208054610a8590612978565b80601f0160208091040260200160405190810160405280929190818152602001828054610ab190612978565b8015610afe5780601f10610ad357610100808354040283529160200191610afe565b820191906000526020600020905b815481529060010190602001808311610ae157829003601f168201915b505050505061131b565b505050565b6000600560008473ffffffffffffffffffffffffffffffffffffffff1673ffffffffffffffffffffffffffffffffffffffff16815260200190815260200160002060008373ffffffffffffffffffffffffffffffffffffffff1673ffffffffffffffffffffffffffffffffffffffff16815260200190815260200160002060009054906101000a900460ff16905092915050565b610ba9610d7d565b600073ffffffffffffffffffffffffffffffffffffffff168173ffffffffffffffffffffffffffffffffffffffff1603610c1b5760006040517f1e4fbdf7000000000000000000000000000000000000000000000000000000008152600401610c12919061246e565b60405180910390fd5b610c2481610e04565b50565b6000634906490660e01b7bffffffffffffffffffffffffffffffffffffffffffffffffffffffff1916827bffffffffffffffffffffffffffffffffffffffffffffffffffffffff19161480610c815750610c8082611377565b5b9050919050565b600080610c94836113f1565b9050600073ffffffffffffffffffffffffffffffffffffffff168173ffffffffffffffffffffffffffffffffffffffff1603610d0757826040517f7e273289000000000000000000000000000000000000000000000000000000008152600401610cfe9190612504565b60405180910390fd5b80915050919050565b60006004600083815260200190815260200160002060009054906101000a900473ffffffffffffffffffffffffffffffffffffffff169050919050565b600033905090565b610d62838383600161142e565b505050565b6000610d748484846115f3565b90509392505050565b610d85610d4d565b73ffffffffffffffffffffffffffffffffffffffff16610da361092a565b73ffffffffffffffffffffffffffffffffffffffff1614610e0257610dc6610d4d565b6040517f118cdaa7000000000000000000000000000000000000000000000000000000008152600401610df9919061246e565b60405180910390fd5b565b6000600b60009054906101000a900473ffffffffffffffffffffffffffffffffffffffff16905081600b60006101000a81548173ffffffffffffffffffffffffffffffffffffffff021916908373ffffffffffffffffffffffffffffffffffffffff1602179055508173ffffffffffffffffffffffffffffffffffffffff168173ffffffffffffffffffffffffffffffffffffffff167f8be0079c531659141344cd1fd0a4f28419497f9722a3daafe3b4186f6b6457e060405160405180910390a35050565b600073ffffffffffffffffffffffffffffffffffffffff168273ffffffffffffffffffffffffffffffffffffffff1603610f3b57816040517f5b08ba18000000000000000000000000000000000000000000000000000000008152600401610f32919061246e565b60405180910390fd5b80600560008573ffffffffffffffffffffffffffffffffffffffff1673ffffffffffffffffffffffffffffffffffffffff16815260200190815260200160002060008473ffffffffffffffffffffffffffffffffffffffff1673ffffffffffffffffffffffffffffffffffffffff16815260200190815260200160002060006101000a81548160ff0219169083151502179055508173ffffffffffffffffffffffffffffffffffffffff168373ffffffffffffffffffffffffffffffffffffffff167f17307eab39ab6107e8899845ad3d59bd9653f200f220920489ca2b5937696c318360405161102c91906122fd565b60405180910390a3505050565b60008373ffffffffffffffffffffffffffffffffffffffff163b11156111e3578273ffffffffffffffffffffffffffffffffffffffff1663150b7a02868685856040518563ffffffff1660e01b81526004016110989493929190612b57565b6020604051808303816000875af19250505080156110d457506040513d601f19601f820116820180604052508101906110d19190612bb8565b60015b611158573d8060008114611104576040519150601f19603f3d011682016040523d82523d6000602084013e611109565b606091505b50600081510361115057836040517f64a0ae92000000000000000000000000000000000000000000000000000000008152600401611147919061246e565b60405180910390fd5b805181602001fd5b63150b7a0260e01b7bffffffffffffffffffffffffffffffffffffffffffffffffffffffff1916817bffffffffffffffffffffffffffffffffffffffffffffffffffffffff1916146111e157836040517f64a0ae920000000000000000000000000000000000000000000000000000000081526004016111d8919061246e565b60405180910390fd5b505b5050505050565b60606111f582610c88565b506000600a6000848152602001908152602001600020805461121690612978565b80601f016020809104026020016040519081016040528092919081815260200182805461124290612978565b801561128f5780601f106112645761010080835404028352916020019161128f565b820191906000526020600020905b81548152906001019060200180831161127257829003601f168201915b5050505050905060006112a0611710565b905060008151036112b55781925050506112f8565b6000825111156112ea5780826040516020016112d2929190612be5565b604051602081830303815290604052925050506112f8565b6112f384611727565b925050505b919050565b611317828260405180602001604052806000815250611790565b5050565b80600a6000848152602001908152602001600020908161133b9190612db5565b507ff8e1a15aba9398e019f0b49df1a4fde98ee17ae345cb5f6b5e2c27f5033e8ce78260405161136b9190612504565b60405180910390a15050565b60007f780e9d63000000000000000000000000000000000000000000000000000000007bffffffffffffffffffffffffffffffffffffffffffffffffffffffff1916827bffffffffffffffffffffffffffffffffffffffffffffffffffffffff191614806113ea57506113e9826117b4565b5b9050919050565b60006002600083815260200190815260200160002060009054906101000a900473ffffffffffffffffffffffffffffffffffffffff169050919050565b80806114675750600073ffffffffffffffffffffffffffffffffffffffff168273ffffffffffffffffffffffffffffffffffffffff1614155b1561159b57600061147784610c88565b9050600073ffffffffffffffffffffffffffffffffffffffff168373ffffffffffffffffffffffffffffffffffffffff16141580156114e257508273ffffffffffffffffffffffffffffffffffffffff168173ffffffffffffffffffffffffffffffffffffffff1614155b80156114f557506114f38184610b0d565b155b1561153757826040517fa9fbf51f00000000000000000000000000000000000000000000000000000000815260040161152e919061246e565b60405180910390fd5b811561159957838573ffffffffffffffffffffffffffffffffffffffff168273ffffffffffffffffffffffffffffffffffffffff167f8c5be1e5ebec7d5bd14f71427d1e84f3dd0314c0f7b2291e5b200ac8c7c3b92560405160405180910390a45b505b836004600085815260200190815260200160002060006101000a81548173ffffffffffffffffffffffffffffffffffffffff021916908373ffffffffffffffffffffffffffffffffffffffff16021790555050505050565b600080611601858585611896565b9050600073ffffffffffffffffffffffffffffffffffffffff168173ffffffffffffffffffffffffffffffffffffffff16036116455761164084611ab0565b611684565b8473ffffffffffffffffffffffffffffffffffffffff168173ffffffffffffffffffffffffffffffffffffffff1614611683576116828185611af9565b5b5b600073ffffffffffffffffffffffffffffffffffffffff168573ffffffffffffffffffffffffffffffffffffffff16036116c6576116c184611be4565b611705565b8473ffffffffffffffffffffffffffffffffffffffff168173ffffffffffffffffffffffffffffffffffffffff1614611704576117038585611cb5565b5b5b809150509392505050565b606060405180602001604052806000815250905090565b606061173282610c88565b50600061173d611710565b9050600081511161175d5760405180602001604052806000815250611788565b8061176784611d40565b604051602001611778929190612be5565b6040516020818303038152906040525b915050919050565b61179a8383611e0e565b6117af6117a5610d4d565b6000858585611039565b505050565b60007f80ac58cd000000000000000000000000000000000000000000000000000000007bffffffffffffffffffffffffffffffffffffffffffffffffffffffff1916827bffffffffffffffffffffffffffffffffffffffffffffffffffffffff1916148061187f57507f5b5e139f000000000000000000000000000000000000000000000000000000007bffffffffffffffffffffffffffffffffffffffffffffffffffffffff1916827bffffffffffffffffffffffffffffffffffffffffffffffffffffffff1916145b8061188f575061188e82611f07565b5b9050919050565b6000806118a2846113f1565b9050600073ffffffffffffffffffffffffffffffffffffffff168373ffffffffffffffffffffffffffffffffffffffff16146118e4576118e3818486611f71565b5b600073ffffffffffffffffffffffffffffffffffffffff168173ffffffffffffffffffffffffffffffffffffffff16146119755761192660008560008061142e565b6001600360008373ffffffffffffffffffffffffffffffffffffffff1673ffffffffffffffffffffffffffffffffffffffff168152602001908152602001600020600082825403925050819055505b600073ffffffffffffffffffffffffffffffffffffffff168573ffffffffffffffffffffffffffffffffffffffff16146119f8576001600360008773ffffffffffffffffffffffffffffffffffffffff1673ffffffffffffffffffffffffffffffffffffffff168152602001908152602001600020600082825401925050819055505b846002600086815260200190815260200160002060006101000a81548173ffffffffffffffffffffffffffffffffffffffff021916908373ffffffffffffffffffffffffffffffffffffffff160217905550838573ffffffffffffffffffffffffffffffffffffffff168273ffffffffffffffffffffffffffffffffffffffff167fddf252ad1be2c89b69c2b068fc378daa952ba7f163c4a11628f55a4df523b3ef60405160405180910390a4809150509392505050565b6008805490506009600083815260200190815260200160002081905550600881908060018154018082558091505060019003906000526020600020016000909190919091505550565b6000611b048361085c565b90506000600760008481526020019081526020016000205490506000600660008673ffffffffffffffffffffffffffffffffffffffff1673ffffffffffffffffffffffffffffffffffffffff1681526020019081526020016000209050828214611bb05760008160008581526020019081526020016000205490508082600085815260200190815260200160002081905550826007600083815260200190815260200160002081905550505b6007600085815260200190815260200160002060009055806000848152602001908152602001600020600090555050505050565b60006001600880549050611bf89190612e87565b9050600060096000848152602001908152602001600020549050600060088381548110611c2857611c27612a09565b5b906000526020600020015490508060088381548110611c4a57611c49612a09565b5b906000526020600020018190555081600960008381526020019081526020016000208190555060096000858152602001908152602001600020600090556008805480611c9957611c98612ebb565b5b6001900381819060005260206000200160009055905550505050565b60006001611cc28461085c565b611ccc9190612e87565b905081600660008573ffffffffffffffffffffffffffffffffffffffff1673ffffffffffffffffffffffffffffffffffffffff168152602001908152602001600020600083815260200190815260200160002081905550806007600084815260200190815260200160002081905550505050565b606060006001611d4f84612035565b01905060008167ffffffffffffffff811115611d6e57611d6d61257c565b5b6040519080825280601f01601f191660200182016040528015611da05781602001600182028036833780820191505090505b509050600082602001820190505b600115611e03578080600190039150507f3031323334353637383961626364656600000000000000000000000000000000600a86061a8153600a8581611df757611df6612eea565b5b04945060008503611dae575b819350505050919050565b600073ffffffffffffffffffffffffffffffffffffffff168273ffffffffffffffffffffffffffffffffffffffff1603611e805760006040517f64a0ae92000000000000000000000000000000000000000000000000000000008152600401611e77919061246e565b60405180910390fd5b6000611e8e83836000610d67565b9050600073ffffffffffffffffffffffffffffffffffffffff168173ffffffffffffffffffffffffffffffffffffffff1614611f025760006040517f73c6ac6e000000000000000000000000000000000000000000000000000000008152600401611ef9919061246e565b60405180910390fd5b505050565b60007f01ffc9a7000000000000000000000000000000000000000000000000000000007bffffffffffffffffffffffffffffffffffffffffffffffffffffffff1916827bffffffffffffffffffffffffffffffffffffffffffffffffffffffff1916149050919050565b611f7c838383612188565b61203057600073ffffffffffffffffffffffffffffffffffffffff168373ffffffffffffffffffffffffffffffffffffffff1603611ff157806040517f7e273289000000000000000000000000000000000000000000000000000000008152600401611fe89190612504565b60405180910390fd5b81816040517f177e802f0000000000000000000000000000000000000000000000000000000081526004016120279291906129e0565b60405180910390fd5b505050565b600080600090507a184f03e93ff9f4daa797ed6e38ed64bf6a1f0100000000000000008310612093577a184f03e93ff9f4daa797ed6e38ed64bf6a1f010000000000000000838161208957612088612eea565b5b0492506040810190505b6d04ee2d6d415b85acef810000000083106120d0576d04ee2d6d415b85acef810000000083816120c6576120c5612eea565b5b0492506020810190505b662386f26fc1000083106120ff57662386f26fc1000083816120f5576120f4612eea565b5b0492506010810190505b6305f5e1008310612128576305f5e100838161211e5761211d612eea565b5b0492506008810190505b612710831061214d57612710838161214357612142612eea565b5b0492506004810190505b60648310612170576064838161216657612165612eea565b5b0492506002810190505b600a831061217f576001810190505b80915050919050565b60008073ffffffffffffffffffffffffffffffffffffffff168373ffffffffffffffffffffffffffffffffffffffff161415801561224057508273ffffffffffffffffffffffffffffffffffffffff168473ffffffffffffffffffffffffffffffffffffffff16148061220157506122008484610b0d565b5b8061223f57508273ffffffffffffffffffffffffffffffffffffffff1661222783610d10565b73ffffffffffffffffffffffffffffffffffffffff16145b5b90509392505050565b6000604051905090565b600080fd5b600080fd5b60007fffffffff0000000000000000000000000000000000000000000000000000000082169050919050565b6122928161225d565b811461229d57600080fd5b50565b6000813590506122af81612289565b92915050565b6000602082840312156122cb576122ca612253565b5b60006122d9848285016122a0565b91505092915050565b60008115159050919050565b6122f7816122e2565b82525050565b600060208201905061231260008301846122ee565b92915050565b600081519050919050565b600082825260208201905092915050565b60005b83811015612352578082015181840152602081019050612337565b60008484015250505050565b6000601f19601f8301169050919050565b600061237a82612318565b6123848185612323565b9350612394818560208601612334565b61239d8161235e565b840191505092915050565b600060208201905081810360008301526123c2818461236f565b905092915050565b6000819050919050565b6123dd816123ca565b81146123e857600080fd5b50565b6000813590506123fa816123d4565b92915050565b60006020828403121561241657612415612253565b5b6000612424848285016123eb565b91505092915050565b600073ffffffffffffffffffffffffffffffffffffffff82169050919050565b60006124588261242d565b9050919050565b6124688161244d565b82525050565b6000602082019050612483600083018461245f565b92915050565b6124928161244d565b811461249d57600080fd5b50565b6000813590506124af81612489565b92915050565b600080604083850312156124cc576124cb612253565b5b60006124da858286016124a0565b92505060206124eb858286016123eb565b9150509250929050565b6124fe816123ca565b82525050565b600060208201905061251960008301846124f5565b92915050565b60008060006060848603121561253857612537612253565b5b6000612546868287016124a0565b9350506020612557868287016124a0565b9250506040612568868287016123eb565b9150509250925092565b600080fd5b600080fd5b7f4e487b7100000000000000000000000000000000000000000000000000000000600052604160045260246000fd5b6125b48261235e565b810181811067ffffffffffffffff821117156125d3576125d261257c565b5b80604052505050565b60006125e6612249565b90506125f282826125ab565b919050565b600067ffffffffffffffff8211156126125761261161257c565b5b61261b8261235e565b9050602081019050919050565b82818337600083830152505050565b600061264a612645846125f7565b6125dc565b90508281526020810184848401111561266657612665612577565b5b612671848285612628565b509392505050565b600082601f83011261268e5761268d612572565b5b813561269e848260208601612637565b91505092915050565b6000602082840312156126bd576126bc612253565b5b600082013567ffffffffffffffff8111156126db576126da612258565b5b6126e784828501612679565b91505092915050565b60006020828403121561270657612705612253565b5b6000612714848285016124a0565b91505092915050565b612726816122e2565b811461273157600080fd5b50565b6000813590506127438161271d565b92915050565b600080604083850312156127605761275f612253565b5b600061276e858286016124a0565b925050602061277f85828601612734565b9150509250929050565b600067ffffffffffffffff8211156127a4576127a361257c565b5b6127ad8261235e565b9050602081019050919050565b60006127cd6127c884612789565b6125dc565b9050828152602081018484840111156127e9576127e8612577565b5b6127f4848285612628565b509392505050565b600082601f83011261281157612810612572565b5b81356128218482602086016127ba565b91505092915050565b6000806000806080858703121561284457612843612253565b5b6000612852878288016124a0565b9450506020612863878288016124a0565b9350506040612874878288016123eb565b925050606085013567ffffffffffffffff81111561289557612894612258565b5b6128a1878288016127fc565b91505092959194509250565b600080604083850312156128c4576128c3612253565b5b60006128d2858286016124a0565b925050602083013567ffffffffffffffff8111156128f3576128f2612258565b5b6128ff85828601612679565b9150509250929050565b600080604083850312156129205761291f612253565b5b600061292e858286016124a0565b925050602061293f858286016124a0565b9150509250929050565b7f4e487b7100000000000000000000000000000000000000000000000000000000600052602260045260246000fd5b6000600282049050600182168061299057607f821691505b6020821081036129a3576129a2612949565b5b50919050565b60006060820190506129be600083018661245f565b6129cb60208301856124f5565b6129d8604083018461245f565b949350505050565b60006040820190506129f5600083018561245f565b612a0260208301846124f5565b9392505050565b7f4e487b7100000000000000000000000000000000000000000000000000000000600052603260045260246000fd5b7f4e487b7100000000000000000000000000000000000000000000000000000000600052601160045260246000fd5b6000612a72826123ca565b91507fffffffffffffffffffffffffffffffffffffffffffffffffffffffffffffffff8203612aa457612aa3612a38565b5b600182019050919050565b600081905092915050565b6000612ac582612318565b612acf8185612aaf565b9350612adf818560208601612334565b80840191505092915050565b6000612af78284612aba565b915081905092915050565b600081519050919050565b600082825260208201905092915050565b6000612b2982612b02565b612b338185612b0d565b9350612b43818560208601612334565b612b4c8161235e565b840191505092915050565b6000608082019050612b6c600083018761245f565b612b79602083018661245f565b612b8660408301856124f5565b8181036060830152612b988184612b1e565b905095945050505050565b600081519050612bb281612289565b92915050565b600060208284031215612bce57612bcd612253565b5b6000612bdc84828501612ba3565b91505092915050565b6000612bf18285612aba565b9150612bfd8284612aba565b91508190509392505050565b60008190508160005260206000209050919050565b60006020601f8301049050919050565b600082821b905092915050565b600060088302612c6b7fffffffffffffffffffffffffffffffffffffffffffffffffffffffffffffffff82612c2e565b612c758683612c2e565b95508019841693508086168417925050509392505050565b6000819050919050565b6000612cb2612cad612ca8846123ca565b612c8d565b6123ca565b9050919050565b6000819050919050565b612ccc83612c97565b612ce0612cd882612cb9565b848454612c3b565b825550505050565b600090565b612cf5612ce8565b612d00818484612cc3565b505050565b5b81811015612d2457612d19600082612ced565b600181019050612d06565b5050565b601f821115612d6957612d3a81612c09565b612d4384612c1e565b81016020851015612d52578190505b612d66612d5e85612c1e565b830182612d05565b50505b505050565b600082821c905092915050565b6000612d8c60001984600802612d6e565b1980831691505092915050565b6000612da58383612d7b565b9150826002028217905092915050565b612dbe82612318565b67ffffffffffffffff811115612dd757612dd661257c565b5b612de18254612978565b612dec828285612d28565b600060209050601f831160018114612e1f5760008415612e0d578287015190505b612e178582612d99565b865550612e7f565b601f198416612e2d86612c09565b60005b82811015612e5557848901518255600182019150602085019450602081019050612e30565b86831015612e725784890151612e6e601f891682612d7b565b8355505b6001600288020188555050505b505050505050565b6000612e92826123ca565b9150612e9d836123ca565b9250828203905081811115612eb557612eb4612a38565b5b92915050565b7f4e487b7100000000000000000000000000000000000000000000000000000000600052603160045260246000fd5b7f4e487b7100000000000000000000000000000000000000000000000000000000600052601260045260246000fdfea2646970667358221220acb60d2410d34353dac8b48a8f0243de67a4e739999e27d0b0a19dea63aae81964736f6c634300081c0033697066733a2f2f516d65544c3766754c774c4870474c36336d6a3170616a73777578677552435177513863425661614b4842745357697066733a2f2f516d504b5559575734774876664a666d577977484c6635774d6b69634c44366b56335139714e354d413745766768697066733a2f2f516d636f6359326964484a4b4174475155755a42646e5275445a6537444a6a54726e67627833314b595233576d57",
  "linkReferences": {},
  "deployedLinkReferences": {}
}