{
  "_format": "hh-sol-artifact-1",
  "contractName": "NFT",
  "sourceName": "contracts/nft.sol",
  "abi": [
    {
      "inputs": [
        {
          "internalType": "string",
          "name": "tokenName",
          "type": "string"
        },
        {
          "internalType": "string",
          "name": "tokenSymol",
          "type": "string"
        }
      ],
      "stateMutability": "nonpayable",
      "type": "constructor"
    },
    {
      "inputs": [],
      "name": "ERC721EnumerableForbiddenBatchMint",
      "type": "error"
    },
    {
      "inputs": [
        {
          "internalType": "address",
          "name": "sender",
          "type": "address"
        },
        {
          "internalType": "uint256",
          "name": "tokenId",
          "type": "uint256"
        },
        {
          "internalType": "address",
          "name": "owner",
          "type": "address"
        }
      ],
      "name": "ERC721IncorrectOwner",
      "type": "error"
    },
    {
      "inputs": [
        {
          "internalType": "address",
          "name": "operator",
          "type": "address"
        },
        {
          "internalType": "uint256",
          "name": "tokenId",
          "type": "uint256"
        }
      ],
      "name": "ERC721InsufficientApproval",
      "type": "error"
    },
    {
      "inputs": [
        {
          "internalType": "address",
          "name": "approver",
          "type": "address"
        }
      ],
      "name": "ERC721InvalidApprover",
      "type": "error"
    },
    {
      "inputs": [
        {
          "internalType": "address",
          "name": "operator",
          "type": "address"
        }
      ],
      "name": "ERC721InvalidOperator",
      "type": "error"
    },
    {
      "inputs": [
        {
          "internalType": "address",
          "name": "owner",
          "type": "address"
        }
      ],
      "name": "ERC721InvalidOwner",
      "type": "error"
    },
    {
      "inputs": [
        {
          "internalType": "address",
          "name": "receiver",
          "type": "address"
        }
      ],
      "name": "ERC721InvalidReceiver",
      "type": "error"
    },
    {
      "inputs": [
        {
          "internalType": "address",
          "name": "sender",
          "type": "address"
        }
      ],
      "name": "ERC721InvalidSender",
      "type": "error"
    },
    {
      "inputs": [
        {
          "internalType": "uint256",
          "name": "tokenId",
          "type": "uint256"
        }
      ],
      "name": "ERC721NonexistentToken",
      "type": "error"
    },
    {
      "inputs": [
        {
          "internalType": "address",
          "name": "owner",
          "type": "address"
        },
        {
          "internalType": "uint256",
          "name": "index",
          "type": "uint256"
        }
      ],
      "name": "ERC721OutOfBoundsIndex",
      "type": "error"
    },
    {
      "inputs": [
        {
          "internalType": "address",
          "name": "owner",
          "type": "address"
        }
      ],
      "name": "OwnableInvalidOwner",
      "type": "error"
    },
    {
      "inputs": [
        {
          "internalType": "address",
          "name": "account",
          "type": "address"
        }
      ],
      "name": "OwnableUnauthorizedAccount",
      "type": "error"
    },
    {
      "anonymous": false,
      "inputs": [
        {
          "indexed": true,
          "internalType": "address",
          "name": "owner",
          "type": "address"
        },
        {
          "indexed": true,
          "internalType": "address",
          "name": "approved",
          "type": "address"
        },
        {
          "indexed": true,
          "internalType": "uint256",
          "name": "tokenId",
          "type": "uint256"
        }
      ],
      "name": "Approval",
      "type": "event"
    },
    {
      "anonymous": false,
      "inputs": [
        {
          "indexed": true,
          "internalType": "address",
          "name": "owner",
          "type": "address"
        },
        {
          "indexed": true,
          "internalType": "address",
          "name": "operator",
          "type": "address"
        },
        {
          "indexed": false,
          "internalType": "bool",
          "name": "approved",
          "type": "bool"
        }
      ],
      "name": "ApprovalForAll",
      "type": "event"
    },
    {
      "anonymous": false,
      "inputs": [
        {
          "indexed": false,
          "internalType": "uint256",
          "name": "_fromTokenId",
          "type": "uint256"
        },
        {
          "indexed": false,
          "internalType": "uint256",
          "name": "_toTokenId",
          "type": "uint256"
        }
      ],
      "name": "BatchMetadataUpdate",
      "type": "event"
    },
    {
      "anonymous": false,
      "inputs": [
        {
          "indexed": false,
          "internalType": "uint256",
          "name": "_tokenId",
          "type": "uint256"
        }
      ],
      "name": "MetadataUpdate",
      "type": "event"
    },
    {
      "anonymous": false,
      "inputs": [
        {
          "indexed": true,
          "internalType": "address",
          "name": "previousOwner",
          "type": "address"
        },
        {
          "indexed": true,
          "internalType": "address",
          "name": "newOwner",
          "type": "address"
        }
      ],
      "name": "OwnershipTransferred",
      "type": "event"
    },
    {
      "anonymous": false,
      "inputs": [
        {
          "indexed": true,
          "internalType": "address",
          "name": "from",
          "type": "address"
        },
        {
          "indexed": true,
          "internalType": "address",
          "name": "to",
          "type": "address"
        },
        {
          "indexed": true,
          "internalType": "uint256",
          "name": "tokenId",
          "type": "uint256"
        }
      ],
      "name": "Transfer",
      "type": "event"
    },
    {
      "inputs": [
        {
          "internalType": "address",
          "name": "to",
          "type": "address"
        },
        {
          "internalType": "uint256",
          "name": "tokenId",
          "type": "uint256"
        }
      ],
      "name": "approve",
      "outputs": [],
      "stateMutability": "nonpayable",
      "type": "function"
    },
    {
      "inputs": [
        {
          "internalType": "address",
          "name": "owner",
          "type": "address"
        }
      ],
      "name": "balanceOf",
      "outputs": [
        {
          "internalType": "uint256",
          "name": "",
          "type": "uint256"
        }
      ],
      "stateMutability": "view",
      "type": "function"
    },
    {
      "inputs": [
        {
          "internalType": "uint256",
          "name": "tokenId",
          "type": "uint256"
        }
      ],
      "name": "burn",
      "outputs": [],
      "stateMutability": "nonpayable",
      "type": "function"
    },
    {
      "inputs": [
        {
          "internalType": "uint256",
          "name": "tokenId",
          "type": "uint256"
        }
      ],
      "name": "getApproved",
      "outputs": [
        {
          "internalType": "address",
          "name": "",
          "type": "address"
        }
      ],
      "stateMutability": "view",
      "type": "function"
    },
    {
      "inputs": [
        {
          "internalType": "address",
          "name": "owner",
          "type": "address"
        },
        {
          "internalType": "address",
          "name": "operator",
          "type": "address"
        }
      ],
      "name": "isApprovedForAll",
      "outputs": [
        {
          "internalType": "bool",
          "name": "",
          "type": "bool"
        }
      ],
      "stateMutability": "view",
      "type": "function"
    },
    {
      "inputs": [],
      "name": "name",
      "outputs": [
        {
          "internalType": "string",
          "name": "",
          "type": "string"
        }
      ],
      "stateMutability": "view",
      "type": "function"
    },
    {
      "inputs": [],
      "name": "owner",
      "outputs": [
        {
          "internalType": "address",
          "name": "",
          "type": "address"
        }
      ],
      "stateMutability": "view",
      "type": "function"
    },
    {
      "inputs": [
        {
          "internalType": "uint256",
          "name": "tokenId",
          "type": "uint256"
        }
      ],
      "name": "ownerOf",
      "outputs": [
        {
          "internalType": "address",
          "name": "",
          "type": "address"
        }
      ],
      "stateMutability": "view",
      "type": "function"
    },
    {
      "inputs": [],
      "name": "renounceOwnership",
      "outputs": [],
      "stateMutability": "nonpayable",
      "type": "function"
    },
    {
      "inputs": [
        {
          "internalType": "address",
          "name": "to",
          "type": "address"
        }
      ],
      "name": "safeMint",
      "outputs": [],
      "stateMutability": "nonpayable",
      "type": "function"
    },
    {
      "inputs": [
        {
          "internalType": "address",
          "name": "from",
          "type": "address"
        },
        {
          "internalType": "address",
          "name": "to",
          "type": "address"
        },
        {
          "internalType": "uint256",
          "name": "tokenId",
          "type": "uint256"
        }
      ],
      "name": "safeTransferFrom",
      "outputs": [],
      "stateMutability": "nonpayable",
      "type": "function"
    },
    {
      "inputs": [
        {
          "internalType": "address",
          "name": "from",
          "type": "address"
        },
        {
          "internalType": "address",
          "name": "to",
          "type": "address"
        },
        {
          "internalType": "uint256",
          "name": "tokenId",
          "type": "uint256"
        },
        {
          "internalType": "bytes",
          "name": "data",
          "type": "bytes"
        }
      ],
      "name": "safeTransferFrom",
      "outputs": [],
      "stateMutability": "nonpayable",
      "type": "function"
    },
    {
      "inputs": [
        {
          "internalType": "address",
          "name": "operator",
          "type": "address"
        },
        {
          "internalType": "bool",
          "name": "approved",
          "type": "bool"
        }
      ],
      "name": "setApprovalForAll",
      "outputs": [],
      "stateMutability": "nonpayable",
      "type": "function"
    },
    {
      "inputs": [
        {
          "internalType": "bytes4",
          "name": "interfaceId",
          "type": "bytes4"
        }
      ],
      "name": "supportsInterface",
      "outputs": [
        {
          "internalType": "bool",
          "name": "",
          "type": "bool"
        }
      ],
      "stateMutability": "view",
      "type": "function"
    },
    {
      "inputs": [],
      "name": "symbol",
      "outputs": [
        {
          "internalType": "string",
          "name": "",
          "type": "string"
        }
      ],
      "stateMutability": "view",
      "type": "function"
    },
    {
      "inputs": [
        {
          "internalType": "uint256",
          "name": "index",
          "type": "uint256"
        }
      ],
      "name": "tokenByIndex",
      "outputs": [
        {
          "internalType": "uint256",
          "name": "",
          "type": "uint256"
        }
      ],
      "stateMutability": "view",
      "type": "function"
    },
    {
      "inputs": [
        {
          "internalType": "address",
          "name": "owner",
          "type": "address"
        },
        {
          "internalType": "uint256",
          "name": "index",
          "type": "uint256"
        }
      ],
      "name": "tokenOfOwnerByIndex",
      "outputs": [
        {
          "internalType": "uint256",
          "name": "",
          "type": "uint256"
        }
      ],
      "stateMutability": "view",
      "type": "function"
    },
    {
      "inputs": [
        {
          "internalType": "uint256",
          "name": "tokenId",
          "type": "uint256"
        }
      ],
      "name": "tokenURI",
      "outputs": [
        {
          "internalType": "string",
          "name": "",
          "type": "string"
        }
      ],
      "stateMutability": "view",
      "type": "function"
    },
    {
      "inputs": [],
      "name": "totalSupply",
      "outputs": [
        {
          "internalType": "uint256",
          "name": "",
          "type": "uint256"
        }
      ],
      "stateMutability": "view",
      "type": "function"
    },
    {
      "inputs": [
        {
          "internalType": "address",
          "name": "from",
          "type": "address"
        },
        {
          "internalType": "address",
          "name": "to",
          "type": "address"
        },
        {
          "internalType": "uint256",
          "name": "tokenId",
          "type": "uint256"
        }
      ],
      "name": "transferFrom",
      "outputs": [],
      "stateMutability": "nonpayable",
      "type": "function"
    },
    {
      "inputs": [
        {
          "internalType": "address",
          "name": "newOwner",
          "type": "address"
        }
      ],
      "name": "transferOwnership",
      "outputs": [],
      "stateMutability": "nonpayable",
      "type": "function"
    }
  ],
  "bytecode": "0x608060405234801561001057600080fd5b506040516133983803806133988339818101604052810190610032919061031b565b338282816000908161004491906105b4565b50806001908161005491906105b4565b505050600073ffffffffffffffffffffffffffffffffffffffff168173ffffffffffffffffffffffffffffffffffffffff16036100c95760006040517f1e4fbdf70000000000000000000000000000000000000000000000000000000081526004016100c091906106c7565b60405180910390fd5b6100d8816100e060201b60201c565b5050506106e2565b6000600b60009054906101000a900473ffffffffffffffffffffffffffffffffffffffff16905081600b60006101000a81548173ffffffffffffffffffffffffffffffffffffffff021916908373ffffffffffffffffffffffffffffffffffffffff1602179055508173ffffffffffffffffffffffffffffffffffffffff168173ffffffffffffffffffffffffffffffffffffffff167f8be0079c531659141344cd1fd0a4f28419497f9722a3daafe3b4186f6b6457e060405160405180910390a35050565b6000604051905090565b600080fd5b600080fd5b600080fd5b600080fd5b6000601f19601f8301169050919050565b7f4e487b7100000000000000000000000000000000000000000000000000000000600052604160045260246000fd5b61020d826101c4565b810181811067ffffffffffffffff8211171561022c5761022b6101d5565b5b80604052505050565b600061023f6101a6565b905061024b8282610204565b919050565b600067ffffffffffffffff82111561026b5761026a6101d5565b5b610274826101c4565b9050602081019050919050565b60005b8381101561029f578082015181840152602081019050610284565b60008484015250505050565b60006102be6102b984610250565b610235565b9050828152602081018484840111156102da576102d96101bf565b5b6102e5848285610281565b509392505050565b600082601f830112610302576103016101ba565b5b81516103128482602086016102ab565b91505092915050565b60008060408385031215610332576103316101b0565b5b600083015167ffffffffffffffff8111156103505761034f6101b5565b5b61035c858286016102ed565b925050602083015167ffffffffffffffff81111561037d5761037c6101b5565b5b610389858286016102ed565b9150509250929050565b600081519050919050565b7f4e487b7100000000000000000000000000000000000000000000000000000000600052602260045260246000fd5b600060028204905060018216806103e557607f821691505b6020821081036103f8576103f761039e565b5b50919050565b60008190508160005260206000209050919050565b60006020601f8301049050919050565b600082821b905092915050565b6000600883026104607fffffffffffffffffffffffffffffffffffffffffffffffffffffffffffffffff82610423565b61046a8683610423565b95508019841693508086168417925050509392505050565b6000819050919050565b6000819050919050565b60006104b16104ac6104a784610482565b61048c565b610482565b9050919050565b6000819050919050565b6104cb83610496565b6104df6104d7826104b8565b848454610430565b825550505050565b600090565b6104f46104e7565b6104ff8184846104c2565b505050565b5b81811015610523576105186000826104ec565b600181019050610505565b5050565b601f82111561056857610539816103fe565b61054284610413565b81016020851015610551578190505b61056561055d85610413565b830182610504565b50505b505050565b600082821c905092915050565b600061058b6000198460080261056d565b1980831691505092915050565b60006105a4838361057a565b9150826002028217905092915050565b6105bd82610393565b67ffffffffffffffff8111156105d6576105d56101d5565b5b6105e082546103cd565b6105eb828285610527565b600060209050601f83116001811461061e576000841561060c578287015190505b6106168582610598565b86555061067e565b601f19841661062c866103fe565b60005b828110156106545784890151825560018201915060208501945060208101905061062f565b86831015610671578489015161066d601f89168261057a565b8355505b6001600288020188555050505b505050505050565b600073ffffffffffffffffffffffffffffffffffffffff82169050919050565b60006106b182610686565b9050919050565b6106c1816106a6565b82525050565b60006020820190506106dc60008301846106b8565b92915050565b612ca7806106f16000396000f3fe608060405234801561001057600080fd5b50600436106101375760003560e01c80634f6ccce7116100b857806395d89b411161007c57806395d89b411461034c578063a22cb4651461036a578063b88d4fde14610386578063c87b56dd146103a2578063e985e9c5146103d2578063f2fde38b1461040257610137565b80634f6ccce7146102945780636352211e146102c457806370a08231146102f4578063715018a6146103245780638da5cb5b1461032e57610137565b806323b872dd116100ff57806323b872dd146101f45780632f745c591461021057806340d097c31461024057806342842e0e1461025c57806342966c681461027857610137565b806301ffc9a71461013c57806306fdde031461016c578063081812fc1461018a578063095ea7b3146101ba57806318160ddd146101d6575b600080fd5b61015660048036038101906101519190612135565b61041e565b604051610163919061217d565b60405180910390f35b610174610430565b6040516101819190612228565b60405180910390f35b6101a4600480360381019061019f9190612280565b6104c2565b6040516101b191906122ee565b60405180910390f35b6101d460048036038101906101cf9190612335565b6104de565b005b6101de6104f4565b6040516101eb9190612384565b60405180910390f35b61020e6004803603810190610209919061239f565b610501565b005b61022a60048036038101906102259190612335565b610603565b6040516102379190612384565b60405180910390f35b61025a600480360381019061025591906123f2565b6106ac565b005b6102766004803603810190610271919061239f565b6106f7565b005b610292600480360381019061028d9190612280565b610717565b005b6102ae60048036038101906102a99190612280565b61072e565b6040516102bb9190612384565b60405180910390f35b6102de60048036038101906102d99190612280565b6107a4565b6040516102eb91906122ee565b60405180910390f35b61030e600480360381019061030991906123f2565b6107b6565b60405161031b9190612384565b60405180910390f35b61032c610870565b005b610336610884565b60405161034391906122ee565b60405180910390f35b6103546108ae565b6040516103619190612228565b60405180910390f35b610384600480360381019061037f919061244b565b610940565b005b6103a0600480360381019061039b91906125c0565b610956565b005b6103bc60048036038101906103b79190612280565b61097b565b6040516103c99190612228565b60405180910390f35b6103ec60048036038101906103e79190612643565b61098d565b6040516103f9919061217d565b60405180910390f35b61041c600480360381019061041791906123f2565b610a21565b005b600061042982610aa7565b9050919050565b60606000805461043f906126b2565b80601f016020809104026020016040519081016040528092919081815260200182805461046b906126b2565b80156104b85780601f1061048d576101008083540402835291602001916104b8565b820191906000526020600020905b81548152906001019060200180831161049b57829003601f168201915b5050505050905090565b60006104cd82610b08565b506104d782610b90565b9050919050565b6104f082826104eb610bcd565b610bd5565b5050565b6000600880549050905090565b600073ffffffffffffffffffffffffffffffffffffffff168273ffffffffffffffffffffffffffffffffffffffff16036105735760006040517f64a0ae9200000000000000000000000000000000000000000000000000000000815260040161056a91906122ee565b60405180910390fd5b60006105878383610582610bcd565b610be7565b90508373ffffffffffffffffffffffffffffffffffffffff168173ffffffffffffffffffffffffffffffffffffffff16146105fd578382826040517f64283d7b0000000000000000000000000000000000000000000000000000000081526004016105f4939291906126e3565b60405180910390fd5b50505050565b600061060e836107b6565b82106106535782826040517fa57d13dc00000000000000000000000000000000000000000000000000000000815260040161064a92919061271a565b60405180910390fd5b600660008473ffffffffffffffffffffffffffffffffffffffff1673ffffffffffffffffffffffffffffffffffffffff168152602001908152602001600020600083815260200190815260200160002054905092915050565b6000600c60008154809291906106c190612772565b9190505590506106d18282610bfd565b6106f381604051806060016040528060358152602001612c3d60359139610c1b565b5050565b61071283838360405180602001604052806000815250610956565b505050565b61072a600082610725610bcd565b610be7565b5050565b60006107386104f4565b821061077e576000826040517fa57d13dc00000000000000000000000000000000000000000000000000000000815260040161077592919061271a565b60405180910390fd5b60088281548110610792576107916127ba565b5b90600052602060002001549050919050565b60006107af82610b08565b9050919050565b60008073ffffffffffffffffffffffffffffffffffffffff168273ffffffffffffffffffffffffffffffffffffffff16036108295760006040517f89c62b6400000000000000000000000000000000000000000000000000000000815260040161082091906122ee565b60405180910390fd5b600360008373ffffffffffffffffffffffffffffffffffffffff1673ffffffffffffffffffffffffffffffffffffffff168152602001908152602001600020549050919050565b610878610c77565b6108826000610cfe565b565b6000600b60009054906101000a900473ffffffffffffffffffffffffffffffffffffffff16905090565b6060600180546108bd906126b2565b80601f01602080910402602001604051908101604052809291908181526020018280546108e9906126b2565b80156109365780601f1061090b57610100808354040283529160200191610936565b820191906000526020600020905b81548152906001019060200180831161091957829003601f168201915b5050505050905090565b61095261094b610bcd565b8383610dc4565b5050565b610961848484610501565b61097561096c610bcd565b85858585610f33565b50505050565b6060610986826110e4565b9050919050565b6000600560008473ffffffffffffffffffffffffffffffffffffffff1673ffffffffffffffffffffffffffffffffffffffff16815260200190815260200160002060008373ffffffffffffffffffffffffffffffffffffffff1673ffffffffffffffffffffffffffffffffffffffff16815260200190815260200160002060009054906101000a900460ff16905092915050565b610a29610c77565b600073ffffffffffffffffffffffffffffffffffffffff168173ffffffffffffffffffffffffffffffffffffffff1603610a9b5760006040517f1e4fbdf7000000000000000000000000000000000000000000000000000000008152600401610a9291906122ee565b60405180910390fd5b610aa481610cfe565b50565b6000634906490660e01b7bffffffffffffffffffffffffffffffffffffffffffffffffffffffff1916827bffffffffffffffffffffffffffffffffffffffffffffffffffffffff19161480610b015750610b00826111f7565b5b9050919050565b600080610b1483611271565b9050600073ffffffffffffffffffffffffffffffffffffffff168173ffffffffffffffffffffffffffffffffffffffff1603610b8757826040517f7e273289000000000000000000000000000000000000000000000000000000008152600401610b7e9190612384565b60405180910390fd5b80915050919050565b60006004600083815260200190815260200160002060009054906101000a900473ffffffffffffffffffffffffffffffffffffffff169050919050565b600033905090565b610be283838360016112ae565b505050565b6000610bf4848484611473565b90509392505050565b610c17828260405180602001604052806000815250611590565b5050565b80600a60008481526020019081526020016000209081610c3b9190612995565b507ff8e1a15aba9398e019f0b49df1a4fde98ee17ae345cb5f6b5e2c27f5033e8ce782604051610c6b9190612384565b60405180910390a15050565b610c7f610bcd565b73ffffffffffffffffffffffffffffffffffffffff16610c9d610884565b73ffffffffffffffffffffffffffffffffffffffff1614610cfc57610cc0610bcd565b6040517f118cdaa7000000000000000000000000000000000000000000000000000000008152600401610cf391906122ee565b60405180910390fd5b565b6000600b60009054906101000a900473ffffffffffffffffffffffffffffffffffffffff16905081600b60006101000a81548173ffffffffffffffffffffffffffffffffffffffff021916908373ffffffffffffffffffffffffffffffffffffffff1602179055508173ffffffffffffffffffffffffffffffffffffffff168173ffffffffffffffffffffffffffffffffffffffff167f8be0079c531659141344cd1fd0a4f28419497f9722a3daafe3b4186f6b6457e060405160405180910390a35050565b600073ffffffffffffffffffffffffffffffffffffffff168273ffffffffffffffffffffffffffffffffffffffff1603610e3557816040517f5b08ba18000000000000000000000000000000000000000000000000000000008152600401610e2c91906122ee565b60405180910390fd5b80600560008573ffffffffffffffffffffffffffffffffffffffff1673ffffffffffffffffffffffffffffffffffffffff16815260200190815260200160002060008473ffffffffffffffffffffffffffffffffffffffff1673ffffffffffffffffffffffffffffffffffffffff16815260200190815260200160002060006101000a81548160ff0219169083151502179055508173ffffffffffffffffffffffffffffffffffffffff168373ffffffffffffffffffffffffffffffffffffffff167f17307eab39ab6107e8899845ad3d59bd9653f200f220920489ca2b5937696c3183604051610f26919061217d565b60405180910390a3505050565b60008373ffffffffffffffffffffffffffffffffffffffff163b11156110dd578273ffffffffffffffffffffffffffffffffffffffff1663150b7a02868685856040518563ffffffff1660e01b8152600401610f929493929190612abc565b6020604051808303816000875af1925050508015610fce57506040513d601f19601f82011682018060405250810190610fcb9190612b1d565b60015b611052573d8060008114610ffe576040519150601f19603f3d011682016040523d82523d6000602084013e611003565b606091505b50600081510361104a57836040517f64a0ae9200000000000000000000000000000000000000000000000000000000815260040161104191906122ee565b60405180910390fd5b805181602001fd5b63150b7a0260e01b7bffffffffffffffffffffffffffffffffffffffffffffffffffffffff1916817bffffffffffffffffffffffffffffffffffffffffffffffffffffffff1916146110db57836040517f64a0ae920000000000000000000000000000000000000000000000000000000081526004016110d291906122ee565b60405180910390fd5b505b5050505050565b60606110ef82610b08565b506000600a60008481526020019081526020016000208054611110906126b2565b80601f016020809104026020016040519081016040528092919081815260200182805461113c906126b2565b80156111895780601f1061115e57610100808354040283529160200191611189565b820191906000526020600020905b81548152906001019060200180831161116c57829003601f168201915b50505050509050600061119a6115b4565b905060008151036111af5781925050506111f2565b6000825111156111e45780826040516020016111cc929190612b86565b604051602081830303815290604052925050506111f2565b6111ed846115cb565b925050505b919050565b60007f780e9d63000000000000000000000000000000000000000000000000000000007bffffffffffffffffffffffffffffffffffffffffffffffffffffffff1916827bffffffffffffffffffffffffffffffffffffffffffffffffffffffff1916148061126a575061126982611634565b5b9050919050565b60006002600083815260200190815260200160002060009054906101000a900473ffffffffffffffffffffffffffffffffffffffff169050919050565b80806112e75750600073ffffffffffffffffffffffffffffffffffffffff168273ffffffffffffffffffffffffffffffffffffffff1614155b1561141b5760006112f784610b08565b9050600073ffffffffffffffffffffffffffffffffffffffff168373ffffffffffffffffffffffffffffffffffffffff161415801561136257508273ffffffffffffffffffffffffffffffffffffffff168173ffffffffffffffffffffffffffffffffffffffff1614155b80156113755750611373818461098d565b155b156113b757826040517fa9fbf51f0000000000000000000000000000000000000000000000000000000081526004016113ae91906122ee565b60405180910390fd5b811561141957838573ffffffffffffffffffffffffffffffffffffffff168273ffffffffffffffffffffffffffffffffffffffff167f8c5be1e5ebec7d5bd14f71427d1e84f3dd0314c0f7b2291e5b200ac8c7c3b92560405160405180910390a45b505b836004600085815260200190815260200160002060006101000a81548173ffffffffffffffffffffffffffffffffffffffff021916908373ffffffffffffffffffffffffffffffffffffffff16021790555050505050565b600080611481858585611716565b9050600073ffffffffffffffffffffffffffffffffffffffff168173ffffffffffffffffffffffffffffffffffffffff16036114c5576114c084611930565b611504565b8473ffffffffffffffffffffffffffffffffffffffff168173ffffffffffffffffffffffffffffffffffffffff1614611503576115028185611979565b5b5b600073ffffffffffffffffffffffffffffffffffffffff168573ffffffffffffffffffffffffffffffffffffffff16036115465761154184611a64565b611585565b8473ffffffffffffffffffffffffffffffffffffffff168173ffffffffffffffffffffffffffffffffffffffff1614611584576115838585611b35565b5b5b809150509392505050565b61159a8383611bc0565b6115af6115a5610bcd565b6000858585610f33565b505050565b606060405180602001604052806000815250905090565b60606115d682610b08565b5060006115e16115b4565b90506000815111611601576040518060200160405280600081525061162c565b8061160b84611cb9565b60405160200161161c929190612b86565b6040516020818303038152906040525b915050919050565b60007f80ac58cd000000000000000000000000000000000000000000000000000000007bffffffffffffffffffffffffffffffffffffffffffffffffffffffff1916827bffffffffffffffffffffffffffffffffffffffffffffffffffffffff191614806116ff57507f5b5e139f000000000000000000000000000000000000000000000000000000007bffffffffffffffffffffffffffffffffffffffffffffffffffffffff1916827bffffffffffffffffffffffffffffffffffffffffffffffffffffffff1916145b8061170f575061170e82611d87565b5b9050919050565b60008061172284611271565b9050600073ffffffffffffffffffffffffffffffffffffffff168373ffffffffffffffffffffffffffffffffffffffff161461176457611763818486611df1565b5b600073ffffffffffffffffffffffffffffffffffffffff168173ffffffffffffffffffffffffffffffffffffffff16146117f5576117a66000856000806112ae565b6001600360008373ffffffffffffffffffffffffffffffffffffffff1673ffffffffffffffffffffffffffffffffffffffff168152602001908152602001600020600082825403925050819055505b600073ffffffffffffffffffffffffffffffffffffffff168573ffffffffffffffffffffffffffffffffffffffff1614611878576001600360008773ffffffffffffffffffffffffffffffffffffffff1673ffffffffffffffffffffffffffffffffffffffff168152602001908152602001600020600082825401925050819055505b846002600086815260200190815260200160002060006101000a81548173ffffffffffffffffffffffffffffffffffffffff021916908373ffffffffffffffffffffffffffffffffffffffff160217905550838573ffffffffffffffffffffffffffffffffffffffff168273ffffffffffffffffffffffffffffffffffffffff167fddf252ad1be2c89b69c2b068fc378daa952ba7f163c4a11628f55a4df523b3ef60405160405180910390a4809150509392505050565b6008805490506009600083815260200190815260200160002081905550600881908060018154018082558091505060019003906000526020600020016000909190919091505550565b6000611984836107b6565b90506000600760008481526020019081526020016000205490506000600660008673ffffffffffffffffffffffffffffffffffffffff1673ffffffffffffffffffffffffffffffffffffffff1681526020019081526020016000209050828214611a305760008160008581526020019081526020016000205490508082600085815260200190815260200160002081905550826007600083815260200190815260200160002081905550505b6007600085815260200190815260200160002060009055806000848152602001908152602001600020600090555050505050565b60006001600880549050611a789190612baa565b9050600060096000848152602001908152602001600020549050600060088381548110611aa857611aa76127ba565b5b906000526020600020015490508060088381548110611aca57611ac96127ba565b5b906000526020600020018190555081600960008381526020019081526020016000208190555060096000858152602001908152602001600020600090556008805480611b1957611b18612bde565b5b6001900381819060005260206000200160009055905550505050565b60006001611b42846107b6565b611b4c9190612baa565b905081600660008573ffffffffffffffffffffffffffffffffffffffff1673ffffffffffffffffffffffffffffffffffffffff168152602001908152602001600020600083815260200190815260200160002081905550806007600084815260200190815260200160002081905550505050565b600073ffffffffffffffffffffffffffffffffffffffff168273ffffffffffffffffffffffffffffffffffffffff1603611c325760006040517f64a0ae92000000000000000000000000000000000000000000000000000000008152600401611c2991906122ee565b60405180910390fd5b6000611c4083836000610be7565b9050600073ffffffffffffffffffffffffffffffffffffffff168173ffffffffffffffffffffffffffffffffffffffff1614611cb45760006040517f73c6ac6e000000000000000000000000000000000000000000000000000000008152600401611cab91906122ee565b60405180910390fd5b505050565b606060006001611cc884611eb5565b01905060008167ffffffffffffffff811115611ce757611ce6612495565b5b6040519080825280601f01601f191660200182016040528015611d195781602001600182028036833780820191505090505b509050600082602001820190505b600115611d7c578080600190039150507f3031323334353637383961626364656600000000000000000000000000000000600a86061a8153600a8581611d7057611d6f612c0d565b5b04945060008503611d27575b819350505050919050565b60007f01ffc9a7000000000000000000000000000000000000000000000000000000007bffffffffffffffffffffffffffffffffffffffffffffffffffffffff1916827bffffffffffffffffffffffffffffffffffffffffffffffffffffffff1916149050919050565b611dfc838383612008565b611eb057600073ffffffffffffffffffffffffffffffffffffffff168373ffffffffffffffffffffffffffffffffffffffff1603611e7157806040517f7e273289000000000000000000000000000000000000000000000000000000008152600401611e689190612384565b60405180910390fd5b81816040517f177e802f000000000000000000000000000000000000000000000000000000008152600401611ea792919061271a565b60405180910390fd5b505050565b600080600090507a184f03e93ff9f4daa797ed6e38ed64bf6a1f0100000000000000008310611f13577a184f03e93ff9f4daa797ed6e38ed64bf6a1f0100000000000000008381611f0957611f08612c0d565b5b0492506040810190505b6d04ee2d6d415b85acef81000000008310611f50576d04ee2d6d415b85acef81000000008381611f4657611f45612c0d565b5b0492506020810190505b662386f26fc100008310611f7f57662386f26fc100008381611f7557611f74612c0d565b5b0492506010810190505b6305f5e1008310611fa8576305f5e1008381611f9e57611f9d612c0d565b5b0492506008810190505b6127108310611fcd576127108381611fc357611fc2612c0d565b5b0492506004810190505b60648310611ff05760648381611fe657611fe5612c0d565b5b0492506002810190505b600a8310611fff576001810190505b80915050919050565b60008073ffffffffffffffffffffffffffffffffffffffff168373ffffffffffffffffffffffffffffffffffffffff16141580156120c057508273ffffffffffffffffffffffffffffffffffffffff168473ffffffffffffffffffffffffffffffffffffffff1614806120815750612080848461098d565b5b806120bf57508273ffffffffffffffffffffffffffffffffffffffff166120a783610b90565b73ffffffffffffffffffffffffffffffffffffffff16145b5b90509392505050565b6000604051905090565b600080fd5b600080fd5b60007fffffffff0000000000000000000000000000000000000000000000000000000082169050919050565b612112816120dd565b811461211d57600080fd5b50565b60008135905061212f81612109565b92915050565b60006020828403121561214b5761214a6120d3565b5b600061215984828501612120565b91505092915050565b60008115159050919050565b61217781612162565b82525050565b6000602082019050612192600083018461216e565b92915050565b600081519050919050565b600082825260208201905092915050565b60005b838110156121d25780820151818401526020810190506121b7565b60008484015250505050565b6000601f19601f8301169050919050565b60006121fa82612198565b61220481856121a3565b93506122148185602086016121b4565b61221d816121de565b840191505092915050565b6000602082019050818103600083015261224281846121ef565b905092915050565b6000819050919050565b61225d8161224a565b811461226857600080fd5b50565b60008135905061227a81612254565b92915050565b600060208284031215612296576122956120d3565b5b60006122a48482850161226b565b91505092915050565b600073ffffffffffffffffffffffffffffffffffffffff82169050919050565b60006122d8826122ad565b9050919050565b6122e8816122cd565b82525050565b600060208201905061230360008301846122df565b92915050565b612312816122cd565b811461231d57600080fd5b50565b60008135905061232f81612309565b92915050565b6000806040838503121561234c5761234b6120d3565b5b600061235a85828601612320565b925050602061236b8582860161226b565b9150509250929050565b61237e8161224a565b82525050565b60006020820190506123996000830184612375565b92915050565b6000806000606084860312156123b8576123b76120d3565b5b60006123c686828701612320565b93505060206123d786828701612320565b92505060406123e88682870161226b565b9150509250925092565b600060208284031215612408576124076120d3565b5b600061241684828501612320565b91505092915050565b61242881612162565b811461243357600080fd5b50565b6000813590506124458161241f565b92915050565b60008060408385031215612462576124616120d3565b5b600061247085828601612320565b925050602061248185828601612436565b9150509250929050565b600080fd5b600080fd5b7f4e487b7100000000000000000000000000000000000000000000000000000000600052604160045260246000fd5b6124cd826121de565b810181811067ffffffffffffffff821117156124ec576124eb612495565b5b80604052505050565b60006124ff6120c9565b905061250b82826124c4565b919050565b600067ffffffffffffffff82111561252b5761252a612495565b5b612534826121de565b9050602081019050919050565b82818337600083830152505050565b600061256361255e84612510565b6124f5565b90508281526020810184848401111561257f5761257e612490565b5b61258a848285612541565b509392505050565b600082601f8301126125a7576125a661248b565b5b81356125b7848260208601612550565b91505092915050565b600080600080608085870312156125da576125d96120d3565b5b60006125e887828801612320565b94505060206125f987828801612320565b935050604061260a8782880161226b565b925050606085013567ffffffffffffffff81111561262b5761262a6120d8565b5b61263787828801612592565b91505092959194509250565b6000806040838503121561265a576126596120d3565b5b600061266885828601612320565b925050602061267985828601612320565b9150509250929050565b7f4e487b7100000000000000000000000000000000000000000000000000000000600052602260045260246000fd5b600060028204905060018216806126ca57607f821691505b6020821081036126dd576126dc612683565b5b50919050565b60006060820190506126f860008301866122df565b6127056020830185612375565b61271260408301846122df565b949350505050565b600060408201905061272f60008301856122df565b61273c6020830184612375565b9392505050565b7f4e487b7100000000000000000000000000000000000000000000000000000000600052601160045260246000fd5b600061277d8261224a565b91507fffffffffffffffffffffffffffffffffffffffffffffffffffffffffffffffff82036127af576127ae612743565b5b600182019050919050565b7f4e487b7100000000000000000000000000000000000000000000000000000000600052603260045260246000fd5b60008190508160005260206000209050919050565b60006020601f8301049050919050565b600082821b905092915050565b60006008830261284b7fffffffffffffffffffffffffffffffffffffffffffffffffffffffffffffffff8261280e565b612855868361280e565b95508019841693508086168417925050509392505050565b6000819050919050565b600061289261288d6128888461224a565b61286d565b61224a565b9050919050565b6000819050919050565b6128ac83612877565b6128c06128b882612899565b84845461281b565b825550505050565b600090565b6128d56128c8565b6128e08184846128a3565b505050565b5b81811015612904576128f96000826128cd565b6001810190506128e6565b5050565b601f8211156129495761291a816127e9565b612923846127fe565b81016020851015612932578190505b61294661293e856127fe565b8301826128e5565b50505b505050565b600082821c905092915050565b600061296c6000198460080261294e565b1980831691505092915050565b6000612985838361295b565b9150826002028217905092915050565b61299e82612198565b67ffffffffffffffff8111156129b7576129b6612495565b5b6129c182546126b2565b6129cc828285612908565b600060209050601f8311600181146129ff57600084156129ed578287015190505b6129f78582612979565b865550612a5f565b601f198416612a0d866127e9565b60005b82811015612a3557848901518255600182019150602085019450602081019050612a10565b86831015612a525784890151612a4e601f89168261295b565b8355505b6001600288020188555050505b505050505050565b600081519050919050565b600082825260208201905092915050565b6000612a8e82612a67565b612a988185612a72565b9350612aa88185602086016121b4565b612ab1816121de565b840191505092915050565b6000608082019050612ad160008301876122df565b612ade60208301866122df565b612aeb6040830185612375565b8181036060830152612afd8184612a83565b905095945050505050565b600081519050612b1781612109565b92915050565b600060208284031215612b3357612b326120d3565b5b6000612b4184828501612b08565b91505092915050565b600081905092915050565b6000612b6082612198565b612b6a8185612b4a565b9350612b7a8185602086016121b4565b80840191505092915050565b6000612b928285612b55565b9150612b9e8284612b55565b91508190509392505050565b6000612bb58261224a565b9150612bc08361224a565b9250828203905081811115612bd857612bd7612743565b5b92915050565b7f4e487b7100000000000000000000000000000000000000000000000000000000600052603160045260246000fd5b7f4e487b7100000000000000000000000000000000000000000000000000000000600052601260045260246000fdfe697066733a2f2f516d515552744c4c51504d6e715851653544447854644a4e686f48727a623948475031504c4c37634443715a5074a2646970667358221220f1526bba889a0537850fb87726e4114e74309e6c84ecb07d3b78e9743846b52b64736f6c634300081c0033",
  "linkReferences": {},
  "deployedLinkReferences": {}
}