{
  "_format": "hh-sol-artifact-1",
  "contractName": "Token",
  "sourceName": "contracts/token.sol",
  "abi": [
    {
      "inputs": [
        {
          "internalType": "address",
          "name": "initialOwner",
          "type": "address"
        },
        {
          "internalType": "string",
          "name": "_name",
          "type": "string"
        },
        {
          "internalType": "string",
          "name": "_symbol",
          "type": "string"
        }
      ],
      "stateMutability": "nonpayable",
      "type": "constructor"
    },
    {
      "inputs": [
        {
          "internalType": "address",
          "name": "spender",
          "type": "address"
        },
        {
          "internalType": "uint256",
          "name": "allowance",
          "type": "uint256"
        },
        {
          "internalType": "uint256",
          "name": "needed",
          "type": "uint256"
        }
      ],
      "name": "ERC20InsufficientAllowance",
      "type": "error"
    },
    {
      "inputs": [
        {
          "internalType": "address",
          "name": "sender",
          "type": "address"
        },
        {
          "internalType": "uint256",
          "name": "balance",
          "type": "uint256"
        },
        {
          "internalType": "uint256",
          "name": "needed",
          "type": "uint256"
        }
      ],
      "name": "ERC20InsufficientBalance",
      "type": "error"
    },
    {
      "inputs": [
        {
          "internalType": "address",
          "name": "approver",
          "type": "address"
        }
      ],
      "name": "ERC20InvalidApprover",
      "type": "error"
    },
    {
      "inputs": [
        {
          "internalType": "address",
          "name": "receiver",
          "type": "address"
        }
      ],
      "name": "ERC20InvalidReceiver",
      "type": "error"
    },
    {
      "inputs": [
        {
          "internalType": "address",
          "name": "sender",
          "type": "address"
        }
      ],
      "name": "ERC20InvalidSender",
      "type": "error"
    },
    {
      "inputs": [
        {
          "internalType": "address",
          "name": "spender",
          "type": "address"
        }
      ],
      "name": "ERC20InvalidSpender",
      "type": "error"
    },
    {
      "inputs": [
        {
          "internalType": "address",
          "name": "owner",
          "type": "address"
        }
      ],
      "name": "OwnableInvalidOwner",
      "type": "error"
    },
    {
      "inputs": [
        {
          "internalType": "address",
          "name": "account",
          "type": "address"
        }
      ],
      "name": "OwnableUnauthorizedAccount",
      "type": "error"
    },
    {
      "anonymous": false,
      "inputs": [
        {
          "indexed": true,
          "internalType": "address",
          "name": "owner",
          "type": "address"
        },
        {
          "indexed": true,
          "internalType": "address",
          "name": "spender",
          "type": "address"
        },
        {
          "indexed": false,
          "internalType": "uint256",
          "name": "value",
          "type": "uint256"
        }
      ],
      "name": "Approval",
      "type": "event"
    },
    {
      "anonymous": false,
      "inputs": [
        {
          "indexed": true,
          "internalType": "address",
          "name": "previousOwner",
          "type": "address"
        },
        {
          "indexed": true,
          "internalType": "address",
          "name": "newOwner",
          "type": "address"
        }
      ],
      "name": "OwnershipTransferred",
      "type": "event"
    },
    {
      "anonymous": false,
      "inputs": [
        {
          "indexed": true,
          "internalType": "address",
          "name": "from",
          "type": "address"
        },
        {
          "indexed": true,
          "internalType": "address",
          "name": "to",
          "type": "address"
        },
        {
          "indexed": false,
          "internalType": "uint256",
          "name": "value",
          "type": "uint256"
        }
      ],
      "name": "Transfer",
      "type": "event"
    },
    {
      "inputs": [
        {
          "internalType": "address",
          "name": "owner",
          "type": "address"
        },
        {
          "internalType": "address",
          "name": "spender",
          "type": "address"
        }
      ],
      "name": "allowance",
      "outputs": [
        {
          "internalType": "uint256",
          "name": "",
          "type": "uint256"
        }
      ],
      "stateMutability": "view",
      "type": "function"
    },
    {
      "inputs": [
        {
          "internalType": "address",
          "name": "spender",
          "type": "address"
        },
        {
          "internalType": "uint256",
          "name": "value",
          "type": "uint256"
        }
      ],
      "name": "approve",
      "outputs": [
        {
          "internalType": "bool",
          "name": "",
          "type": "bool"
        }
      ],
      "stateMutability": "nonpayable",
      "type": "function"
    },
    {
      "inputs": [
        {
          "internalType": "address",
          "name": "account",
          "type": "address"
        }
      ],
      "name": "balanceOf",
      "outputs": [
        {
          "internalType": "uint256",
          "name": "",
          "type": "uint256"
        }
      ],
      "stateMutability": "view",
      "type": "function"
    },
    {
      "inputs": [
        {
          "internalType": "uint256",
          "name": "value",
          "type": "uint256"
        }
      ],
      "name": "burn",
      "outputs": [],
      "stateMutability": "nonpayable",
      "type": "function"
    },
    {
      "inputs": [
        {
          "internalType": "address",
          "name": "account",
          "type": "address"
        },
        {
          "internalType": "uint256",
          "name": "value",
          "type": "uint256"
        }
      ],
      "name": "burnFrom",
      "outputs": [],
      "stateMutability": "nonpayable",
      "type": "function"
    },
    {
      "inputs": [],
      "name": "decimals",
      "outputs": [
        {
          "internalType": "uint8",
          "name": "",
          "type": "uint8"
        }
      ],
      "stateMutability": "view",
      "type": "function"
    },
    {
      "inputs": [
        {
          "internalType": "address",
          "name": "to",
          "type": "address"
        },
        {
          "internalType": "uint256",
          "name": "amount",
          "type": "uint256"
        }
      ],
      "name": "mint",
      "outputs": [],
      "stateMutability": "nonpayable",
      "type": "function"
    },
    {
      "inputs": [
        {
          "internalType": "uint256",
          "name": "amount",
          "type": "uint256"
        }
      ],
      "name": "mint",
      "outputs": [],
      "stateMutability": "nonpayable",
      "type": "function"
    },
    {
      "inputs": [],
      "name": "name",
      "outputs": [
        {
          "internalType": "string",
          "name": "",
          "type": "string"
        }
      ],
      "stateMutability": "view",
      "type": "function"
    },
    {
      "inputs": [],
      "name": "owner",
      "outputs": [
        {
          "internalType": "address",
          "name": "",
          "type": "address"
        }
      ],
      "stateMutability": "view",
      "type": "function"
    },
    {
      "inputs": [],
      "name": "renounceOwnership",
      "outputs": [],
      "stateMutability": "nonpayable",
      "type": "function"
    },
    {
      "inputs": [],
      "name": "symbol",
      "outputs": [
        {
          "internalType": "string",
          "name": "",
          "type": "string"
        }
      ],
      "stateMutability": "view",
      "type": "function"
    },
    {
      "inputs": [],
      "name": "totalSupply",
      "outputs": [
        {
          "internalType": "uint256",
          "name": "",
          "type": "uint256"
        }
      ],
      "stateMutability": "view",
      "type": "function"
    },
    {
      "inputs": [
        {
          "internalType": "address",
          "name": "to",
          "type": "address"
        },
        {
          "internalType": "uint256",
          "name": "value",
          "type": "uint256"
        }
      ],
      "name": "transfer",
      "outputs": [
        {
          "internalType": "bool",
          "name": "",
          "type": "bool"
        }
      ],
      "stateMutability": "nonpayable",
      "type": "function"
    },
    {
      "inputs": [
        {
          "internalType": "address",
          "name": "from",
          "type": "address"
        },
        {
          "internalType": "address",
          "name": "to",
          "type": "address"
        },
        {
          "internalType": "uint256",
          "name": "value",
          "type": "uint256"
        }
      ],
      "name": "transferFrom",
      "outputs": [
        {
          "internalType": "bool",
          "name": "",
          "type": "bool"
        }
      ],
      "stateMutability": "nonpayable",
      "type": "function"
    },
    {
      "inputs": [
        {
          "internalType": "address",
          "name": "newOwner",
          "type": "address"
        }
      ],
      "name": "transferOwnership",
      "outputs": [],
      "stateMutability": "nonpayable",
      "type": "function"
    }
  ],
  "bytecode": "0x608060405234801561001057600080fd5b50604051611fbe380380611fbe83398181016040528101906100329190610666565b82828281600390816100449190610912565b5080600490816100549190610912565b505050600073ffffffffffffffffffffffffffffffffffffffff168173ffffffffffffffffffffffffffffffffffffffff16036100c95760006040517f1e4fbdf70000000000000000000000000000000000000000000000000000000081526004016100c091906109f3565b60405180910390fd5b6100d88161011760201b60201c565b5061010f336100eb6101dd60201b60201c565b600a6100f79190610b7d565b6103e86101049190610bc8565b6101e660201b60201c565b505050610c9f565b6000600560009054906101000a900473ffffffffffffffffffffffffffffffffffffffff16905081600560006101000a81548173ffffffffffffffffffffffffffffffffffffffff021916908373ffffffffffffffffffffffffffffffffffffffff1602179055508173ffffffffffffffffffffffffffffffffffffffff168173ffffffffffffffffffffffffffffffffffffffff167f8be0079c531659141344cd1fd0a4f28419497f9722a3daafe3b4186f6b6457e060405160405180910390a35050565b60006012905090565b600073ffffffffffffffffffffffffffffffffffffffff168273ffffffffffffffffffffffffffffffffffffffff16036102585760006040517fec442f0500000000000000000000000000000000000000000000000000000000815260040161024f91906109f3565b60405180910390fd5b61026a6000838361026e60201b60201c565b5050565b600073ffffffffffffffffffffffffffffffffffffffff168373ffffffffffffffffffffffffffffffffffffffff16036102c05780600260008282546102b49190610c0a565b92505081905550610393565b60008060008573ffffffffffffffffffffffffffffffffffffffff1673ffffffffffffffffffffffffffffffffffffffff1681526020019081526020016000205490508181101561034c578381836040517fe450d38c00000000000000000000000000000000000000000000000000000000815260040161034393929190610c4d565b60405180910390fd5b8181036000808673ffffffffffffffffffffffffffffffffffffffff1673ffffffffffffffffffffffffffffffffffffffff16815260200190815260200160002081905550505b600073ffffffffffffffffffffffffffffffffffffffff168273ffffffffffffffffffffffffffffffffffffffff16036103dc5780600260008282540392505081905550610429565b806000808473ffffffffffffffffffffffffffffffffffffffff1673ffffffffffffffffffffffffffffffffffffffff168152602001908152602001600020600082825401925050819055505b8173ffffffffffffffffffffffffffffffffffffffff168373ffffffffffffffffffffffffffffffffffffffff167fddf252ad1be2c89b69c2b068fc378daa952ba7f163c4a11628f55a4df523b3ef836040516104869190610c84565b60405180910390a3505050565b6000604051905090565b600080fd5b600080fd5b600073ffffffffffffffffffffffffffffffffffffffff82169050919050565b60006104d2826104a7565b9050919050565b6104e2816104c7565b81146104ed57600080fd5b50565b6000815190506104ff816104d9565b92915050565b600080fd5b600080fd5b6000601f19601f8301169050919050565b7f4e487b7100000000000000000000000000000000000000000000000000000000600052604160045260246000fd5b6105588261050f565b810181811067ffffffffffffffff8211171561057757610576610520565b5b80604052505050565b600061058a610493565b9050610596828261054f565b919050565b600067ffffffffffffffff8211156105b6576105b5610520565b5b6105bf8261050f565b9050602081019050919050565b60005b838110156105ea5780820151818401526020810190506105cf565b60008484015250505050565b60006106096106048461059b565b610580565b9050828152602081018484840111156106255761062461050a565b5b6106308482856105cc565b509392505050565b600082601f83011261064d5761064c610505565b5b815161065d8482602086016105f6565b91505092915050565b60008060006060848603121561067f5761067e61049d565b5b600061068d868287016104f0565b935050602084015167ffffffffffffffff8111156106ae576106ad6104a2565b5b6106ba86828701610638565b925050604084015167ffffffffffffffff8111156106db576106da6104a2565b5b6106e786828701610638565b9150509250925092565b600081519050919050565b7f4e487b7100000000000000000000000000000000000000000000000000000000600052602260045260246000fd5b6000600282049050600182168061074357607f821691505b602082108103610756576107556106fc565b5b50919050565b60008190508160005260206000209050919050565b60006020601f8301049050919050565b600082821b905092915050565b6000600883026107be7fffffffffffffffffffffffffffffffffffffffffffffffffffffffffffffffff82610781565b6107c88683610781565b95508019841693508086168417925050509392505050565b6000819050919050565b6000819050919050565b600061080f61080a610805846107e0565b6107ea565b6107e0565b9050919050565b6000819050919050565b610829836107f4565b61083d61083582610816565b84845461078e565b825550505050565b600090565b610852610845565b61085d818484610820565b505050565b5b818110156108815761087660008261084a565b600181019050610863565b5050565b601f8211156108c6576108978161075c565b6108a084610771565b810160208510156108af578190505b6108c36108bb85610771565b830182610862565b50505b505050565b600082821c905092915050565b60006108e9600019846008026108cb565b1980831691505092915050565b600061090283836108d8565b9150826002028217905092915050565b61091b826106f1565b67ffffffffffffffff81111561093457610933610520565b5b61093e825461072b565b610949828285610885565b600060209050601f83116001811461097c576000841561096a578287015190505b61097485826108f6565b8655506109dc565b601f19841661098a8661075c565b60005b828110156109b25784890151825560018201915060208501945060208101905061098d565b868310156109cf57848901516109cb601f8916826108d8565b8355505b6001600288020188555050505b505050505050565b6109ed816104c7565b82525050565b6000602082019050610a0860008301846109e4565b92915050565b7f4e487b7100000000000000000000000000000000000000000000000000000000600052601160045260246000fd5b60008160011c9050919050565b6000808291508390505b6001851115610a9457808604811115610a7057610a6f610a0e565b5b6001851615610a7f5780820291505b8081029050610a8d85610a3d565b9450610a54565b94509492505050565b600082610aad5760019050610b69565b81610abb5760009050610b69565b8160018114610ad15760028114610adb57610b0a565b6001915050610b69565b60ff841115610aed57610aec610a0e565b5b8360020a915084821115610b0457610b03610a0e565b5b50610b69565b5060208310610133831016604e8410600b8410161715610b3f5782820a905083811115610b3a57610b39610a0e565b5b610b69565b610b4c8484846001610a4a565b92509050818404811115610b6357610b62610a0e565b5b81810290505b9392505050565b600060ff82169050919050565b6000610b88826107e0565b9150610b9383610b70565b9250610bc07fffffffffffffffffffffffffffffffffffffffffffffffffffffffffffffffff8484610a9d565b905092915050565b6000610bd3826107e0565b9150610bde836107e0565b9250828202610bec816107e0565b91508282048414831517610c0357610c02610a0e565b5b5092915050565b6000610c15826107e0565b9150610c20836107e0565b9250828201905080821115610c3857610c37610a0e565b5b92915050565b610c47816107e0565b82525050565b6000606082019050610c6260008301866109e4565b610c6f6020830185610c3e565b610c7c6040830184610c3e565b949350505050565b6000602082019050610c996000830184610c3e565b92915050565b61131080610cae6000396000f3fe608060405234801561001057600080fd5b50600436106101005760003560e01c8063715018a611610097578063a0712d6811610066578063a0712d6814610289578063a9059cbb146102a5578063dd62ed3e146102d5578063f2fde38b1461030557610100565b8063715018a61461022757806379cc6790146102315780638da5cb5b1461024d57806395d89b411461026b57610100565b8063313ce567116100d3578063313ce567146101a157806340c10f19146101bf57806342966c68146101db57806370a08231146101f757610100565b806306fdde0314610105578063095ea7b31461012357806318160ddd1461015357806323b872dd14610171575b600080fd5b61010d610321565b60405161011a9190610f37565b60405180910390f35b61013d60048036038101906101389190610ff2565b6103b3565b60405161014a919061104d565b60405180910390f35b61015b6103d6565b6040516101689190611077565b60405180910390f35b61018b60048036038101906101869190611092565b6103e0565b604051610198919061104d565b60405180910390f35b6101a961040f565b6040516101b69190611101565b60405180910390f35b6101d960048036038101906101d49190610ff2565b610418565b005b6101f560048036038101906101f0919061111c565b61042e565b005b610211600480360381019061020c9190611149565b610442565b60405161021e9190611077565b60405180910390f35b61022f61048a565b005b61024b60048036038101906102469190610ff2565b61049e565b005b6102556104be565b6040516102629190611185565b60405180910390f35b6102736104e8565b6040516102809190610f37565b60405180910390f35b6102a3600480360381019061029e919061111c565b61057a565b005b6102bf60048036038101906102ba9190610ff2565b610587565b6040516102cc919061104d565b60405180910390f35b6102ef60048036038101906102ea91906111a0565b6105aa565b6040516102fc9190611077565b60405180910390f35b61031f600480360381019061031a9190611149565b610631565b005b6060600380546103309061120f565b80601f016020809104026020016040519081016040528092919081815260200182805461035c9061120f565b80156103a95780601f1061037e576101008083540402835291602001916103a9565b820191906000526020600020905b81548152906001019060200180831161038c57829003601f168201915b5050505050905090565b6000806103be6106b7565b90506103cb8185856106bf565b600191505092915050565b6000600254905090565b6000806103eb6106b7565b90506103f88582856106d1565b610403858585610766565b60019150509392505050565b60006012905090565b61042061085a565b61042a82826108e1565b5050565b61043f6104396106b7565b82610963565b50565b60008060008373ffffffffffffffffffffffffffffffffffffffff1673ffffffffffffffffffffffffffffffffffffffff168152602001908152602001600020549050919050565b61049261085a565b61049c60006109e5565b565b6104b0826104aa6106b7565b836106d1565b6104ba8282610963565b5050565b6000600560009054906101000a900473ffffffffffffffffffffffffffffffffffffffff16905090565b6060600480546104f79061120f565b80601f01602080910402602001604051908101604052809291908181526020018280546105239061120f565b80156105705780601f1061054557610100808354040283529160200191610570565b820191906000526020600020905b81548152906001019060200180831161055357829003601f168201915b5050505050905090565b61058433826108e1565b50565b6000806105926106b7565b905061059f818585610766565b600191505092915050565b6000600160008473ffffffffffffffffffffffffffffffffffffffff1673ffffffffffffffffffffffffffffffffffffffff16815260200190815260200160002060008373ffffffffffffffffffffffffffffffffffffffff1673ffffffffffffffffffffffffffffffffffffffff16815260200190815260200160002054905092915050565b61063961085a565b600073ffffffffffffffffffffffffffffffffffffffff168173ffffffffffffffffffffffffffffffffffffffff16036106ab5760006040517f1e4fbdf70000000000000000000000000000000000000000000000000000000081526004016106a29190611185565b60405180910390fd5b6106b4816109e5565b50565b600033905090565b6106cc8383836001610aab565b505050565b60006106dd84846105aa565b90507fffffffffffffffffffffffffffffffffffffffffffffffffffffffffffffffff8110156107605781811015610750578281836040517ffb8f41b200000000000000000000000000000000000000000000000000000000815260040161074793929190611240565b60405180910390fd5b61075f84848484036000610aab565b5b50505050565b600073ffffffffffffffffffffffffffffffffffffffff168373ffffffffffffffffffffffffffffffffffffffff16036107d85760006040517f96c6fd1e0000000000000000000000000000000000000000000000000000000081526004016107cf9190611185565b60405180910390fd5b600073ffffffffffffffffffffffffffffffffffffffff168273ffffffffffffffffffffffffffffffffffffffff160361084a5760006040517fec442f050000000000000000000000000000000000000000000000000000000081526004016108419190611185565b60405180910390fd5b610855838383610c82565b505050565b6108626106b7565b73ffffffffffffffffffffffffffffffffffffffff166108806104be565b73ffffffffffffffffffffffffffffffffffffffff16146108df576108a36106b7565b6040517f118cdaa70000000000000000000000000000000000000000000000000000000081526004016108d69190611185565b60405180910390fd5b565b600073ffffffffffffffffffffffffffffffffffffffff168273ffffffffffffffffffffffffffffffffffffffff16036109535760006040517fec442f0500000000000000000000000000000000000000000000000000000000815260040161094a9190611185565b60405180910390fd5b61095f60008383610c82565b5050565b600073ffffffffffffffffffffffffffffffffffffffff168273ffffffffffffffffffffffffffffffffffffffff16036109d55760006040517f96c6fd1e0000000000000000000000000000000000000000000000000000000081526004016109cc9190611185565b60405180910390fd5b6109e182600083610c82565b5050565b6000600560009054906101000a900473ffffffffffffffffffffffffffffffffffffffff16905081600560006101000a81548173ffffffffffffffffffffffffffffffffffffffff021916908373ffffffffffffffffffffffffffffffffffffffff1602179055508173ffffffffffffffffffffffffffffffffffffffff168173ffffffffffffffffffffffffffffffffffffffff167f8be0079c531659141344cd1fd0a4f28419497f9722a3daafe3b4186f6b6457e060405160405180910390a35050565b600073ffffffffffffffffffffffffffffffffffffffff168473ffffffffffffffffffffffffffffffffffffffff1603610b1d5760006040517fe602df05000000000000000000000000000000000000000000000000000000008152600401610b149190611185565b60405180910390fd5b600073ffffffffffffffffffffffffffffffffffffffff168373ffffffffffffffffffffffffffffffffffffffff1603610b8f5760006040517f94280d62000000000000000000000000000000000000000000000000000000008152600401610b869190611185565b60405180910390fd5b81600160008673ffffffffffffffffffffffffffffffffffffffff1673ffffffffffffffffffffffffffffffffffffffff16815260200190815260200160002060008573ffffffffffffffffffffffffffffffffffffffff1673ffffffffffffffffffffffffffffffffffffffff168152602001908152602001600020819055508015610c7c578273ffffffffffffffffffffffffffffffffffffffff168473ffffffffffffffffffffffffffffffffffffffff167f8c5be1e5ebec7d5bd14f71427d1e84f3dd0314c0f7b2291e5b200ac8c7c3b92584604051610c739190611077565b60405180910390a35b50505050565b600073ffffffffffffffffffffffffffffffffffffffff168373ffffffffffffffffffffffffffffffffffffffff1603610cd4578060026000828254610cc891906112a6565b92505081905550610da7565b60008060008573ffffffffffffffffffffffffffffffffffffffff1673ffffffffffffffffffffffffffffffffffffffff16815260200190815260200160002054905081811015610d60578381836040517fe450d38c000000000000000000000000000000000000000000000000000000008152600401610d5793929190611240565b60405180910390fd5b8181036000808673ffffffffffffffffffffffffffffffffffffffff1673ffffffffffffffffffffffffffffffffffffffff16815260200190815260200160002081905550505b600073ffffffffffffffffffffffffffffffffffffffff168273ffffffffffffffffffffffffffffffffffffffff1603610df05780600260008282540392505081905550610e3d565b806000808473ffffffffffffffffffffffffffffffffffffffff1673ffffffffffffffffffffffffffffffffffffffff168152602001908152602001600020600082825401925050819055505b8173ffffffffffffffffffffffffffffffffffffffff168373ffffffffffffffffffffffffffffffffffffffff167fddf252ad1be2c89b69c2b068fc378daa952ba7f163c4a11628f55a4df523b3ef83604051610e9a9190611077565b60405180910390a3505050565b600081519050919050565b600082825260208201905092915050565b60005b83811015610ee1578082015181840152602081019050610ec6565b60008484015250505050565b6000601f19601f8301169050919050565b6000610f0982610ea7565b610f138185610eb2565b9350610f23818560208601610ec3565b610f2c81610eed565b840191505092915050565b60006020820190508181036000830152610f518184610efe565b905092915050565b600080fd5b600073ffffffffffffffffffffffffffffffffffffffff82169050919050565b6000610f8982610f5e565b9050919050565b610f9981610f7e565b8114610fa457600080fd5b50565b600081359050610fb681610f90565b92915050565b6000819050919050565b610fcf81610fbc565b8114610fda57600080fd5b50565b600081359050610fec81610fc6565b92915050565b6000806040838503121561100957611008610f59565b5b600061101785828601610fa7565b925050602061102885828601610fdd565b9150509250929050565b60008115159050919050565b61104781611032565b82525050565b6000602082019050611062600083018461103e565b92915050565b61107181610fbc565b82525050565b600060208201905061108c6000830184611068565b92915050565b6000806000606084860312156110ab576110aa610f59565b5b60006110b986828701610fa7565b93505060206110ca86828701610fa7565b92505060406110db86828701610fdd565b9150509250925092565b600060ff82169050919050565b6110fb816110e5565b82525050565b600060208201905061111660008301846110f2565b92915050565b60006020828403121561113257611131610f59565b5b600061114084828501610fdd565b91505092915050565b60006020828403121561115f5761115e610f59565b5b600061116d84828501610fa7565b91505092915050565b61117f81610f7e565b82525050565b600060208201905061119a6000830184611176565b92915050565b600080604083850312156111b7576111b6610f59565b5b60006111c585828601610fa7565b92505060206111d685828601610fa7565b9150509250929050565b7f4e487b7100000000000000000000000000000000000000000000000000000000600052602260045260246000fd5b6000600282049050600182168061122757607f821691505b60208210810361123a576112396111e0565b5b50919050565b60006060820190506112556000830186611176565b6112626020830185611068565b61126f6040830184611068565b949350505050565b7f4e487b7100000000000000000000000000000000000000000000000000000000600052601160045260246000fd5b60006112b182610fbc565b91506112bc83610fbc565b92508282019050808211156112d4576112d3611277565b5b9291505056fea264697066735822122047d5911d7c465c124b899ecf2dda4d23549d5d4115ce1c1346f1448f968724af64736f6c634300081c0033",
  "linkReferences": {},
  "deployedLinkReferences": {}
}